{
  "_format": "hh-sol-artifact-1",
  "contractName": "ContentsToken",
  "sourceName": "contracts/ContentsToken.sol",
  "abi": [
    {
      "inputs": [
        {
          "internalType": "address",
          "name": "_developer",
          "type": "address"
        },
        {
          "internalType": "address",
          "name": "_committee",
          "type": "address"
        },
        {
          "components": [
            {
              "internalType": "uint256",
              "name": "maxPrice",
              "type": "uint256"
            },
            {
              "internalType": "uint256",
              "name": "minPrice",
              "type": "uint256"
            },
            {
              "internalType": "uint256",
              "name": "priceDelta",
              "type": "uint256"
            },
            {
              "internalType": "uint256",
              "name": "timeDelta",
              "type": "uint256"
            },
            {
              "internalType": "uint256",
              "name": "expirationTime",
              "type": "uint256"
            }
          ],
          "internalType": "struct ContentsToken.PriceSeed",
          "name": "_priceSeed",
          "type": "tuple"
        },
        {
          "internalType": "contract IProxyRegistry",
          "name": "_proxyRegistry",
          "type": "address"
        }
      ],
      "stateMutability": "nonpayable",
      "type": "constructor"
    },
    {
      "anonymous": false,
      "inputs": [
        {
          "indexed": true,
          "internalType": "address",
          "name": "owner",
          "type": "address"
        },
        {
          "indexed": true,
          "internalType": "address",
          "name": "approved",
          "type": "address"
        },
        {
          "indexed": true,
          "internalType": "uint256",
          "name": "tokenId",
          "type": "uint256"
        }
      ],
      "name": "Approval",
      "type": "event"
    },
    {
      "anonymous": false,
      "inputs": [
        {
          "indexed": true,
          "internalType": "address",
          "name": "owner",
          "type": "address"
        },
        {
          "indexed": true,
          "internalType": "address",
          "name": "operator",
          "type": "address"
        },
        {
          "indexed": false,
          "internalType": "bool",
          "name": "approved",
          "type": "bool"
        }
      ],
      "name": "ApprovalForAll",
      "type": "event"
    },
    {
      "anonymous": false,
      "inputs": [
        {
          "indexed": true,
          "internalType": "uint256",
          "name": "tokenId",
          "type": "uint256"
        },
        {
          "indexed": false,
          "internalType": "address",
          "name": "newOwner",
          "type": "address"
        }
      ],
      "name": "ContentsBought",
      "type": "event"
    },
    {
      "anonymous": false,
      "inputs": [
        {
          "indexed": true,
          "internalType": "uint256",
          "name": "tokenId",
          "type": "uint256"
        }
      ],
      "name": "ContentsBurned",
      "type": "event"
    },
    {
      "anonymous": false,
      "inputs": [
        {
          "indexed": true,
          "internalType": "uint256",
          "name": "tokenId",
          "type": "uint256"
        }
      ],
      "name": "ContentsCreated",
      "type": "event"
    },
    {
      "anonymous": false,
      "inputs": [
        {
          "indexed": true,
          "internalType": "address",
          "name": "delegator",
          "type": "address"
        },
        {
          "indexed": true,
          "internalType": "address",
          "name": "fromDelegate",
          "type": "address"
        },
        {
          "indexed": true,
          "internalType": "address",
          "name": "toDelegate",
          "type": "address"
        }
      ],
      "name": "DelegateChanged",
      "type": "event"
    },
    {
      "anonymous": false,
      "inputs": [
        {
          "indexed": true,
          "internalType": "address",
          "name": "delegate",
          "type": "address"
        },
        {
          "indexed": false,
          "internalType": "uint256",
          "name": "previousBalance",
          "type": "uint256"
        },
        {
          "indexed": false,
          "internalType": "uint256",
          "name": "newBalance",
          "type": "uint256"
        }
      ],
      "name": "DelegateVotesChanged",
      "type": "event"
    },
    {
      "anonymous": false,
      "inputs": [
        {
          "indexed": false,
          "internalType": "uint256",
          "name": "mintTime",
          "type": "uint256"
        }
      ],
      "name": "MintTimeUpdated",
      "type": "event"
    },
    {
      "anonymous": false,
      "inputs": [
        {
          "indexed": true,
          "internalType": "address",
          "name": "previousOwner",
          "type": "address"
        },
        {
          "indexed": true,
          "internalType": "address",
          "name": "newOwner",
          "type": "address"
        }
      ],
      "name": "OwnershipTransferred",
      "type": "event"
    },
    {
      "anonymous": false,
      "inputs": [
        {
          "indexed": true,
          "internalType": "address",
          "name": "from",
          "type": "address"
        },
        {
          "indexed": true,
          "internalType": "address",
          "name": "to",
          "type": "address"
        },
        {
          "indexed": true,
          "internalType": "uint256",
          "name": "tokenId",
          "type": "uint256"
        }
      ],
      "name": "Transfer",
      "type": "event"
    },
    {
      "inputs": [],
      "name": "DELEGATION_TYPEHASH",
      "outputs": [
        {
          "internalType": "bytes32",
          "name": "",
          "type": "bytes32"
        }
      ],
      "stateMutability": "view",
      "type": "function"
    },
    {
      "inputs": [],
      "name": "DOMAIN_TYPEHASH",
      "outputs": [
        {
          "internalType": "bytes32",
          "name": "",
          "type": "bytes32"
        }
      ],
      "stateMutability": "view",
      "type": "function"
    },
    {
      "inputs": [
        {
          "internalType": "address",
          "name": "_authority",
          "type": "address"
        }
      ],
      "name": "addAuthority",
      "outputs": [],
      "stateMutability": "nonpayable",
      "type": "function"
    },
    {
      "inputs": [
        {
          "internalType": "address",
          "name": "to",
          "type": "address"
        },
        {
          "internalType": "uint256",
          "name": "tokenId",
          "type": "uint256"
        }
      ],
      "name": "approve",
      "outputs": [],
      "stateMutability": "nonpayable",
      "type": "function"
    },
    {
      "inputs": [
        {
          "internalType": "address",
          "name": "owner",
          "type": "address"
        }
      ],
      "name": "balanceOf",
      "outputs": [
        {
          "internalType": "uint256",
          "name": "",
          "type": "uint256"
        }
      ],
      "stateMutability": "view",
      "type": "function"
    },
    {
      "inputs": [
        {
          "internalType": "uint256",
          "name": "contentsId",
          "type": "uint256"
        }
      ],
      "name": "burn",
      "outputs": [],
      "stateMutability": "nonpayable",
      "type": "function"
    },
    {
      "inputs": [],
      "name": "burnExpiredToken",
      "outputs": [],
      "stateMutability": "nonpayable",
      "type": "function"
    },
    {
      "inputs": [
        {
          "internalType": "uint256",
          "name": "tokenId",
          "type": "uint256"
        }
      ],
      "name": "buy",
      "outputs": [
        {
          "internalType": "uint256",
          "name": "",
          "type": "uint256"
        }
      ],
      "stateMutability": "payable",
      "type": "function"
    },
    {
      "inputs": [
        {
          "internalType": "address",
          "name": "",
          "type": "address"
        },
        {
          "internalType": "uint32",
          "name": "",
          "type": "uint32"
        }
      ],
      "name": "checkpoints",
      "outputs": [
        {
          "internalType": "uint32",
          "name": "fromBlock",
          "type": "uint32"
        },
        {
          "internalType": "uint96",
          "name": "votes",
          "type": "uint96"
        }
      ],
      "stateMutability": "view",
      "type": "function"
    },
    {
      "inputs": [],
      "name": "committee",
      "outputs": [
        {
          "internalType": "address",
          "name": "",
          "type": "address"
        }
      ],
      "stateMutability": "view",
      "type": "function"
    },
    {
      "inputs": [
        {
          "internalType": "uint256",
          "name": "tokenId",
          "type": "uint256"
        }
      ],
      "name": "dataURI",
      "outputs": [
        {
          "internalType": "string",
          "name": "",
          "type": "string"
        }
      ],
      "stateMutability": "view",
      "type": "function"
    },
    {
      "inputs": [],
      "name": "decimals",
      "outputs": [
        {
          "internalType": "uint8",
          "name": "",
          "type": "uint8"
        }
      ],
      "stateMutability": "view",
      "type": "function"
    },
    {
      "inputs": [
        {
          "internalType": "address",
          "name": "delegatee",
          "type": "address"
        }
      ],
      "name": "delegate",
      "outputs": [],
      "stateMutability": "nonpayable",
      "type": "function"
    },
    {
      "inputs": [
        {
          "internalType": "address",
          "name": "delegatee",
          "type": "address"
        },
        {
          "internalType": "uint256",
          "name": "nonce",
          "type": "uint256"
        },
        {
          "internalType": "uint256",
          "name": "expiry",
          "type": "uint256"
        },
        {
          "internalType": "uint8",
          "name": "v",
          "type": "uint8"
        },
        {
          "internalType": "bytes32",
          "name": "r",
          "type": "bytes32"
        },
        {
          "internalType": "bytes32",
          "name": "s",
          "type": "bytes32"
        }
      ],
      "name": "delegateBySig",
      "outputs": [],
      "stateMutability": "nonpayable",
      "type": "function"
    },
    {
      "inputs": [
        {
          "internalType": "address",
          "name": "delegator",
          "type": "address"
        }
      ],
      "name": "delegates",
      "outputs": [
        {
          "internalType": "address",
          "name": "",
          "type": "address"
        }
      ],
      "stateMutability": "view",
      "type": "function"
    },
    {
      "inputs": [],
      "name": "developer",
      "outputs": [
        {
          "internalType": "address",
          "name": "",
          "type": "address"
        }
      ],
      "stateMutability": "view",
      "type": "function"
    },
    {
      "inputs": [
        {
          "internalType": "uint256",
          "name": "tokenId",
          "type": "uint256"
        }
      ],
      "name": "getApproved",
      "outputs": [
        {
          "internalType": "address",
          "name": "",
          "type": "address"
        }
      ],
      "stateMutability": "view",
      "type": "function"
    },
    {
      "inputs": [],
      "name": "getCurrentToken",
      "outputs": [
        {
          "internalType": "uint256",
          "name": "",
          "type": "uint256"
        }
      ],
      "stateMutability": "view",
      "type": "function"
    },
    {
      "inputs": [
        {
          "internalType": "address",
          "name": "account",
          "type": "address"
        }
      ],
      "name": "getCurrentVotes",
      "outputs": [
        {
          "internalType": "uint96",
          "name": "",
          "type": "uint96"
        }
      ],
      "stateMutability": "view",
      "type": "function"
    },
    {
      "inputs": [],
      "name": "getMintTime",
      "outputs": [
        {
          "internalType": "uint256",
          "name": "",
          "type": "uint256"
        }
      ],
      "stateMutability": "view",
      "type": "function"
    },
    {
      "inputs": [],
      "name": "getPriceData",
      "outputs": [
        {
          "components": [
            {
              "internalType": "uint256",
              "name": "maxPrice",
              "type": "uint256"
            },
            {
              "internalType": "uint256",
              "name": "minPrice",
              "type": "uint256"
            },
            {
              "internalType": "uint256",
              "name": "priceDelta",
              "type": "uint256"
            },
            {
              "internalType": "uint256",
              "name": "timeDelta",
              "type": "uint256"
            },
            {
              "internalType": "uint256",
              "name": "expirationTime",
              "type": "uint256"
            }
          ],
          "internalType": "struct ContentsToken.PriceSeed",
          "name": "",
          "type": "tuple"
        }
      ],
      "stateMutability": "view",
      "type": "function"
    },
    {
      "inputs": [
        {
          "internalType": "address",
          "name": "account",
          "type": "address"
        },
        {
          "internalType": "uint256",
          "name": "blockNumber",
          "type": "uint256"
        }
      ],
      "name": "getPriorVotes",
      "outputs": [
        {
          "internalType": "uint96",
          "name": "",
          "type": "uint96"
        }
      ],
      "stateMutability": "view",
      "type": "function"
    },
    {
      "inputs": [
        {
          "internalType": "address",
          "name": "owner",
          "type": "address"
        },
        {
          "internalType": "address",
          "name": "operator",
          "type": "address"
        }
      ],
      "name": "isApprovedForAll",
      "outputs": [
        {
          "internalType": "bool",
          "name": "",
          "type": "bool"
        }
      ],
      "stateMutability": "view",
      "type": "function"
    },
    {
      "inputs": [
        {
          "internalType": "address",
          "name": "to",
          "type": "address"
        },
        {
          "internalType": "address",
          "name": "authority",
          "type": "address"
        },
        {
          "internalType": "string",
          "name": "contents",
          "type": "string"
        }
      ],
      "name": "mint",
      "outputs": [
        {
          "internalType": "uint256",
          "name": "",
          "type": "uint256"
        }
      ],
      "stateMutability": "nonpayable",
      "type": "function"
    },
    {
      "inputs": [],
      "name": "mintTime",
      "outputs": [
        {
          "internalType": "uint256",
          "name": "",
          "type": "uint256"
        }
      ],
      "stateMutability": "view",
      "type": "function"
    },
    {
      "inputs": [],
      "name": "name",
      "outputs": [
        {
          "internalType": "string",
          "name": "",
          "type": "string"
        }
      ],
      "stateMutability": "view",
      "type": "function"
    },
    {
      "inputs": [
        {
          "internalType": "address",
          "name": "",
          "type": "address"
        }
      ],
      "name": "nonces",
      "outputs": [
        {
          "internalType": "uint256",
          "name": "",
          "type": "uint256"
        }
      ],
      "stateMutability": "view",
      "type": "function"
    },
    {
      "inputs": [
        {
          "internalType": "address",
          "name": "",
          "type": "address"
        }
      ],
      "name": "numCheckpoints",
      "outputs": [
        {
          "internalType": "uint32",
          "name": "",
          "type": "uint32"
        }
      ],
      "stateMutability": "view",
      "type": "function"
    },
    {
      "inputs": [],
      "name": "owner",
      "outputs": [
        {
          "internalType": "address",
          "name": "",
          "type": "address"
        }
      ],
      "stateMutability": "view",
      "type": "function"
    },
    {
      "inputs": [
        {
          "internalType": "uint256",
          "name": "tokenId",
          "type": "uint256"
        }
      ],
      "name": "ownerOf",
      "outputs": [
        {
          "internalType": "address",
          "name": "",
          "type": "address"
        }
      ],
      "stateMutability": "view",
      "type": "function"
    },
    {
      "inputs": [],
      "name": "priceSeed",
      "outputs": [
        {
          "internalType": "uint256",
          "name": "maxPrice",
          "type": "uint256"
        },
        {
          "internalType": "uint256",
          "name": "minPrice",
          "type": "uint256"
        },
        {
          "internalType": "uint256",
          "name": "priceDelta",
          "type": "uint256"
        },
        {
          "internalType": "uint256",
          "name": "timeDelta",
          "type": "uint256"
        },
        {
          "internalType": "uint256",
          "name": "expirationTime",
          "type": "uint256"
        }
      ],
      "stateMutability": "view",
      "type": "function"
    },
    {
      "inputs": [],
      "name": "proxyRegistry",
      "outputs": [
        {
          "internalType": "contract IProxyRegistry",
          "name": "",
          "type": "address"
        }
      ],
      "stateMutability": "view",
      "type": "function"
    },
    {
      "inputs": [],
      "name": "renounceOwnership",
      "outputs": [],
      "stateMutability": "nonpayable",
      "type": "function"
    },
    {
      "inputs": [
        {
          "internalType": "address",
          "name": "from",
          "type": "address"
        },
        {
          "internalType": "address",
          "name": "to",
          "type": "address"
        },
        {
          "internalType": "uint256",
          "name": "tokenId",
          "type": "uint256"
        }
      ],
      "name": "safeTransferFrom",
      "outputs": [],
      "stateMutability": "nonpayable",
      "type": "function"
    },
    {
      "inputs": [
        {
          "internalType": "address",
          "name": "from",
          "type": "address"
        },
        {
          "internalType": "address",
          "name": "to",
          "type": "address"
        },
        {
          "internalType": "uint256",
          "name": "tokenId",
          "type": "uint256"
        },
        {
          "internalType": "bytes",
          "name": "_data",
          "type": "bytes"
        }
      ],
      "name": "safeTransferFrom",
      "outputs": [],
      "stateMutability": "nonpayable",
      "type": "function"
    },
    {
      "inputs": [
        {
          "internalType": "address",
          "name": "operator",
          "type": "address"
        },
        {
          "internalType": "bool",
          "name": "approved",
          "type": "bool"
        }
      ],
      "name": "setApprovalForAll",
      "outputs": [],
      "stateMutability": "nonpayable",
      "type": "function"
    },
    {
      "inputs": [
        {
          "internalType": "address",
          "name": "_committee",
          "type": "address"
        }
      ],
      "name": "setCommittee",
      "outputs": [],
      "stateMutability": "nonpayable",
      "type": "function"
    },
    {
      "inputs": [
        {
          "internalType": "address",
          "name": "_developer",
          "type": "address"
        }
      ],
      "name": "setDeveloper",
      "outputs": [],
      "stateMutability": "nonpayable",
      "type": "function"
    },
    {
      "inputs": [
        {
          "components": [
            {
              "internalType": "uint256",
              "name": "maxPrice",
              "type": "uint256"
            },
            {
              "internalType": "uint256",
              "name": "minPrice",
              "type": "uint256"
            },
            {
              "internalType": "uint256",
              "name": "priceDelta",
              "type": "uint256"
            },
            {
              "internalType": "uint256",
              "name": "timeDelta",
              "type": "uint256"
            },
            {
              "internalType": "uint256",
              "name": "expirationTime",
              "type": "uint256"
            }
          ],
          "internalType": "struct ContentsToken.PriceSeed",
          "name": "_priceSeed",
          "type": "tuple"
        }
      ],
      "name": "setPriceData",
      "outputs": [],
      "stateMutability": "nonpayable",
      "type": "function"
    },
    {
      "inputs": [
        {
          "internalType": "string",
          "name": "_url",
          "type": "string"
        }
      ],
      "name": "setWeb2",
      "outputs": [],
      "stateMutability": "nonpayable",
      "type": "function"
    },
    {
      "inputs": [
        {
          "internalType": "bytes4",
          "name": "interfaceId",
          "type": "bytes4"
        }
      ],
      "name": "supportsInterface",
      "outputs": [
        {
          "internalType": "bool",
          "name": "",
          "type": "bool"
        }
      ],
      "stateMutability": "view",
      "type": "function"
    },
    {
      "inputs": [],
      "name": "symbol",
      "outputs": [
        {
          "internalType": "string",
          "name": "",
          "type": "string"
        }
      ],
      "stateMutability": "view",
      "type": "function"
    },
    {
      "inputs": [
        {
          "internalType": "uint256",
          "name": "index",
          "type": "uint256"
        }
      ],
      "name": "tokenByIndex",
      "outputs": [
        {
          "internalType": "uint256",
          "name": "",
          "type": "uint256"
        }
      ],
      "stateMutability": "view",
      "type": "function"
    },
    {
      "inputs": [
        {
          "internalType": "address",
          "name": "owner",
          "type": "address"
        },
        {
          "internalType": "uint256",
          "name": "index",
          "type": "uint256"
        }
      ],
      "name": "tokenOfOwnerByIndex",
      "outputs": [
        {
          "internalType": "uint256",
          "name": "",
          "type": "uint256"
        }
      ],
      "stateMutability": "view",
      "type": "function"
    },
    {
      "inputs": [
        {
          "internalType": "uint256",
          "name": "tokenId",
          "type": "uint256"
        }
      ],
      "name": "tokenPrice",
      "outputs": [
        {
          "internalType": "uint256",
          "name": "",
          "type": "uint256"
        }
      ],
      "stateMutability": "view",
      "type": "function"
    },
    {
      "inputs": [
        {
          "internalType": "uint256",
          "name": "tokenId",
          "type": "uint256"
        }
      ],
      "name": "tokenURI",
      "outputs": [
        {
          "internalType": "string",
          "name": "",
          "type": "string"
        }
      ],
      "stateMutability": "view",
      "type": "function"
    },
    {
      "inputs": [],
      "name": "totalSupply",
      "outputs": [
        {
          "internalType": "uint256",
          "name": "",
          "type": "uint256"
        }
      ],
      "stateMutability": "view",
      "type": "function"
    },
    {
      "inputs": [],
      "name": "transfer",
      "outputs": [],
      "stateMutability": "nonpayable",
      "type": "function"
    },
    {
      "inputs": [
        {
          "internalType": "address",
          "name": "from",
          "type": "address"
        },
        {
          "internalType": "address",
          "name": "to",
          "type": "address"
        },
        {
          "internalType": "uint256",
          "name": "tokenId",
          "type": "uint256"
        }
      ],
      "name": "transferFrom",
      "outputs": [],
      "stateMutability": "nonpayable",
      "type": "function"
    },
    {
      "inputs": [
        {
          "internalType": "address",
          "name": "newOwner",
          "type": "address"
        }
      ],
      "name": "transferOwnership",
      "outputs": [],
      "stateMutability": "nonpayable",
      "type": "function"
    },
    {
      "inputs": [
        {
          "internalType": "address",
          "name": "delegator",
          "type": "address"
        }
      ],
      "name": "votesToDelegate",
      "outputs": [
        {
          "internalType": "uint96",
          "name": "",
          "type": "uint96"
        }
      ],
      "stateMutability": "view",
      "type": "function"
    },
    {
      "inputs": [],
      "name": "web2Url",
      "outputs": [
        {
          "internalType": "string",
          "name": "",
          "type": "string"
        }
      ],
      "stateMutability": "view",
      "type": "function"
    }
  ],
  "bytecode": "0x60a06040523480156200001157600080fd5b5060405162004d2538038062004d2583398101604081905262000034916200023a565b6040518060400160405280601081526020016f4e6f756e734d6170436f6e74656e747360801b815250604051806040016040528060038152602001624e4d4360e81b815250620000936200008d6200012e60201b60201c565b62000132565b8151620000a890600190602085019062000182565b508051620000be90600290602084019062000182565b5050601980546001600160a01b039687166001600160a01b031991821617909155600f8054959096169416939093179093556001600160601b0319606093841b16608090815281516014556020820151601555604082015160165592810151601755909101516018555062000361565b3390565b600080546001600160a01b038381166001600160a01b0319831681178455604051919092169283917f8be0079c531659141344cd1fd0a4f28419497f9722a3daafe3b4186f6b6457e09190a35050565b82805462000190906200030b565b90600052602060002090601f016020900481019282620001b45760008555620001ff565b82601f10620001cf57805160ff1916838001178555620001ff565b82800160010185558215620001ff579182015b82811115620001ff578251825591602001919060010190620001e2565b506200020d92915062000211565b5090565b5b808211156200020d576000815560010162000212565b8051620002358162000348565b919050565b6000806000808486036101008112156200025357600080fd5b8551620002608162000348565b6020870151909550620002738162000348565b935060a0603f19820112156200028857600080fd5b5060405160a081016001600160401b0381118282101715620002ba57634e487b7160e01b600052604160045260246000fd5b806040525060408601518152606086015160208201526080860151604082015260a0860151606082015260c08601516080820152809250506200030060e0860162000228565b905092959194509250565b600181811c908216806200032057607f821691505b602082108114156200034257634e487b7160e01b600052602260045260246000fd5b50919050565b6001600160a01b03811681146200035e57600080fd5b50565b60805160601c61499e6200038760003960008181610866015261250f015261499e6000f3fe60806040526004361061033f5760003560e01c80637ecebe00116101b0578063c87b56dd116100ec578063e7a324dc11610095578063ef2d17461161006f578063ef2d174614610a0f578063f1127ed814610a24578063f2fde38b14610a99578063ff70fa4914610ab957600080fd5b8063e7a324dc1461099b578063e9580e91146109cf578063e985e9c5146109ef57600080fd5b8063d864e740116100c6578063d864e74014610948578063d96a094a14610968578063e6f615361461097b57600080fd5b8063c87b56dd146108e8578063ca4b208b14610908578063d4ddce8a1461092857600080fd5b8063a22cb46511610159578063b50cbd9f11610133578063b50cbd9f14610854578063b88d4fde14610888578063bddae40e146108a8578063c3cda520146108c857600080fd5b8063a22cb465146107bd578063a4a28168146107dd578063b4b5ea571461083457600080fd5b80638a4068dd1161018a5780638a4068dd146107755780638da5cb5b1461078a57806395d89b41146107a857600080fd5b80637ecebe0014610712578063864781221461073f578063864a28ec1461075557600080fd5b80633053ea2b1161027f5780635ac1e3bb116102285780636fcfff45116102025780636fcfff451461065d57806370a08231146106a5578063715018a6146106c5578063782d6fe1146106da57600080fd5b80635ac1e3bb146105fd5780635c19a95c1461061d5780636352211e1461063d57600080fd5b806342966c681161025957806342966c681461059d5780634f6ccce7146105bd578063587cde1e146105dd57600080fd5b80633053ea2b14610541578063313ce5671461055657806342842e0e1461057d57600080fd5b8063095ea7b3116102ec578063221375a6116102c6578063221375a6146104c157806323b872dd146104e157806326defa73146105015780632f745c591461052157600080fd5b8063095ea7b31461045657806318160ddd1461047857806320606b701461048d57600080fd5b806303e65c961161031d57806303e65c96146103ea57806306fdde0314610409578063081812fc1461041e57600080fd5b806301ffc9a714610344578063026833c71461037957806302a1146e146103c8575b600080fd5b34801561035057600080fd5b5061036461035f3660046141ab565b610ad9565b60405190151581526020015b60405180910390f35b34801561038557600080fd5b506014546015546016546017546018546103a0949392919085565b604080519586526020860194909452928401919091526060830152608082015260a001610370565b3480156103d457600080fd5b506103dd610b1d565b60405161037091906145b3565b3480156103f657600080fd5b506013545b604051908152602001610370565b34801561041557600080fd5b506103dd610bab565b34801561042a57600080fd5b5061043e610439366004614297565b610c3d565b6040516001600160a01b039091168152602001610370565b34801561046257600080fd5b506104766104713660046140e6565b610cd7565b005b34801561048457600080fd5b506009546103fb565b34801561049957600080fd5b506103fb7f8cad95687ba82c2ce50e74f7b754645e5117c3a5bec8151c0726d5857980a86681565b3480156104cd57600080fd5b506103fb6104dc366004613f49565b610e09565b3480156104ed57600080fd5b506104766104fc366004613fae565b611072565b34801561050d57600080fd5b5061047661051c366004613ed6565b6110f9565b34801561052d57600080fd5b506103fb61053c3660046140e6565b611177565b34801561054d57600080fd5b5061047661121f565b34801561056257600080fd5b5061056b600081565b60405160ff9091168152602001610370565b34801561058957600080fd5b50610476610598366004613fae565b61125b565b3480156105a957600080fd5b506104766105b8366004614297565b611276565b3480156105c957600080fd5b506103fb6105d8366004614297565b6113a3565b3480156105e957600080fd5b5061043e6105f8366004613ed6565b611447565b34801561060957600080fd5b506103dd610618366004614297565b611479565b34801561062957600080fd5b50610476610638366004613ed6565b6115d1565b34801561064957600080fd5b5061043e610658366004614297565b6115ef565b34801561066957600080fd5b50610690610678366004613ed6565b600d6020526000908152604090205463ffffffff1681565b60405163ffffffff9091168152602001610370565b3480156106b157600080fd5b506103fb6106c0366004613ed6565b61167a565b3480156106d157600080fd5b50610476611714565b3480156106e657600080fd5b506106fa6106f53660046140e6565b61177a565b6040516001600160601b039091168152602001610370565b34801561071e57600080fd5b506103fb61072d366004613ed6565b600e6020526000908152604090205481565b34801561074b57600080fd5b506103fb60135481565b34801561076157600080fd5b50610476610770366004614227565b611a1a565b34801561078157600080fd5b50610476611b14565b34801561079657600080fd5b506000546001600160a01b031661043e565b3480156107b457600080fd5b506103dd611ba9565b3480156107c957600080fd5b506104766107d83660046140b3565b611bb8565b3480156107e957600080fd5b506107f2611c7d565b6040516103709190600060a082019050825182526020830151602083015260408301516040830152606083015160608301526080830151608083015292915050565b34801561084057600080fd5b506106fa61084f366004613ed6565b611ce4565b34801561086057600080fd5b5061043e7f000000000000000000000000000000000000000000000000000000000000000081565b34801561089457600080fd5b506104766108a3366004613fef565b611d62565b3480156108b457600080fd5b506104766108c3366004613ed6565b611df0565b3480156108d457600080fd5b506104766108e3366004614112565b611e6c565b3480156108f457600080fd5b506103dd610903366004614297565b61219e565b34801561091457600080fd5b5060195461043e906001600160a01b031681565b34801561093457600080fd5b506103fb610943366004614297565b612225565b34801561095457600080fd5b50600f5461043e906001600160a01b031681565b6103fb610976366004614297565b6122b3565b34801561098757600080fd5b506104766109963660046141e5565b61243e565b3480156109a757600080fd5b506103fb7fe48329057bfd03d55e49b547132e39cffd9c1820ad7b9d4c5307691425d15adf81565b3480156109db57600080fd5b506106fa6109ea366004613ed6565b6124a4565b3480156109fb57600080fd5b50610364610a0a366004613f10565b6124d0565b348015610a1b57600080fd5b506012546103fb565b348015610a3057600080fd5b50610a75610a3f366004614174565b600c60209081526000928352604080842090915290825290205463ffffffff81169064010000000090046001600160601b031682565b6040805163ffffffff90931683526001600160601b03909116602083015201610370565b348015610aa557600080fd5b50610476610ab4366004613ed6565b6125ce565b348015610ac557600080fd5b50610476610ad4366004613ed6565b6126ad565b60006001600160e01b031982167f780e9d63000000000000000000000000000000000000000000000000000000001480610b175750610b1782612729565b92915050565b60118054610b2a90614737565b80601f0160208091040260200160405190810160405280929190818152602001828054610b5690614737565b8015610ba35780601f10610b7857610100808354040283529160200191610ba3565b820191906000526020600020905b815481529060010190602001808311610b8657829003601f168201915b505050505081565b606060018054610bba90614737565b80601f0160208091040260200160405190810160405280929190818152602001828054610be690614737565b8015610c335780601f10610c0857610100808354040283529160200191610c33565b820191906000526020600020905b815481529060010190602001808311610c1657829003601f168201915b5050505050905090565b6000818152600360205260408120546001600160a01b0316610cbb5760405162461bcd60e51b815260206004820152602c60248201527f4552433732313a20617070726f76656420717565727920666f72206e6f6e657860448201526b34b9ba32b73a103a37b5b2b760a11b60648201526084015b60405180910390fd5b506000908152600560205260409020546001600160a01b031690565b6000610ce2826115ef565b9050806001600160a01b0316836001600160a01b03161415610d6c5760405162461bcd60e51b815260206004820152602160248201527f4552433732313a20617070726f76616c20746f2063757272656e74206f776e6560448201527f72000000000000000000000000000000000000000000000000000000000000006064820152608401610cb2565b336001600160a01b0382161480610d885750610d8881336124d0565b610dfa5760405162461bcd60e51b815260206004820152603860248201527f4552433732313a20617070726f76652063616c6c6572206973206e6f74206f7760448201527f6e6572206e6f7220617070726f76656420666f7220616c6c00000000000000006064820152608401610cb2565b610e0483836127c4565b505050565b6000610e1484612832565b6001600160a01b0384166000908152601b602052604090205460ff16610e7c5760405162461bcd60e51b815260206004820152601a60248201527f77726f6e6720617574686f7269747920737065636966696564200000000000006044820152606401610cb2565b6040517fb4b5ea5700000000000000000000000000000000000000000000000000000000815233600482015284906000906001600160a01b0383169063b4b5ea579060240160206040518083038186803b158015610ed957600080fd5b505afa158015610eed573d6000803e3d6000fd5b505050506040513d601f19601f82011682018060405250810190610f1191906142b0565b9050610f1c33612832565b610f2e816001600160601b0316612893565b806001600160601b0316600010610fad5760405162461bcd60e51b815260206004820152602260248201527f6d696e7465722073686f756c64206861766520617574686f7269747920746f6b60448201527f656e0000000000000000000000000000000000000000000000000000000000006064820152608401610cb2565b610fb687612832565b610ff585858080601f0160208091040260200160405190810160405280939291908181526020018383808284376000920191909152506128f192505050565b601280546000918261100683614772565b909155506000818152601060205260409020909150611026908787613df4565b5061103233898361294d565b61103a612ae3565b60405181907f63a9977ab43bef44e47567eadb373b1cd9e4200c2c263977268a6f40c2c12dba90600090a2925050505b949350505050565b61107c3382612b1e565b6110ee5760405162461bcd60e51b815260206004820152603160248201527f4552433732313a207472616e736665722063616c6c6572206973206e6f74206f60448201527f776e6572206e6f7220617070726f7665640000000000000000000000000000006064820152608401610cb2565b610e04838383612bed565b6000546001600160a01b031633146111535760405162461bcd60e51b815260206004820181905260248201527f4f776e61626c653a2063616c6c6572206973206e6f7420746865206f776e65726044820152606401610cb2565b6001600160a01b03166000908152601b60205260409020805460ff19166001179055565b60006111828361167a565b82106111f65760405162461bcd60e51b815260206004820152602b60248201527f455243373231456e756d657261626c653a206f776e657220696e646578206f7560448201527f74206f6620626f756e64730000000000000000000000000000000000000000006064820152608401610cb2565b506001600160a01b03919091166000908152600760209081526040808320938352929052205490565b60006013544261122f91906146af565b60185490915081111561124e5761124e60016012546105b891906146af565b61125730612dac565b5050565b610e0483838360405180602001604052806000815250611d62565b6000546001600160a01b031633146112d05760405162461bcd60e51b815260206004820181905260248201527f4f776e61626c653a2063616c6c6572206973206e6f7420746865206f776e65726044820152606401610cb2565b6000818152600360205260409020546001600160a01b031661134b5760405162461bcd60e51b815260206004820152602e60248201527f436f6e74656e7473546f6b656e3a2055524920717565727920666f72206e6f6e60448201526d32bc34b9ba32b73a103a37b5b2b760911b6064820152608401610cb2565b80600160125461135b91906146af565b141561136c5761136a30612dac565b505b61137581612e0a565b60405181907f2757a0113ded6b405fde2663a485eba455ba82c18e36543205ba89e6a476a44b90600090a250565b60006113ae60095490565b82106114225760405162461bcd60e51b815260206004820152602c60248201527f455243373231456e756d657261626c653a20676c6f62616c20696e646578206f60448201527f7574206f6620626f756e647300000000000000000000000000000000000000006064820152608401610cb2565b60098281548110611435576114356147e3565b90600052602060002001549050919050565b6001600160a01b038082166000908152600b602052604081205490911680156114705780611472565b825b9392505050565b6000818152600360205260409020546060906001600160a01b03166114f75760405162461bcd60e51b815260206004820152602e60248201527f436f6e74656e7473546f6b656e3a2055524920717565727920666f72206e6f6e60448201526d32bc34b9ba32b73a103a37b5b2b760911b6064820152608401610cb2565b600061150283612eb1565b905060008160405160200161151791906144a9565b604051602081830303815290604052905060008260405160200161153b91906144da565b60405160208183030381529060405290506000601161155987612eb1565b60405160200161156a929190614321565b60405160208183030381529060405290506115a7838383604051602001611593939291906143bf565b604051602081830303815290604052612fe3565b6040516020016115b79190614532565b604051602081830303815290604052945050505050919050565b6001600160a01b0381166115e25750335b6115ec3382613180565b50565b6000818152600360205260408120546001600160a01b031680610b175760405162461bcd60e51b815260206004820152602960248201527f4552433732313a206f776e657220717565727920666f72206e6f6e657869737460448201527f656e7420746f6b656e00000000000000000000000000000000000000000000006064820152608401610cb2565b60006001600160a01b0382166116f85760405162461bcd60e51b815260206004820152602a60248201527f4552433732313a2062616c616e636520717565727920666f7220746865207a6560448201527f726f2061646472657373000000000000000000000000000000000000000000006064820152608401610cb2565b506001600160a01b031660009081526004602052604090205490565b6000546001600160a01b0316331461176e5760405162461bcd60e51b815260206004820181905260248201527f4f776e61626c653a2063616c6c6572206973206e6f7420746865206f776e65726044820152606401610cb2565b6117786000613200565b565b60004382106117f15760405162461bcd60e51b815260206004820152603760248201527f455243373231436865636b706f696e7461626c653a3a6765745072696f72566f60448201527f7465733a206e6f74207965742064657465726d696e65640000000000000000006064820152608401610cb2565b6001600160a01b0383166000908152600d602052604090205463ffffffff168061181f576000915050610b17565b6001600160a01b0384166000908152600c6020526040812084916118446001856146c6565b63ffffffff908116825260208201929092526040016000205416116118b8576001600160a01b0384166000908152600c60205260408120906118876001846146c6565b63ffffffff16815260208101919091526040016000205464010000000090046001600160601b03169150610b179050565b6001600160a01b0384166000908152600c6020908152604080832083805290915290205463ffffffff168310156118f3576000915050610b17565b6000806119016001846146c6565b90505b8163ffffffff168163ffffffff1611156119d4576000600261192684846146c6565b611930919061466d565b61193a90836146c6565b6001600160a01b0388166000908152600c6020908152604080832063ffffffff8581168552908352928190208151808301909252549283168082526401000000009093046001600160601b0316918101919091529192508714156119a857602001519450610b179350505050565b805163ffffffff168711156119bf578193506119cd565b6119ca6001836146c6565b92505b5050611904565b506001600160a01b0385166000908152600c6020908152604080832063ffffffff909416835292905220546001600160601b036401000000009091041691505092915050565b6000546001600160a01b03163314611a745760405162461bcd60e51b815260206004820181905260248201527f4f776e61626c653a2063616c6c6572206973206e6f7420746865206f776e65726044820152606401610cb2565b6020810151815111611aee5760405162461bcd60e51b815260206004820152602760248201527f4d6178207072696365206d757374206265206c6172676572207468616e204d6960448201527f6e205072696365000000000000000000000000000000000000000000000000006064820152608401610cb2565b805160145560208101516015556040810151601655606081015160175560800151601855565b6000546001600160a01b03163314611b6e5760405162461bcd60e51b815260206004820181905260248201527f4f776e61626c653a2063616c6c6572206973206e6f7420746865206f776e65726044820152606401610cb2565b600f546040516001600160a01b039091169081904780156108fc02916000818181858888f19350505050158015611257573d6000803e3d6000fd5b606060028054610bba90614737565b6001600160a01b038216331415611c115760405162461bcd60e51b815260206004820152601960248201527f4552433732313a20617070726f766520746f2063616c6c6572000000000000006044820152606401610cb2565b3360008181526006602090815260408083206001600160a01b03871680855290835292819020805460ff191686151590811790915590519081529192917f17307eab39ab6107e8899845ad3d59bd9653f200f220920489ca2b5937696c31910160405180910390a35050565b611caf6040518060a0016040528060008152602001600081526020016000815260200160008152602001600081525090565b506040805160a08101825260145481526015546020820152601654918101919091526017546060820152601854608082015290565b6001600160a01b0381166000908152600d602052604081205463ffffffff1680611d0f576000611472565b6001600160a01b0383166000908152600c6020526040812090611d336001846146c6565b63ffffffff16815260208101919091526040016000205464010000000090046001600160601b03169392505050565b611d6c3383612b1e565b611dde5760405162461bcd60e51b815260206004820152603160248201527f4552433732313a207472616e736665722063616c6c6572206973206e6f74206f60448201527f776e6572206e6f7220617070726f7665640000000000000000000000000000006064820152608401610cb2565b611dea84848484613250565b50505050565b6000546001600160a01b03163314611e4a5760405162461bcd60e51b815260206004820181905260248201527f4f776e61626c653a2063616c6c6572206973206e6f7420746865206f776e65726044820152606401610cb2565b600f80546001600160a01b0319166001600160a01b0392909216919091179055565b60007f8cad95687ba82c2ce50e74f7b754645e5117c3a5bec8151c0726d5857980a866611e97610bab565b80519060200120611ea54690565b60408051602080820195909552808201939093526060830191909152306080808401919091528151808403909101815260a0830182528051908401207fe48329057bfd03d55e49b547132e39cffd9c1820ad7b9d4c5307691425d15adf60c08401526001600160a01b038b1660e084015261010083018a90526101208084018a9052825180850390910181526101408401909252815191909301207f1901000000000000000000000000000000000000000000000000000000000000610160830152610162820183905261018282018190529192506000906101a20160408051601f198184030181528282528051602091820120600080855291840180845281905260ff8a169284019290925260608301889052608083018790529092509060019060a0016020604051602081039080840390855afa158015611fec573d6000803e3d6000fd5b5050604051601f1901519150506001600160a01b0381166120755760405162461bcd60e51b815260206004820152603660248201527f455243373231436865636b706f696e7461626c653a3a64656c6567617465427960448201527f5369673a20696e76616c6964207369676e6174757265000000000000000000006064820152608401610cb2565b6001600160a01b0381166000908152600e6020526040812080549161209983614772565b9190505589146121115760405162461bcd60e51b815260206004820152603260248201527f455243373231436865636b706f696e7461626c653a3a64656c6567617465427960448201527f5369673a20696e76616c6964206e6f6e636500000000000000000000000000006064820152608401610cb2565b874211156121875760405162461bcd60e51b815260206004820152603660248201527f455243373231436865636b706f696e7461626c653a3a64656c6567617465427960448201527f5369673a207369676e61747572652065787069726564000000000000000000006064820152608401610cb2565b612191818b613180565b505050505b505050505050565b6000818152600360205260409020546060906001600160a01b031661221c5760405162461bcd60e51b815260206004820152602e60248201527f436f6e74656e7473546f6b656e3a2055524920717565727920666f72206e6f6e60448201526d32bc34b9ba32b73a103a37b5b2b760911b6064820152608401610cb2565b610b1782611479565b6000818152600360205260408120546001600160a01b03166122a05760405162461bcd60e51b815260206004820152602e60248201527f436f6e74656e7473546f6b656e3a2055524920717565727920666f72206e6f6e60448201526d32bc34b9ba32b73a103a37b5b2b760911b6064820152608401610cb2565b506000908152601a602052604090205490565b6000806122bf836115ef565b90503360006122cc6132d9565b90506001600160a01b03831630146123265760405162461bcd60e51b815260206004820152601960248201527f4f776e6572206973206e6f742074686520636f6e7472616374000000000000006044820152606401610cb2565b600160125461233591906146af565b85146123835760405162461bcd60e51b815260206004820152600f60248201527f4e6f74206c6174657374204e6f756e00000000000000000000000000000000006044820152606401610cb2565b803410156123d35760405162461bcd60e51b815260206004820152601f60248201527f4d7573742073656e64206174206c656173742063757272656e745072696365006044820152606401610cb2565b6000858152601a602052604090203490556123ee8286613354565b6040516001600160a01b038316815285907fcea84a055be98579a3bbf30656e70aab0e5a3bf3f8245b26ddd604847681bde59060200160405180910390a261243530612dac565b95945050505050565b6000546001600160a01b031633146124985760405162461bcd60e51b815260206004820181905260248201527f4f776e61626c653a2063616c6c6572206973206e6f7420746865206f776e65726044820152606401610cb2565b610e0460118383613df4565b6000610b176124b28361167a565b6040518060600160405280603d81526020016148f5603d9139613500565b6040517fc45527910000000000000000000000000000000000000000000000000000000081526001600160a01b038381166004830152600091818416917f0000000000000000000000000000000000000000000000000000000000000000169063c45527919060240160206040518083038186803b15801561255157600080fd5b505afa158015612565573d6000803e3d6000fd5b505050506040513d601f19601f820116820180604052508101906125899190613ef3565b6001600160a01b031614156125a057506001610b17565b6001600160a01b0380841660009081526006602090815260408083209386168352929052205460ff16611472565b6000546001600160a01b031633146126285760405162461bcd60e51b815260206004820181905260248201527f4f776e61626c653a2063616c6c6572206973206e6f7420746865206f776e65726044820152606401610cb2565b6001600160a01b0381166126a45760405162461bcd60e51b815260206004820152602660248201527f4f776e61626c653a206e6577206f776e657220697320746865207a65726f206160448201527f64647265737300000000000000000000000000000000000000000000000000006064820152608401610cb2565b6115ec81613200565b6000546001600160a01b031633146127075760405162461bcd60e51b815260206004820181905260248201527f4f776e61626c653a2063616c6c6572206973206e6f7420746865206f776e65726044820152606401610cb2565b601980546001600160a01b0319166001600160a01b0392909216919091179055565b60006001600160e01b031982167f80ac58cd00000000000000000000000000000000000000000000000000000000148061278c57506001600160e01b031982167f5b5e139f00000000000000000000000000000000000000000000000000000000145b80610b1757507f01ffc9a7000000000000000000000000000000000000000000000000000000006001600160e01b0319831614610b17565b600081815260056020526040902080546001600160a01b0319166001600160a01b03841690811790915581906127f9826115ef565b6001600160a01b03167f8c5be1e5ebec7d5bd14f71427d1e84f3dd0314c0f7b2291e5b200ac8c7c3b92560405160405180910390a45050565b6040516001600160a01b03821660248201526115ec9060440160408051601f198184030181529190526020810180516001600160e01b03167f2c2ecbc200000000000000000000000000000000000000000000000000000000179052613538565b6115ec816040516024016128a991815260200190565b60408051601f198184030181529190526020810180516001600160e01b03167ff5b1bba900000000000000000000000000000000000000000000000000000000179052613538565b6115ec8160405160240161290591906145b3565b60408051601f198184030181529190526020810180516001600160e01b03167f41304fac00000000000000000000000000000000000000000000000000000000179052613538565b6001600160a01b0382166129a35760405162461bcd60e51b815260206004820181905260248201527f4552433732313a206d696e7420746f20746865207a65726f20616464726573736044820152606401610cb2565b6000818152600360205260409020546001600160a01b031615612a085760405162461bcd60e51b815260206004820152601c60248201527f4552433732313a20746f6b656e20616c7265616479206d696e746564000000006044820152606401610cb2565b612a1460008383613559565b6001600160a01b0382166000908152600460205260408120805460019290612a3d9084906145f7565b909155505060008181526003602052604080822080546001600160a01b0319166001600160a01b03868116919091179091559051839291861691907fddf252ad1be2c89b69c2b068fc378daa952ba7f163c4a11628f55a4df523b3ef908290a480826001600160a01b0316846001600160a01b03167fddf252ad1be2c89b69c2b068fc378daa952ba7f163c4a11628f55a4df523b3ef60405160405180910390a4505050565b4260138190556040519081527f821964bd9a1d2293691ad21ae7e91848254493a40c1c13fc88e032e6a14a94c99060200160405180910390a1565b6000818152600360205260408120546001600160a01b0316612b975760405162461bcd60e51b815260206004820152602c60248201527f4552433732313a206f70657261746f7220717565727920666f72206e6f6e657860448201526b34b9ba32b73a103a37b5b2b760a11b6064820152608401610cb2565b6000612ba2836115ef565b9050806001600160a01b0316846001600160a01b03161480612bdd5750836001600160a01b0316612bd284610c3d565b6001600160a01b0316145b8061106a575061106a81856124d0565b826001600160a01b0316612c00826115ef565b6001600160a01b031614612c7c5760405162461bcd60e51b815260206004820152602960248201527f4552433732313a207472616e73666572206f6620746f6b656e2074686174206960448201527f73206e6f74206f776e00000000000000000000000000000000000000000000006064820152608401610cb2565b6001600160a01b038216612cde5760405162461bcd60e51b8152602060048201526024808201527f4552433732313a207472616e7366657220746f20746865207a65726f206164646044820152637265737360e01b6064820152608401610cb2565b612ce9838383613559565b612cf46000826127c4565b6001600160a01b0383166000908152600460205260408120805460019290612d1d9084906146af565b90915550506001600160a01b0382166000908152600460205260408120805460019290612d4b9084906145f7565b909155505060008181526003602052604080822080546001600160a01b0319166001600160a01b0386811691821790925591518493918716917fddf252ad1be2c89b69c2b068fc378daa952ba7f163c4a11628f55a4df523b3ef91a4505050565b6000600a601254612dbd919061478d565b612dec5760195460128054612dea926001600160a01b0316916000612de183614772565b91905055613580565b505b612df4612ae3565b60128054610b17918491906000612de183614772565b6000612e15826115ef565b9050612e2381600084613559565b612e2e6000836127c4565b6001600160a01b0381166000908152600460205260408120805460019290612e579084906146af565b909155505060008281526003602052604080822080546001600160a01b0319169055518391906001600160a01b038416907fddf252ad1be2c89b69c2b068fc378daa952ba7f163c4a11628f55a4df523b3ef908390a45050565b606081612ef157505060408051808201909152600181527f3000000000000000000000000000000000000000000000000000000000000000602082015290565b8160005b8115612f1b5780612f0581614772565b9150612f149050600a83614659565b9150612ef5565b60008167ffffffffffffffff811115612f3657612f366147f9565b6040519080825280601f01601f191660200182016040528015612f60576020820181803683370190505b5090505b841561106a57612f756001836146af565b9150612f82600a8661478d565b612f8d9060306145f7565b60f81b818381518110612fa257612fa26147e3565b60200101907effffffffffffffffffffffffffffffffffffffffffffffffffffffffffffff1916908160001a905350612fdc600a86614659565b9450612f64565b606081516000141561300357505060408051602081019091526000815290565b60006040518060600160405280604081526020016148b5604091399050600060038451600261303291906145f7565b61303c9190614659565b613047906004614690565b905060006130568260206145f7565b67ffffffffffffffff81111561306e5761306e6147f9565b6040519080825280601f01601f191660200182016040528015613098576020820181803683370190505b509050818152600183018586518101602084015b81831015613104576003830192508251603f8160121c168501518253600182019150603f81600c1c168501518253600182019150603f8160061c168501518253600182019150603f81168501518253506001016130ac565b60038951066001811461311e576002811461314a57613172565b7f3d3d000000000000000000000000000000000000000000000000000000000000600119830152613172565b7f3d000000000000000000000000000000000000000000000000000000000000006000198301525b509398975050505050505050565b600061318b83611447565b6001600160a01b038481166000818152600b602052604080822080546001600160a01b031916888616908117909155905194955093928516927f3134e8a2e6d97e929a7e54011ea5485d7d196dd5f0ba4d4ef95803e8e3fc257f9190a460006131f3846124a4565b9050611dea8284836135cf565b600080546001600160a01b038381166001600160a01b0319831681178455604051919092169283917f8be0079c531659141344cd1fd0a4f28419497f9722a3daafe3b4186f6b6457e09190a35050565b61325b848484612bed565b6132678484848461377d565b611dea5760405162461bcd60e51b815260206004820152603260248201527f4552433732313a207472616e7366657220746f206e6f6e20455243373231526560448201527f63656976657220696d706c656d656e74657200000000000000000000000000006064820152608401610cb2565b600080601354426132ea91906146af565b6017549091508110156132ff57505060145490565b601654601754600091906133139084614659565b61331d9190614690565b60155460145491925061332f916146af565b811061333f575050601554919050565b60145461334d9082906146af565b9250505090565b308061335f836115ef565b6001600160a01b0316146133db5760405162461bcd60e51b815260206004820152602d60248201527f4552433732313a207472616e73666572206f6620746f6b656e2074686174206960448201527f73206e6f742061646472657373000000000000000000000000000000000000006064820152608401610cb2565b6001600160a01b03831661343d5760405162461bcd60e51b8152602060048201526024808201527f4552433732313a207472616e7366657220746f20746865207a65726f206164646044820152637265737360e01b6064820152608401610cb2565b613448818484613559565b6001600160a01b03811660009081526004602052604081208054600192906134719084906146af565b90915550506001600160a01b038316600090815260046020526040812080546001929061349f9084906145f7565b909155505060008281526003602052604080822080546001600160a01b0319166001600160a01b0387811691821790925591518593918516917fddf252ad1be2c89b69c2b068fc378daa952ba7f163c4a11628f55a4df523b3ef91a4505050565b6000816c0100000000000000000000000084106135305760405162461bcd60e51b8152600401610cb291906145b3565b509192915050565b80516a636f6e736f6c652e6c6f67602083016000808483855afa5050505050565b6135648383836138dd565b610e0461357084611447565b61357984611447565b60016135cf565b600061359e6135976000546001600160a01b031690565b848461294d565b60405182907f63a9977ab43bef44e47567eadb373b1cd9e4200c2c263977268a6f40c2c12dba90600090a250919050565b816001600160a01b0316836001600160a01b0316141580156135fa57506000816001600160601b0316115b15610e04576001600160a01b038316156136c0576001600160a01b0383166000908152600d602052604081205463ffffffff16908161363a576000613687565b6001600160a01b0385166000908152600c602052604081209061365e6001856146c6565b63ffffffff16815260208101919091526040016000205464010000000090046001600160601b03165b905060006136ae828560405180606001604052806037815260200161493260379139613995565b90506136bc868484846139d7565b5050505b6001600160a01b03821615610e04576001600160a01b0382166000908152600d602052604081205463ffffffff1690816136fb576000613748565b6001600160a01b0384166000908152600c602052604081209061371f6001856146c6565b63ffffffff16815260208101919091526040016000205464010000000090046001600160601b03165b9050600061376f828560405180606001604052806036815260200161483b60369139613bef565b9050612196858484846139d7565b60006001600160a01b0384163b156138d557604051630a85bd0160e11b81526001600160a01b0385169063150b7a02906137c1903390899088908890600401614577565b602060405180830381600087803b1580156137db57600080fd5b505af192505050801561380b575060408051601f3d908101601f19168201909252613808918101906141c8565b60015b6138bb573d808015613839576040519150601f19603f3d011682016040523d82523d6000602084013e61383e565b606091505b5080516138b35760405162461bcd60e51b815260206004820152603260248201527f4552433732313a207472616e7366657220746f206e6f6e20455243373231526560448201527f63656976657220696d706c656d656e74657200000000000000000000000000006064820152608401610cb2565b805181602001fd5b6001600160e01b031916630a85bd0160e11b14905061106a565b50600161106a565b6001600160a01b0383166139385761393381600980546000838152600a60205260408120829055600182018355919091527f6e1540171b6c0c960b71a7020d9f60077f6af931a8bbf590da0223dacf75c7af0155565b61395b565b816001600160a01b0316836001600160a01b03161461395b5761395b8382613c3c565b6001600160a01b03821661397257610e0481613cd9565b826001600160a01b0316826001600160a01b031614610e0457610e048282613d88565b6000836001600160601b0316836001600160601b0316111582906139cc5760405162461bcd60e51b8152600401610cb291906145b3565b5061106a83856146eb565b60006139fb4360405180608001604052806044815260200161487160449139613dcc565b905060008463ffffffff16118015613a5557506001600160a01b0385166000908152600c6020526040812063ffffffff831691613a396001886146c6565b63ffffffff908116825260208201929092526040016000205416145b15613ad9576001600160a01b0385166000908152600c602052604081208391613a7f6001886146c6565b63ffffffff168152602081019190915260400160002080546001600160601b0392909216640100000000027fffffffffffffffffffffffffffffffff000000000000000000000000ffffffff909216919091179055613b9a565b60408051808201825263ffffffff80841682526001600160601b0380861660208085019182526001600160a01b038b166000908152600c82528681208b8616825290915294909420925183549451909116640100000000027fffffffffffffffffffffffffffffffff00000000000000000000000000000000909416911617919091179055613b6984600161460f565b6001600160a01b0386166000908152600d60205260409020805463ffffffff191663ffffffff929092169190911790555b604080516001600160601b038086168252841660208201526001600160a01b038716917fdec2bacdd2f05b59de34da9b523dff8be42e5e38e818c82fdb0bae774387a724910160405180910390a25050505050565b600080613bfc8486614637565b9050846001600160601b0316816001600160601b031610158390613c335760405162461bcd60e51b8152600401610cb291906145b3565b50949350505050565b60006001613c498461167a565b613c5391906146af565b600083815260086020526040902054909150808214613ca6576001600160a01b03841660009081526007602090815260408083208584528252808320548484528184208190558352600890915290208190555b5060009182526008602090815260408084208490556001600160a01b039094168352600781528383209183525290812055565b600954600090613ceb906001906146af565b6000838152600a602052604081205460098054939450909284908110613d1357613d136147e3565b906000526020600020015490508060098381548110613d3457613d346147e3565b6000918252602080832090910192909255828152600a90915260408082208490558582528120556009805480613d6c57613d6c6147cd565b6001900381819060005260206000200160009055905550505050565b6000613d938361167a565b6001600160a01b039093166000908152600760209081526040808320868452825280832085905593825260089052919091209190915550565b60008164010000000084106135305760405162461bcd60e51b8152600401610cb291906145b3565b828054613e0090614737565b90600052602060002090601f016020900481019282613e225760008555613e68565b82601f10613e3b5782800160ff19823516178555613e68565b82800160010185558215613e68579182015b82811115613e68578235825591602001919060010190613e4d565b50613e74929150613e78565b5090565b5b80821115613e745760008155600101613e79565b60008083601f840112613e9f57600080fd5b50813567ffffffffffffffff811115613eb757600080fd5b602083019150836020828501011115613ecf57600080fd5b9250929050565b600060208284031215613ee857600080fd5b81356114728161480f565b600060208284031215613f0557600080fd5b81516114728161480f565b60008060408385031215613f2357600080fd5b8235613f2e8161480f565b91506020830135613f3e8161480f565b809150509250929050565b60008060008060608587031215613f5f57600080fd5b8435613f6a8161480f565b93506020850135613f7a8161480f565b9250604085013567ffffffffffffffff811115613f9657600080fd5b613fa287828801613e8d565b95989497509550505050565b600080600060608486031215613fc357600080fd5b8335613fce8161480f565b92506020840135613fde8161480f565b929592945050506040919091013590565b6000806000806080858703121561400557600080fd5b84356140108161480f565b93506020858101356140218161480f565b935060408601359250606086013567ffffffffffffffff8082111561404557600080fd5b818801915088601f83011261405957600080fd5b81358181111561406b5761406b6147f9565b61407d601f8201601f191685016145c6565b9150808252898482850101111561409357600080fd5b808484018584013760008482840101525080935050505092959194509250565b600080604083850312156140c657600080fd5b82356140d18161480f565b915060208301358015158114613f3e57600080fd5b600080604083850312156140f957600080fd5b82356141048161480f565b946020939093013593505050565b60008060008060008060c0878903121561412b57600080fd5b86356141368161480f565b95506020870135945060408701359350606087013560ff8116811461415a57600080fd5b9598949750929560808101359460a0909101359350915050565b6000806040838503121561418757600080fd5b82356141928161480f565b9150602083013563ffffffff81168114613f3e57600080fd5b6000602082840312156141bd57600080fd5b813561147281614824565b6000602082840312156141da57600080fd5b815161147281614824565b600080602083850312156141f857600080fd5b823567ffffffffffffffff81111561420f57600080fd5b61421b85828601613e8d565b90969095509350505050565b600060a0828403121561423957600080fd5b60405160a0810181811067ffffffffffffffff8211171561425c5761425c6147f9565b806040525082358152602083013560208201526040830135604082015260608301356060820152608083013560808201528091505092915050565b6000602082840312156142a957600080fd5b5035919050565b6000602082840312156142c257600080fd5b81516001600160601b038116811461147257600080fd5b600081518084526142f181602086016020860161470b565b601f01601f19169290920160200192915050565b6000815161431781856020860161470b565b9290920192915050565b600080845481600182811c91508083168061433d57607f831692505b602080841082141561435d57634e487b7160e01b86526022600452602486fd5b8180156143715760018114614382576143af565b60ff198616895284890196506143af565b60008b81526020902060005b868110156143a75781548b82015290850190830161438e565b505084890196505b5050505050506124358185614305565b7f7b226e616d65223a2200000000000000000000000000000000000000000000008152600084516143f781600985016020890161470b565b7f222c20226465736372697074696f6e223a220000000000000000000000000000600991840191820152845161443481601b84016020890161470b565b7f222c2022696d616765223a202200000000000000000000000000000000000000601b9290910191820152835161447281602884016020880161470b565b7f227d00000000000000000000000000000000000000000000000000000000000060289290910191820152602a0195945050505050565b6802737bab739a6b0b8160bd1b8152600082516144cd81600985016020870161470b565b9190910160090192915050565b6802737bab739a6b0b8160bd1b8152600082516144fe81600985016020870161470b565b7f2069732061206d617020776974682070686f746f20616e64206d6f7669652e006009939091019283015250602801919050565b7f646174613a6170706c69636174696f6e2f6a736f6e3b6261736536342c00000081526000825161456a81601d85016020870161470b565b91909101601d0192915050565b60006001600160a01b038087168352808616602084015250836040830152608060608301526145a960808301846142d9565b9695505050505050565b60208152600061147260208301846142d9565b604051601f8201601f1916810167ffffffffffffffff811182821017156145ef576145ef6147f9565b604052919050565b6000821982111561460a5761460a6147a1565b500190565b600063ffffffff80831681851680830382111561462e5761462e6147a1565b01949350505050565b60006001600160601b0380831681851680830382111561462e5761462e6147a1565b600082614668576146686147b7565b500490565b600063ffffffff80841680614684576146846147b7565b92169190910492915050565b60008160001904831182151516156146aa576146aa6147a1565b500290565b6000828210156146c1576146c16147a1565b500390565b600063ffffffff838116908316818110156146e3576146e36147a1565b039392505050565b60006001600160601b03838116908316818110156146e3576146e36147a1565b60005b8381101561472657818101518382015260200161470e565b83811115611dea5750506000910152565b600181811c9082168061474b57607f821691505b6020821081141561476c57634e487b7160e01b600052602260045260246000fd5b50919050565b6000600019821415614786576147866147a1565b5060010190565b60008261479c5761479c6147b7565b500690565b634e487b7160e01b600052601160045260246000fd5b634e487b7160e01b600052601260045260246000fd5b634e487b7160e01b600052603160045260246000fd5b634e487b7160e01b600052603260045260246000fd5b634e487b7160e01b600052604160045260246000fd5b6001600160a01b03811681146115ec57600080fd5b6001600160e01b0319811681146115ec57600080fdfe455243373231436865636b706f696e7461626c653a3a5f6d6f766544656c6567617465733a20616d6f756e74206f766572666c6f7773455243373231436865636b706f696e7461626c653a3a5f7772697465436865636b706f696e743a20626c6f636b206e756d626572206578636565647320333220626974734142434445464748494a4b4c4d4e4f505152535455565758595a6162636465666768696a6b6c6d6e6f707172737475767778797a303132333435363738392b2f455243373231436865636b706f696e7461626c653a3a766f746573546f44656c65676174653a20616d6f756e7420657863656564732039362062697473455243373231436865636b706f696e7461626c653a3a5f6d6f766544656c6567617465733a20616d6f756e7420756e646572666c6f7773a26469706673582212201cc39d1c320564ff695c2d09646b04da137fd0eff0693eaa500c604067f1986364736f6c63430008060033",
  "linkReferences": {},
  "deployedLinkReferences": {}
}