{
  "_format": "hh-sol-artifact-1",
  "contractName": "HappyToken",
  "sourceName": "contracts/HappyToken.sol",
  "abi": [
    {
      "inputs": [
        {
          "internalType": "uint256",
          "name": "_limit",
          "type": "uint256"
        },
        {
          "internalType": "address",
          "name": "_developer",
          "type": "address"
        },
        {
          "internalType": "contract IProxyRegistry",
          "name": "_proxyRegistry",
          "type": "address"
        }
      ],
      "stateMutability": "nonpayable",
      "type": "constructor"
    },
    {
      "anonymous": false,
      "inputs": [
        {
          "indexed": true,
          "internalType": "address",
          "name": "owner",
          "type": "address"
        },
        {
          "indexed": true,
          "internalType": "address",
          "name": "approved",
          "type": "address"
        },
        {
          "indexed": true,
          "internalType": "uint256",
          "name": "tokenId",
          "type": "uint256"
        }
      ],
      "name": "Approval",
      "type": "event"
    },
    {
      "anonymous": false,
      "inputs": [
        {
          "indexed": true,
          "internalType": "address",
          "name": "owner",
          "type": "address"
        },
        {
          "indexed": true,
          "internalType": "address",
          "name": "operator",
          "type": "address"
        },
        {
          "indexed": false,
          "internalType": "bool",
          "name": "approved",
          "type": "bool"
        }
      ],
      "name": "ApprovalForAll",
      "type": "event"
    },
    {
      "anonymous": false,
      "inputs": [
        {
          "indexed": false,
          "internalType": "uint256",
          "name": "mintTime",
          "type": "uint256"
        }
      ],
      "name": "MintTimeUpdated",
      "type": "event"
    },
    {
      "anonymous": false,
      "inputs": [
        {
          "indexed": true,
          "internalType": "uint256",
          "name": "tokenId",
          "type": "uint256"
        },
        {
          "indexed": false,
          "internalType": "address",
          "name": "newOwner",
          "type": "address"
        }
      ],
      "name": "NounBought",
      "type": "event"
    },
    {
      "anonymous": false,
      "inputs": [
        {
          "indexed": true,
          "internalType": "uint256",
          "name": "tokenId",
          "type": "uint256"
        }
      ],
      "name": "NounBurned",
      "type": "event"
    },
    {
      "anonymous": false,
      "inputs": [
        {
          "indexed": true,
          "internalType": "uint256",
          "name": "tokenId",
          "type": "uint256"
        },
        {
          "components": [
            {
              "internalType": "uint48",
              "name": "background",
              "type": "uint48"
            },
            {
              "internalType": "uint48",
              "name": "body",
              "type": "uint48"
            },
            {
              "internalType": "uint48",
              "name": "accessory",
              "type": "uint48"
            },
            {
              "internalType": "uint48",
              "name": "head",
              "type": "uint48"
            },
            {
              "internalType": "uint48",
              "name": "glasses",
              "type": "uint48"
            }
          ],
          "indexed": false,
          "internalType": "struct INounsSeeder.Seed",
          "name": "seed",
          "type": "tuple"
        }
      ],
      "name": "NounCreated",
      "type": "event"
    },
    {
      "anonymous": false,
      "inputs": [
        {
          "indexed": false,
          "internalType": "address",
          "name": "noundersDAO",
          "type": "address"
        }
      ],
      "name": "NoundersDAOUpdated",
      "type": "event"
    },
    {
      "anonymous": false,
      "inputs": [
        {
          "indexed": true,
          "internalType": "address",
          "name": "previousOwner",
          "type": "address"
        },
        {
          "indexed": true,
          "internalType": "address",
          "name": "newOwner",
          "type": "address"
        }
      ],
      "name": "OwnershipTransferred",
      "type": "event"
    },
    {
      "anonymous": false,
      "inputs": [
        {
          "indexed": true,
          "internalType": "address",
          "name": "from",
          "type": "address"
        },
        {
          "indexed": true,
          "internalType": "address",
          "name": "to",
          "type": "address"
        },
        {
          "indexed": true,
          "internalType": "uint256",
          "name": "tokenId",
          "type": "uint256"
        }
      ],
      "name": "Transfer",
      "type": "event"
    },
    {
      "inputs": [
        {
          "internalType": "address",
          "name": "to",
          "type": "address"
        },
        {
          "internalType": "uint256",
          "name": "tokenId",
          "type": "uint256"
        }
      ],
      "name": "approve",
      "outputs": [],
      "stateMutability": "nonpayable",
      "type": "function"
    },
    {
      "inputs": [
        {
          "internalType": "address",
          "name": "owner",
          "type": "address"
        }
      ],
      "name": "balanceOf",
      "outputs": [
        {
          "internalType": "uint256",
          "name": "",
          "type": "uint256"
        }
      ],
      "stateMutability": "view",
      "type": "function"
    },
    {
      "inputs": [
        {
          "internalType": "uint256",
          "name": "nounId",
          "type": "uint256"
        }
      ],
      "name": "burn",
      "outputs": [],
      "stateMutability": "nonpayable",
      "type": "function"
    },
    {
      "inputs": [
        {
          "internalType": "uint256",
          "name": "tokenId",
          "type": "uint256"
        }
      ],
      "name": "customMint",
      "outputs": [
        {
          "internalType": "uint256",
          "name": "",
          "type": "uint256"
        }
      ],
      "stateMutability": "nonpayable",
      "type": "function"
    },
    {
      "inputs": [
        {
          "internalType": "uint256",
          "name": "tokenId",
          "type": "uint256"
        }
      ],
      "name": "dataURI",
      "outputs": [
        {
          "internalType": "string",
          "name": "",
          "type": "string"
        }
      ],
      "stateMutability": "view",
      "type": "function"
    },
    {
      "inputs": [],
      "name": "description",
      "outputs": [
        {
          "internalType": "string",
          "name": "",
          "type": "string"
        }
      ],
      "stateMutability": "view",
      "type": "function"
    },
    {
      "inputs": [],
      "name": "developer",
      "outputs": [
        {
          "internalType": "address",
          "name": "",
          "type": "address"
        }
      ],
      "stateMutability": "view",
      "type": "function"
    },
    {
      "inputs": [
        {
          "internalType": "uint256",
          "name": "tokenId",
          "type": "uint256"
        }
      ],
      "name": "generateSVG",
      "outputs": [
        {
          "internalType": "string",
          "name": "",
          "type": "string"
        }
      ],
      "stateMutability": "view",
      "type": "function"
    },
    {
      "inputs": [
        {
          "internalType": "uint256",
          "name": "tokenId",
          "type": "uint256"
        }
      ],
      "name": "getApproved",
      "outputs": [
        {
          "internalType": "address",
          "name": "",
          "type": "address"
        }
      ],
      "stateMutability": "view",
      "type": "function"
    },
    {
      "inputs": [],
      "name": "getCurrentToken",
      "outputs": [
        {
          "internalType": "uint256",
          "name": "",
          "type": "uint256"
        }
      ],
      "stateMutability": "view",
      "type": "function"
    },
    {
      "inputs": [
        {
          "internalType": "address",
          "name": "owner",
          "type": "address"
        },
        {
          "internalType": "address",
          "name": "operator",
          "type": "address"
        }
      ],
      "name": "isApprovedForAll",
      "outputs": [
        {
          "internalType": "bool",
          "name": "",
          "type": "bool"
        }
      ],
      "stateMutability": "view",
      "type": "function"
    },
    {
      "inputs": [],
      "name": "limit",
      "outputs": [
        {
          "internalType": "uint256",
          "name": "",
          "type": "uint256"
        }
      ],
      "stateMutability": "view",
      "type": "function"
    },
    {
      "inputs": [],
      "name": "mint",
      "outputs": [
        {
          "internalType": "uint256",
          "name": "",
          "type": "uint256"
        }
      ],
      "stateMutability": "nonpayable",
      "type": "function"
    },
    {
      "inputs": [],
      "name": "name",
      "outputs": [
        {
          "internalType": "string",
          "name": "",
          "type": "string"
        }
      ],
      "stateMutability": "view",
      "type": "function"
    },
    {
      "inputs": [],
      "name": "owner",
      "outputs": [
        {
          "internalType": "address",
          "name": "",
          "type": "address"
        }
      ],
      "stateMutability": "view",
      "type": "function"
    },
    {
      "inputs": [
        {
          "internalType": "uint256",
          "name": "tokenId",
          "type": "uint256"
        }
      ],
      "name": "ownerOf",
      "outputs": [
        {
          "internalType": "address",
          "name": "",
          "type": "address"
        }
      ],
      "stateMutability": "view",
      "type": "function"
    },
    {
      "inputs": [],
      "name": "proxyRegistry",
      "outputs": [
        {
          "internalType": "contract IProxyRegistry",
          "name": "",
          "type": "address"
        }
      ],
      "stateMutability": "view",
      "type": "function"
    },
    {
      "inputs": [],
      "name": "renounceOwnership",
      "outputs": [],
      "stateMutability": "nonpayable",
      "type": "function"
    },
    {
      "inputs": [
        {
          "internalType": "address",
          "name": "from",
          "type": "address"
        },
        {
          "internalType": "address",
          "name": "to",
          "type": "address"
        },
        {
          "internalType": "uint256",
          "name": "tokenId",
          "type": "uint256"
        }
      ],
      "name": "safeTransferFrom",
      "outputs": [],
      "stateMutability": "nonpayable",
      "type": "function"
    },
    {
      "inputs": [
        {
          "internalType": "address",
          "name": "from",
          "type": "address"
        },
        {
          "internalType": "address",
          "name": "to",
          "type": "address"
        },
        {
          "internalType": "uint256",
          "name": "tokenId",
          "type": "uint256"
        },
        {
          "internalType": "bytes",
          "name": "_data",
          "type": "bytes"
        }
      ],
      "name": "safeTransferFrom",
      "outputs": [],
      "stateMutability": "nonpayable",
      "type": "function"
    },
    {
      "inputs": [
        {
          "internalType": "address",
          "name": "operator",
          "type": "address"
        },
        {
          "internalType": "bool",
          "name": "approved",
          "type": "bool"
        }
      ],
      "name": "setApprovalForAll",
      "outputs": [],
      "stateMutability": "nonpayable",
      "type": "function"
    },
    {
      "inputs": [
        {
          "internalType": "string",
          "name": "_description",
          "type": "string"
        }
      ],
      "name": "setDescription",
      "outputs": [],
      "stateMutability": "nonpayable",
      "type": "function"
    },
    {
      "inputs": [
        {
          "internalType": "address",
          "name": "_developer",
          "type": "address"
        }
      ],
      "name": "setDeveloper",
      "outputs": [],
      "stateMutability": "nonpayable",
      "type": "function"
    },
    {
      "inputs": [
        {
          "internalType": "uint256",
          "name": "_limit",
          "type": "uint256"
        }
      ],
      "name": "setLimit",
      "outputs": [],
      "stateMutability": "nonpayable",
      "type": "function"
    },
    {
      "inputs": [
        {
          "internalType": "bytes4",
          "name": "interfaceId",
          "type": "bytes4"
        }
      ],
      "name": "supportsInterface",
      "outputs": [
        {
          "internalType": "bool",
          "name": "",
          "type": "bool"
        }
      ],
      "stateMutability": "view",
      "type": "function"
    },
    {
      "inputs": [],
      "name": "symbol",
      "outputs": [
        {
          "internalType": "string",
          "name": "",
          "type": "string"
        }
      ],
      "stateMutability": "view",
      "type": "function"
    },
    {
      "inputs": [
        {
          "internalType": "uint256",
          "name": "index",
          "type": "uint256"
        }
      ],
      "name": "tokenByIndex",
      "outputs": [
        {
          "internalType": "uint256",
          "name": "",
          "type": "uint256"
        }
      ],
      "stateMutability": "view",
      "type": "function"
    },
    {
      "inputs": [
        {
          "internalType": "address",
          "name": "owner",
          "type": "address"
        },
        {
          "internalType": "uint256",
          "name": "index",
          "type": "uint256"
        }
      ],
      "name": "tokenOfOwnerByIndex",
      "outputs": [
        {
          "internalType": "uint256",
          "name": "",
          "type": "uint256"
        }
      ],
      "stateMutability": "view",
      "type": "function"
    },
    {
      "inputs": [
        {
          "internalType": "uint256",
          "name": "tokenId",
          "type": "uint256"
        }
      ],
      "name": "tokenURI",
      "outputs": [
        {
          "internalType": "string",
          "name": "",
          "type": "string"
        }
      ],
      "stateMutability": "view",
      "type": "function"
    },
    {
      "inputs": [],
      "name": "totalSupply",
      "outputs": [
        {
          "internalType": "uint256",
          "name": "",
          "type": "uint256"
        }
      ],
      "stateMutability": "view",
      "type": "function"
    },
    {
      "inputs": [
        {
          "internalType": "address",
          "name": "from",
          "type": "address"
        },
        {
          "internalType": "address",
          "name": "to",
          "type": "address"
        },
        {
          "internalType": "uint256",
          "name": "tokenId",
          "type": "uint256"
        }
      ],
      "name": "transferFrom",
      "outputs": [],
      "stateMutability": "nonpayable",
      "type": "function"
    },
    {
      "inputs": [
        {
          "internalType": "address",
          "name": "newOwner",
          "type": "address"
        }
      ],
      "name": "transferOwnership",
      "outputs": [],
      "stateMutability": "nonpayable",
      "type": "function"
    }
  ],
  "bytecode": "0x60e0604052600f60a08190526e2430b8383caa37b5b2b7101918191960891b60c09081526200003291600e919062000189565b503480156200004057600080fd5b50604051620040363803806200403683398101604081905262000063916200022f565b6040518060400160405280601081526020016f2430b8383c902a37b5b2b7101918191960811b8152506040518060400160405280600c81526020016b2430b8383caa37b5b2b7191960a11b815250620000cb620000c56200013560201b60201c565b62000139565b8151620000e090600190602085019062000189565b508051620000f690600290602084019062000189565b505050600d92909255600c80546001600160a01b0319166001600160a01b039290921691909117905560601b6001600160601b031916608052620002cd565b3390565b600080546001600160a01b038381166001600160a01b0319831681178455604051919092169283917f8be0079c531659141344cd1fd0a4f28419497f9722a3daafe3b4186f6b6457e09190a35050565b828054620001979062000277565b90600052602060002090601f016020900481019282620001bb576000855562000206565b82601f10620001d657805160ff191683800117855562000206565b8280016001018555821562000206579182015b8281111562000206578251825591602001919060010190620001e9565b506200021492915062000218565b5090565b5b8082111562000214576000815560010162000219565b6000806000606084860312156200024557600080fd5b8351925060208401516200025981620002b4565b60408501519092506200026c81620002b4565b809150509250925092565b600181811c908216806200028c57607f821691505b60208210811415620002ae57634e487b7160e01b600052602260045260246000fd5b50919050565b6001600160a01b0381168114620002ca57600080fd5b50565b60805160601c613d43620002f3600039600081816103be015261115c0152613d436000f3fe608060405234801561001057600080fd5b50600436106101f05760003560e01c806370a082311161010f578063b50cbd9f116100a2578063e985e9c511610071578063e985e9c514610419578063ef2d17461461042c578063f2fde38b14610434578063ff70fa491461044757600080fd5b8063b50cbd9f146103b9578063b88d4fde146103e0578063c87b56dd146103f3578063ca4b208b1461040657600080fd5b806390c3f38f116100de57806390c3f38f1461038257806395d89b4114610395578063a22cb4651461039d578063a4d66daf146103b057600080fd5b806370a082311461034e578063715018a6146103615780637284e416146103695780638da5cb5b1461037157600080fd5b806327ea6f2b116101875780634f6ccce7116101565780634f6ccce7146103025780635ac1e3bb146103155780636352211e146103285780636dcee4ca1461033b57600080fd5b806327ea6f2b146102b65780632f745c59146102c957806342842e0e146102dc57806342966c68146102ef57600080fd5b80631249c58b116101c35780631249c58b1461027257806317097d671461028857806318160ddd1461029b57806323b872dd146102a357600080fd5b806301ffc9a7146101f557806306fdde031461021d578063081812fc14610232578063095ea7b31461025d575b600080fd5b610208610203366004613417565b61045a565b60405190151581526020015b60405180910390f35b61022561049e565b60405161021491906139f6565b61024561024036600461349a565b610530565b6040516001600160a01b039091168152602001610214565b61027061026b3660046133eb565b6105ca565b005b61027a6106fc565b604051908152602001610214565b61027a61029636600461349a565b610747565b60095461027a565b6102706102b13660046132f7565b6108b0565b6102706102c436600461349a565b610937565b61027a6102d73660046133eb565b610996565b6102706102ea3660046132f7565b610a3e565b6102706102fd36600461349a565b610a59565b61027a61031036600461349a565b610b4e565b61022561032336600461349a565b610bf2565b61024561033636600461349a565b610d1b565b61022561034936600461349a565b610da6565b61027a61035c366004613284565b610db1565b610270610e4b565b610225610eb1565b6000546001600160a01b0316610245565b610270610390366004613451565b610f3f565b610225610fb0565b6102706103ab3660046133b8565b610fbf565b61027a600d5481565b6102457f000000000000000000000000000000000000000000000000000000000000000081565b6102706103ee366004613338565b611084565b61022561040136600461349a565b611112565b600c54610245906001600160a01b031681565b6102086104273660046132be565b61111d565b600b5461027a565b610270610442366004613284565b61121e565b610270610455366004613284565b611300565b60006001600160e01b031982167f780e9d6300000000000000000000000000000000000000000000000000000000148061049857506104988261137c565b92915050565b6060600180546104ad90613bca565b80601f01602080910402602001604051908101604052809291908181526020018280546104d990613bca565b80156105265780601f106104fb57610100808354040283529160200191610526565b820191906000526020600020905b81548152906001019060200180831161050957829003601f168201915b5050505050905090565b6000818152600360205260408120546001600160a01b03166105ae5760405162461bcd60e51b815260206004820152602c60248201527f4552433732313a20617070726f76656420717565727920666f72206e6f6e657860448201526b34b9ba32b73a103a37b5b2b760a11b60648201526084015b60405180910390fd5b506000908152600560205260409020546001600160a01b031690565b60006105d582610d1b565b9050806001600160a01b0316836001600160a01b0316141561065f5760405162461bcd60e51b815260206004820152602160248201527f4552433732313a20617070726f76616c20746f2063757272656e74206f776e6560448201527f720000000000000000000000000000000000000000000000000000000000000060648201526084016105a5565b336001600160a01b038216148061067b575061067b813361111d565b6106ed5760405162461bcd60e51b815260206004820152603860248201527f4552433732313a20617070726f76652063616c6c6572206973206e6f74206f7760448201527f6e6572206e6f7220617070726f76656420666f7220616c6c000000000000000060648201526084016105a5565b6106f78383611417565b505050565b60405162461bcd60e51b815260206004820152601b60248201527f536f72727920746869206973206e6f7420737570706f727465642e000000000060448201526000906064016105a5565b600061075233610db1565b1561079f5760405162461bcd60e51b815260206004820152601560248201527f596f7520616c72656164792068617665206f6e652e000000000000000000000060448201526064016105a5565b600d54600b54106107f25760405162461bcd60e51b815260206004820152600960248201527f536f6c64206f75742e000000000000000000000000000000000000000000000060448201526064016105a5565b6014600b546108019190613c20565b600214156108465761084661081e6000546001600160a01b031690565b600c54600b80546001600160a01b039092169190600061083d83613c05565b91905055611485565b600b805490600061085683613c05565b91905055506108776108706000546001600160a01b031690565b3384611485565b60405133815282907ff3919fe9a709ec82fb9fd1c54a2af7cf717bfe52a6c9b1f1ed8ea42d52ba392f9060200160405180910390a25090565b6108ba338261161b565b61092c5760405162461bcd60e51b815260206004820152603160248201527f4552433732313a207472616e736665722063616c6c6572206973206e6f74206f60448201527f776e6572206e6f7220617070726f76656400000000000000000000000000000060648201526084016105a5565b6106f78383836116f2565b6000546001600160a01b031633146109915760405162461bcd60e51b815260206004820181905260248201527f4f776e61626c653a2063616c6c6572206973206e6f7420746865206f776e657260448201526064016105a5565b600d55565b60006109a183610db1565b8210610a155760405162461bcd60e51b815260206004820152602b60248201527f455243373231456e756d657261626c653a206f776e657220696e646578206f7560448201527f74206f6620626f756e647300000000000000000000000000000000000000000060648201526084016105a5565b506001600160a01b03919091166000908152600760209081526040808320938352929052205490565b6106f783838360405180602001604052806000815250611084565b6000546001600160a01b03163314610ab35760405162461bcd60e51b815260206004820181905260248201527f4f776e61626c653a2063616c6c6572206973206e6f7420746865206f776e657260448201526064016105a5565b6000818152600360205260409020546001600160a01b0316610b175760405162461bcd60e51b815260206004820152601f60248201527f55524920717565727920666f72206e6f6e6578697374656e7420746f6b656e0060448201526064016105a5565b610b20816118ca565b60405181907f806be94a2ac8b92d74e99aa8add5a8e54528a01ec914a9e00d201a6480ed986390600090a250565b6000610b5960095490565b8210610bcd5760405162461bcd60e51b815260206004820152602c60248201527f455243373231456e756d657261626c653a20676c6f62616c20696e646578206f60448201527f7574206f6620626f756e6473000000000000000000000000000000000000000060648201526084016105a5565b60098281548110610be057610be0613c76565b90600052602060002001549050919050565b6000818152600360205260409020546060906001600160a01b0316610c7f5760405162461bcd60e51b815260206004820152602b60248201527f4e6f756e73546f6b656e3a2055524920717565727920666f72206e6f6e65786960448201527f7374656e7420746f6b656e00000000000000000000000000000000000000000060648201526084016105a5565b6000610c8a83611971565b9050600081604051602001610c9f9190613930565b60405160208183030381529060405290506000610cc3610cbe86611aa3565b612351565b9050610cf282600e83604051602001610cde93929190613798565b604051602081830303815290604052612351565b604051602001610d029190613975565b6040516020818303038152906040529350505050919050565b6000818152600360205260408120546001600160a01b0316806104985760405162461bcd60e51b815260206004820152602960248201527f4552433732313a206f776e657220717565727920666f72206e6f6e657869737460448201527f656e7420746f6b656e000000000000000000000000000000000000000000000060648201526084016105a5565b606061049882611aa3565b60006001600160a01b038216610e2f5760405162461bcd60e51b815260206004820152602a60248201527f4552433732313a2062616c616e636520717565727920666f7220746865207a6560448201527f726f20616464726573730000000000000000000000000000000000000000000060648201526084016105a5565b506001600160a01b031660009081526004602052604090205490565b6000546001600160a01b03163314610ea55760405162461bcd60e51b815260206004820181905260248201527f4f776e61626c653a2063616c6c6572206973206e6f7420746865206f776e657260448201526064016105a5565b610eaf60006124ee565b565b600e8054610ebe90613bca565b80601f0160208091040260200160405190810160405280929190818152602001828054610eea90613bca565b8015610f375780601f10610f0c57610100808354040283529160200191610f37565b820191906000526020600020905b815481529060010190602001808311610f1a57829003601f168201915b505050505081565b6000546001600160a01b03163314610f995760405162461bcd60e51b815260206004820181905260248201527f4f776e61626c653a2063616c6c6572206973206e6f7420746865206f776e657260448201526064016105a5565b8051610fac90600e906020840190613157565b5050565b6060600280546104ad90613bca565b6001600160a01b0382163314156110185760405162461bcd60e51b815260206004820152601960248201527f4552433732313a20617070726f766520746f2063616c6c65720000000000000060448201526064016105a5565b3360008181526006602090815260408083206001600160a01b03871680855290835292819020805460ff191686151590811790915590519081529192917f17307eab39ab6107e8899845ad3d59bd9653f200f220920489ca2b5937696c31910160405180910390a35050565b61108e338361161b565b6111005760405162461bcd60e51b815260206004820152603160248201527f4552433732313a207472616e736665722063616c6c6572206973206e6f74206f60448201527f776e6572206e6f7220617070726f76656400000000000000000000000000000060648201526084016105a5565b61110c8484848461253e565b50505050565b606061049882610bf2565b6040517fc45527910000000000000000000000000000000000000000000000000000000081526001600160a01b038381166004830152600091818416917f0000000000000000000000000000000000000000000000000000000000000000169063c45527919060240160206040518083038186803b15801561119e57600080fd5b505afa1580156111b2573d6000803e3d6000fd5b505050506040513d601f19601f820116820180604052508101906111d691906132a1565b6001600160a01b031614156111ed57506001610498565b6001600160a01b0380841660009081526006602090815260408083209386168352929052205460ff165b9392505050565b6000546001600160a01b031633146112785760405162461bcd60e51b815260206004820181905260248201527f4f776e61626c653a2063616c6c6572206973206e6f7420746865206f776e657260448201526064016105a5565b6001600160a01b0381166112f45760405162461bcd60e51b815260206004820152602660248201527f4f776e61626c653a206e6577206f776e657220697320746865207a65726f206160448201527f646472657373000000000000000000000000000000000000000000000000000060648201526084016105a5565b6112fd816124ee565b50565b6000546001600160a01b0316331461135a5760405162461bcd60e51b815260206004820181905260248201527f4f776e61626c653a2063616c6c6572206973206e6f7420746865206f776e657260448201526064016105a5565b600c80546001600160a01b0319166001600160a01b0392909216919091179055565b60006001600160e01b031982167f80ac58cd0000000000000000000000000000000000000000000000000000000014806113df57506001600160e01b031982167f5b5e139f00000000000000000000000000000000000000000000000000000000145b8061049857507f01ffc9a7000000000000000000000000000000000000000000000000000000006001600160e01b0319831614610498565b600081815260056020526040902080546001600160a01b0319166001600160a01b038416908117909155819061144c82610d1b565b6001600160a01b03167f8c5be1e5ebec7d5bd14f71427d1e84f3dd0314c0f7b2291e5b200ac8c7c3b92560405160405180910390a45050565b6001600160a01b0382166114db5760405162461bcd60e51b815260206004820181905260248201527f4552433732313a206d696e7420746f20746865207a65726f206164647265737360448201526064016105a5565b6000818152600360205260409020546001600160a01b0316156115405760405162461bcd60e51b815260206004820152601c60248201527f4552433732313a20746f6b656e20616c7265616479206d696e7465640000000060448201526064016105a5565b61154c600083836125c7565b6001600160a01b0382166000908152600460205260408120805460019290611575908490613a48565b909155505060008181526003602052604080822080546001600160a01b0319166001600160a01b03868116919091179091559051839291861691907fddf252ad1be2c89b69c2b068fc378daa952ba7f163c4a11628f55a4df523b3ef908290a480826001600160a01b0316846001600160a01b03167fddf252ad1be2c89b69c2b068fc378daa952ba7f163c4a11628f55a4df523b3ef60405160405180910390a4505050565b6000818152600360205260408120546001600160a01b03166116945760405162461bcd60e51b815260206004820152602c60248201527f4552433732313a206f70657261746f7220717565727920666f72206e6f6e657860448201526b34b9ba32b73a103a37b5b2b760a11b60648201526084016105a5565b600061169f83610d1b565b9050806001600160a01b0316846001600160a01b031614806116da5750836001600160a01b03166116cf84610530565b6001600160a01b0316145b806116ea57506116ea818561111d565b949350505050565b826001600160a01b031661170582610d1b565b6001600160a01b0316146117815760405162461bcd60e51b815260206004820152602960248201527f4552433732313a207472616e73666572206f6620746f6b656e2074686174206960448201527f73206e6f74206f776e000000000000000000000000000000000000000000000060648201526084016105a5565b6001600160a01b0382166117fc5760405162461bcd60e51b8152602060048201526024808201527f4552433732313a207472616e7366657220746f20746865207a65726f2061646460448201527f726573730000000000000000000000000000000000000000000000000000000060648201526084016105a5565b6118078383836125c7565b611812600082611417565b6001600160a01b038316600090815260046020526040812080546001929061183b908490613b87565b90915550506001600160a01b0382166000908152600460205260408120805460019290611869908490613a48565b909155505060008181526003602052604080822080546001600160a01b0319166001600160a01b0386811691821790925591518493918716917fddf252ad1be2c89b69c2b068fc378daa952ba7f163c4a11628f55a4df523b3ef91a4505050565b60006118d582610d1b565b90506118e3816000846125c7565b6118ee600083611417565b6001600160a01b0381166000908152600460205260408120805460019290611917908490613b87565b909155505060008281526003602052604080822080546001600160a01b0319169055518391906001600160a01b038416907fddf252ad1be2c89b69c2b068fc378daa952ba7f163c4a11628f55a4df523b3ef908390a45050565b6060816119b157505060408051808201909152600181527f3000000000000000000000000000000000000000000000000000000000000000602082015290565b8160005b81156119db57806119c581613c05565b91506119d49050600a83613a8e565b91506119b5565b60008167ffffffffffffffff8111156119f6576119f6613c8c565b6040519080825280601f01601f191660200182016040528015611a20576020820181803683370190505b5090505b84156116ea57611a35600183613b87565b9150611a42600a86613c20565b611a4d906030613a48565b60f81b818381518110611a6257611a62613c76565b60200101907effffffffffffffffffffffffffffffffffffffffffffffffffffffffffffff1916908160001a905350611a9c600a86613a8e565b9450611a24565b60606000604051602001611b98907f3c7376672077696474683d223130323422206865696768743d2231303234222081527f76696577426f783d22302030203130323420313032342220786d6c6e733d226860208201527f7474703a2f2f7777772e77332e6f72672f323030302f7376672220786d6c6e7360408201527f3a786c696e6b3d22687474703a2f2f7777772e77332e6f72672f313939392f7860608201527f6c696e6b222073686170652d72656e646572696e673d2263726973704564676560808201527f73223e0a0000000000000000000000000000000000000000000000000000000060a082015260a40190565b604051602081830303815290604052905060006040518060c001604052806040518060400160405280600781526020017f234535303030300000000000000000000000000000000000000000000000000081525081526020016040518060400160405280600781526020017f234646384430300000000000000000000000000000000000000000000000000081525081526020016040518060400160405280600781526020017f234646454530300000000000000000000000000000000000000000000000000081525081526020016040518060400160405280600781526020017f233032383132310000000000000000000000000000000000000000000000000081525081526020016040518060400160405280600781526020017f233030344346460000000000000000000000000000000000000000000000000081525081526020016040518060400160405280600781526020017f2337373030383800000000000000000000000000000000000000000000000000815250815250905060006040518060c001604052806040518060400160405280600781526020017f234436323830300000000000000000000000000000000000000000000000000081525081526020016040518060400160405280600781526020017f234646394235360000000000000000000000000000000000000000000000000081525081526020016040518060400160405280600781526020016611a3232323232360c91b81525081526020016040518060400160405280600781526020017f234434363241360000000000000000000000000000000000000000000000000081525081526020016040518060400160405280600781526020017f2341343030363200000000000000000000000000000000000000000000000000815250815260200160405180604001604052806002815260200161023360f41b815250815250905060006040518060c001604052806040518060400160405280600781526020017f234645373641320000000000000000000000000000000000000000000000000081525081526020016040518060400160405280600781526020016611a3232323232360c91b81525081526020016040518060400160405280600781526020017f234246313244370000000000000000000000000000000000000000000000000081525081526020016040518060400160405280600781526020017f233030303030300000000000000000000000000000000000000000000000000081525081526020016040518060400160405280600781526020017f2333303343424500000000000000000000000000000000000000000000000000815250815260200160405180604001604052806002815260200161023360f41b815250815250905060006040518060c0016040528060405180604001604052806007815260200166119aa121a3232160c91b8152508152602001604051806040016040528060078152602001662346354142423960c81b81525081526020016040518060400160405280600781526020016611a3232323232360c91b8152508152602001604051806040016040528060078152602001662346354142423960c81b815250815260200160405180604001604052806007815260200166119aa121a3232160c91b815250815260200160405180604001604052806002815260200161023360f41b815250815250905060006040518060c00160405280604051806040016040528060078152602001660234436303237360cc1b8152508152602001604051806040016040528060078152602001660234436303237360cc1b81525081526020016040518060400160405280600781526020017f23394234463936000000000000000000000000000000000000000000000000008152508152602001604051806040016040528060078152602001660466060667082760cb1b8152508152602001604051806040016040528060078152602001660466060667082760cb1b815250815260200160405180604001604052806002815260200161023360f41b815250815250905060006040518060c001604052806040518060400160405280600781526020016608d1918c50ce1160ca1b81525081526020016040518060400160405280600781526020016608d1918c50ce1160ca1b8152508152602001604051806040016040528060078152602001660234646443730360cc1b8152508152602001604051806040016040528060078152602001660234646443730360cc1b8152508152602001604051806040016040528060078152602001661198a0a119a32360c91b8152508152602001604051806040016040528060078152602001661198a0a119a32360c91b81525081525090506060600061226e8b61267f565b905061227b601482613c20565b6122925761228b8b6005896126b2565b915061231f565b61229d606482613c20565b600214156122b15761228b8b6005886126b2565b6122bc60c882613c20565b600314156122d05761228b8b6005876126b2565b6122dc61012c82613c20565b600414156122f05761228b8b6005866126b2565b6122fc61019082613c20565b600514156123105761228b8b6006856126b2565b61231c8b60068a6126b2565b91505b888260405160200161233292919061352a565b6040516020818303038152906040529950505050505050505050919050565b606081516000141561237157505060408051602081019091526000815290565b6000604051806060016040528060408152602001613cce60409139905060006003845160026123a09190613a48565b6123aa9190613a8e565b6123b5906004613b29565b905060006123c4826020613a48565b67ffffffffffffffff8111156123dc576123dc613c8c565b6040519080825280601f01601f191660200182016040528015612406576020820181803683370190505b509050818152600183018586518101602084015b81831015612472576003830192508251603f8160121c168501518253600182019150603f81600c1c168501518253600182019150603f8160061c168501518253600182019150603f811685015182535060010161241a565b60038951066001811461248c57600281146124b8576124e0565b7f3d3d0000000000000000000000000000000000000000000000000000000000006001198301526124e0565b7f3d000000000000000000000000000000000000000000000000000000000000006000198301525b509398975050505050505050565b600080546001600160a01b038381166001600160a01b0319831681178455604051919092169283917f8be0079c531659141344cd1fd0a4f28419497f9722a3daafe3b4186f6b6457e09190a35050565b6125498484846116f2565b6125558484848461275a565b61110c5760405162461bcd60e51b815260206004820152603260248201527f4552433732313a207472616e7366657220746f206e6f6e20455243373231526560448201527f63656976657220696d706c656d656e746572000000000000000000000000000060648201526084016105a5565b6001600160a01b0383166126225761261d81600980546000838152600a60205260408120829055600182018355919091527f6e1540171b6c0c960b71a7020d9f60077f6af931a8bbf590da0223dacf75c7af0155565b612645565b816001600160a01b0316836001600160a01b0316146126455761264583826128bd565b6001600160a01b03821661265c576106f78161295a565b826001600160a01b0316826001600160a01b0316146106f7576106f78282612a09565b60008160405160200161269491815260200190565b60408051601f19818403018152919052805160209091012092915050565b6060600060405160200161270f907f3c726563742077696474683d223130323422206865696768743d22313032342281527f2066696c6c3d222337314243453122202f3e0a00000000000000000000000000602082015260330190565b6040516020818303038152906040529050600061272b86612a4d565b905081816040516020016127409291906134fb565b60408051808303601f190181529190529695505050505050565b60006001600160a01b0384163b156128b257604051630a85bd0160e11b81526001600160a01b0385169063150b7a029061279e9033908990889088906004016139ba565b602060405180830381600087803b1580156127b857600080fd5b505af19250505080156127e8575060408051601f3d908101601f191682019092526127e591810190613434565b60015b612898573d808015612816576040519150601f19603f3d011682016040523d82523d6000602084013e61281b565b606091505b5080516128905760405162461bcd60e51b815260206004820152603260248201527f4552433732313a207472616e7366657220746f206e6f6e20455243373231526560448201527f63656976657220696d706c656d656e746572000000000000000000000000000060648201526084016105a5565b805181602001fd5b6001600160e01b031916630a85bd0160e11b1490506116ea565b506001949350505050565b600060016128ca84610db1565b6128d49190613b87565b600083815260086020526040902054909150808214612927576001600160a01b03841660009081526007602090815260408083208584528252808320548484528184208190558352600890915290208190555b5060009182526008602090815260408084208490556001600160a01b039094168352600781528383209183525290812055565b60095460009061296c90600190613b87565b6000838152600a60205260408120546009805493945090928490811061299457612994613c76565b9060005260206000200154905080600983815481106129b5576129b5613c76565b6000918252602080832090910192909255828152600a909152604080822084905585825281205560098054806129ed576129ed613c60565b6001900381819060005260206000200160009055905550505050565b6000612a1483610db1565b6001600160a01b039093166000908152600760209081526040808320868452825280832085905593825260089052919091209190915550565b6060612a576131db565b60005b6004811015612abe5760ff80612a71836008613b29565b86901c16838360048110612a8757612a87613c76565b6020020152612aab838360048110612aa157612aa1613c76565b6020020151612cf8565b5080612ab681613c05565b915050612a5a565b5060408101516060820151600091612af891612adb906064613b29565b612ae59190613a48565b60208401518460005b6020020151612d6b565b9050612b0381612cf8565b612b15612b108242612d86565b612cf8565b6000612b3c6001612b2542612ddd565b612b2f9190613b87565b6020850151856000612aee565b90506000612b4a8242612df8565b905061016d811115612b6557612b6261016d82613b87565b90505b612b6e81612cf8565b6060604051602001612c3b907f3c706174682069643d226d795f706174682220643d224d203130302c3330302081527f43203234302c3430203736302c3430203930302c333030222066696c6c3d226e60208201527f6f6e652220202f3e3c7465787420666f6e742d73697a653d2233302220666f6e60408201527f742d7765696768743d22626f6c64222066696c6c3d2259656c6c6f77223e203c60608201527f746578745061746820786c696e6b3a687265663d22236d795f70617468223e006080820152609f0190565b604051602081830303815290604052905080612c5e612c5942612ddd565b611971565b612c6a612c5942612e1f565b612c76612c5942612e39565b612c82612c5942612e4b565b612c8e612c5942612e69565b604051602001612ca396959493929190613581565b604051602081830303815290604052905080612cc2612c598642612d86565b612ccb84611971565b604051602001612cdd939291906136b1565b60408051601f19818403018152919052979650505050505050565b6112fd81604051602401612d0e91815260200190565b60408051601f198184030181529190526020810180517bffffffffffffffffffffffffffffffffffffffffffffffffffffffff167ff5b1bba900000000000000000000000000000000000000000000000000000000179052612e85565b600062015180612d7c858585612ea6565b6116ea9190613b29565b600081831115612d9557600080fd5b6000612dac612da76201518086613a8e565b612fe3565b505090506000612dc46201518085612da79190613a8e565b505090508181612dd49190613b87565b95945050505050565b6000612def612da76201518084613a8e565b50909392505050565b600081831115612e0757600080fd5b62015180612e158484613b87565b6112179190613a8e565b6000612e31612da76201518084613a8e565b509392505050565b60006116ea612da76201518084613a8e565b600080612e5b6201518084613c20565b9050611217610e1082613a8e565b600080612e78610e1084613c20565b9050611217603c82613a8e565b80516a636f6e736f6c652e6c6f67602083016000808483855afa5050505050565b60006107b2841015612eb757600080fd5b838383600062253d8c60046064600c612ed1600e88613b48565b612edb9190613a60565b612ee788611324613a09565b612ef19190613a09565b612efb9190613a60565b612f06906003613aa2565b612f109190613a60565b600c80612f1e600e88613b48565b612f289190613a60565b612f3390600c613aa2565b612f3e600288613b48565b612f489190613b48565b612f549061016f613aa2565b612f5e9190613a60565b6004600c612f6d600e89613b48565b612f779190613a60565b612f83896112c0613a09565b612f8d9190613a09565b612f99906105b5613aa2565b612fa39190613a60565b612faf617d4b87613b48565b612fb99190613a09565b612fc39190613a09565b612fcd9190613b48565b612fd79190613b48565b98975050505050505050565b60008080838162253d8c612ffa8362010bd9613a09565b6130049190613a09565b9050600062023ab1613017836004613aa2565b6130219190613a60565b905060046130328262023ab1613aa2565b61303d906003613a09565b6130479190613a60565b6130519083613b48565b9150600062164b09613064846001613a09565b61307090610fa0613aa2565b61307a9190613a60565b9050600461308a826105b5613aa2565b6130949190613a60565b61309e9084613b48565b6130a990601f613a09565b9250600061098f6130bb856050613aa2565b6130c59190613a60565b9050600060506130d78361098f613aa2565b6130e19190613a60565b6130eb9086613b48565b90506130f8600b83613a60565b945061310585600c613aa2565b613110836002613a09565b61311a9190613b48565b91508483613129603187613b48565b613134906064613aa2565b61313e9190613a09565b6131489190613a09565b9a919950975095505050505050565b82805461316390613bca565b90600052602060002090601f01602090048101928261318557600085556131cb565b82601f1061319e57805160ff19168380011785556131cb565b828001600101855582156131cb579182015b828111156131cb5782518255916020019190600101906131b0565b506131d79291506131f9565b5090565b60405180608001604052806004906020820280368337509192915050565b5b808211156131d757600081556001016131fa565b600067ffffffffffffffff8084111561322957613229613c8c565b604051601f8501601f19908116603f0116810190828211818310171561325157613251613c8c565b8160405280935085815286868601111561326a57600080fd5b858560208301376000602087830101525050509392505050565b60006020828403121561329657600080fd5b813561121781613ca2565b6000602082840312156132b357600080fd5b815161121781613ca2565b600080604083850312156132d157600080fd5b82356132dc81613ca2565b915060208301356132ec81613ca2565b809150509250929050565b60008060006060848603121561330c57600080fd5b833561331781613ca2565b9250602084013561332781613ca2565b929592945050506040919091013590565b6000806000806080858703121561334e57600080fd5b843561335981613ca2565b9350602085013561336981613ca2565b925060408501359150606085013567ffffffffffffffff81111561338c57600080fd5b8501601f8101871361339d57600080fd5b6133ac8782356020840161320e565b91505092959194509250565b600080604083850312156133cb57600080fd5b82356133d681613ca2565b9150602083013580151581146132ec57600080fd5b600080604083850312156133fe57600080fd5b823561340981613ca2565b946020939093013593505050565b60006020828403121561342957600080fd5b813561121781613cb7565b60006020828403121561344657600080fd5b815161121781613cb7565b60006020828403121561346357600080fd5b813567ffffffffffffffff81111561347a57600080fd5b8201601f8101841361348b57600080fd5b6116ea8482356020840161320e565b6000602082840312156134ac57600080fd5b5035919050565b600081518084526134cb816020860160208601613b9e565b601f01601f19169290920160200192915050565b600081516134f1818560208601613b9e565b9290920192915050565b6000835161350d818460208801613b9e565b835190830190613521818360208801613b9e565b01949350505050565b6000835161353c818460208801613b9e565b835190830190613550818360208801613b9e565b7f3c2f7376673e00000000000000000000000000000000000000000000000000009101908152600601949350505050565b6000875160206135948285838d01613b9e565b8851918401916135a78184848d01613b9e565b7f2f00000000000000000000000000000000000000000000000000000000000000920182815288519092906135e28160018601858d01613b9e565b600193019283015286516135fc8160028501848b01613b9e565b7f20000000000000000000000000000000000000000000000000000000000000006002939091019283015285516136398160038501848a01613b9e565b7f3a000000000000000000000000000000000000000000000000000000000000006003939091019283015284516136768160048501848901613b9e565b7f2855544329000000000000000000000000000000000000000000000000000000600493909101928301525060090198975050505050505050565b600084516136c3818460208901613b9e565b7f202048617070790000000000000000000000000000000000000000000000000090830190815284516136fd816007840160208901613b9e565b7f596561727320616e64000000000000000000000000000000000000000000000060079290910191820152835161373b816010840160208801613b9e565b7f4461797321210000000000000000000000000000000000000000000000000000601092909101918201527f3c2f74657874506174683e3c2f746578743e0000000000000000000000000000601682015260280195945050505050565b7f7b226e616d65223a22000000000000000000000000000000000000000000000081526000845160206137d18260098601838a01613b9e565b7f222c20226465736372697074696f6e223a2200000000000000000000000000006009928501928301528554601b90600090600181811c908083168061381857607f831692505b86831081141561383657634e487b7160e01b85526022600452602485fd5b80801561384a576001811461385f57613890565b60ff1985168988015283890187019550613890565b60008d81526020902060005b858110156138865781548b82018a015290840190890161386b565b505086848a010195505b50505050506139236138fa6138f46138cb847f222c2022696d616765223a2022000000000000000000000000000000000000008152600d0190565b7f646174613a696d6167652f7376672b786d6c3b6261736536342c0000000000008152601a0190565b896134df565b7f227d000000000000000000000000000000000000000000000000000000000000815260020190565b9998505050505050505050565b7f4861707079546f6b656e2300000000000000000000000000000000000000000081526000825161396881600b850160208701613b9e565b91909101600b0192915050565b7f646174613a6170706c69636174696f6e2f6a736f6e3b6261736536342c0000008152600082516139ad81601d850160208701613b9e565b91909101601d0192915050565b60006001600160a01b038087168352808616602084015250836040830152608060608301526139ec60808301846134b3565b9695505050505050565b60208152600061121760208301846134b3565b6000808212826001600160ff1b0303841381151615613a2a57613a2a613c34565b82600160ff1b038412811615613a4257613a42613c34565b50500190565b60008219821115613a5b57613a5b613c34565b500190565b600082613a6f57613a6f613c4a565b600160ff1b821460001984141615613a8957613a89613c34565b500590565b600082613a9d57613a9d613c4a565b500490565b60006001600160ff1b03600084136000841385830485118282161615613aca57613aca613c34565b600160ff1b6000871286820588128184161615613ae957613ae9613c34565b60008712925087820587128484161615613b0557613b05613c34565b87850587128184161615613b1b57613b1b613c34565b505050929093029392505050565b6000816000190483118215151615613b4357613b43613c34565b500290565b600080831283600160ff1b01831281151615613b6657613b66613c34565b836001600160ff1b03018313811615613b8157613b81613c34565b50500390565b600082821015613b9957613b99613c34565b500390565b60005b83811015613bb9578181015183820152602001613ba1565b8381111561110c5750506000910152565b600181811c90821680613bde57607f821691505b60208210811415613bff57634e487b7160e01b600052602260045260246000fd5b50919050565b6000600019821415613c1957613c19613c34565b5060010190565b600082613c2f57613c2f613c4a565b500690565b634e487b7160e01b600052601160045260246000fd5b634e487b7160e01b600052601260045260246000fd5b634e487b7160e01b600052603160045260246000fd5b634e487b7160e01b600052603260045260246000fd5b634e487b7160e01b600052604160045260246000fd5b6001600160a01b03811681146112fd57600080fd5b6001600160e01b0319811681146112fd57600080fdfe4142434445464748494a4b4c4d4e4f505152535455565758595a6162636465666768696a6b6c6d6e6f707172737475767778797a303132333435363738392b2fa2646970667358221220728d056586a3ec219d06f4dbbe397a370e0895c03286ddb2382c459c1ed0e82664736f6c63430008060033",
  "linkReferences": {},
  "deployedLinkReferences": {}
}