{
  "_format": "hh-sol-artifact-1",
  "contractName": "ContentsToken",
  "sourceName": "contracts/ContentsToken.sol",
  "abi": [
    {
      "inputs": [
        {
          "internalType": "address",
          "name": "_committee",
          "type": "address"
        },
        {
          "components": [
            {
              "internalType": "uint256",
              "name": "maxPrice",
              "type": "uint256"
            },
            {
              "internalType": "uint256",
              "name": "minPrice",
              "type": "uint256"
            },
            {
              "internalType": "uint256",
              "name": "priceDelta",
              "type": "uint256"
            },
            {
              "internalType": "uint256",
              "name": "timeDelta",
              "type": "uint256"
            },
            {
              "internalType": "uint256",
              "name": "expirationTime",
              "type": "uint256"
            }
          ],
          "internalType": "struct ContentsToken.PriceSeed",
          "name": "_priceSeed",
          "type": "tuple"
        },
        {
          "internalType": "contract IProxyRegistry",
          "name": "_proxyRegistry",
          "type": "address"
        }
      ],
      "stateMutability": "nonpayable",
      "type": "constructor"
    },
    {
      "anonymous": false,
      "inputs": [
        {
          "indexed": true,
          "internalType": "address",
          "name": "owner",
          "type": "address"
        },
        {
          "indexed": true,
          "internalType": "address",
          "name": "approved",
          "type": "address"
        },
        {
          "indexed": true,
          "internalType": "uint256",
          "name": "tokenId",
          "type": "uint256"
        }
      ],
      "name": "Approval",
      "type": "event"
    },
    {
      "anonymous": false,
      "inputs": [
        {
          "indexed": true,
          "internalType": "address",
          "name": "owner",
          "type": "address"
        },
        {
          "indexed": true,
          "internalType": "address",
          "name": "operator",
          "type": "address"
        },
        {
          "indexed": false,
          "internalType": "bool",
          "name": "approved",
          "type": "bool"
        }
      ],
      "name": "ApprovalForAll",
      "type": "event"
    },
    {
      "anonymous": false,
      "inputs": [
        {
          "indexed": true,
          "internalType": "uint256",
          "name": "tokenId",
          "type": "uint256"
        },
        {
          "indexed": false,
          "internalType": "address",
          "name": "newOwner",
          "type": "address"
        }
      ],
      "name": "ContentsBought",
      "type": "event"
    },
    {
      "anonymous": false,
      "inputs": [
        {
          "indexed": true,
          "internalType": "uint256",
          "name": "tokenId",
          "type": "uint256"
        }
      ],
      "name": "ContentsBurned",
      "type": "event"
    },
    {
      "anonymous": false,
      "inputs": [
        {
          "indexed": true,
          "internalType": "uint256",
          "name": "tokenId",
          "type": "uint256"
        },
        {
          "indexed": false,
          "internalType": "string",
          "name": "contents",
          "type": "string"
        }
      ],
      "name": "ContentsCreated",
      "type": "event"
    },
    {
      "anonymous": false,
      "inputs": [
        {
          "indexed": true,
          "internalType": "address",
          "name": "delegator",
          "type": "address"
        },
        {
          "indexed": true,
          "internalType": "address",
          "name": "fromDelegate",
          "type": "address"
        },
        {
          "indexed": true,
          "internalType": "address",
          "name": "toDelegate",
          "type": "address"
        }
      ],
      "name": "DelegateChanged",
      "type": "event"
    },
    {
      "anonymous": false,
      "inputs": [
        {
          "indexed": true,
          "internalType": "address",
          "name": "delegate",
          "type": "address"
        },
        {
          "indexed": false,
          "internalType": "uint256",
          "name": "previousBalance",
          "type": "uint256"
        },
        {
          "indexed": false,
          "internalType": "uint256",
          "name": "newBalance",
          "type": "uint256"
        }
      ],
      "name": "DelegateVotesChanged",
      "type": "event"
    },
    {
      "anonymous": false,
      "inputs": [
        {
          "indexed": false,
          "internalType": "uint256",
          "name": "mintTime",
          "type": "uint256"
        }
      ],
      "name": "MintTimeUpdated",
      "type": "event"
    },
    {
      "anonymous": false,
      "inputs": [
        {
          "indexed": true,
          "internalType": "address",
          "name": "previousOwner",
          "type": "address"
        },
        {
          "indexed": true,
          "internalType": "address",
          "name": "newOwner",
          "type": "address"
        }
      ],
      "name": "OwnershipTransferred",
      "type": "event"
    },
    {
      "anonymous": false,
      "inputs": [
        {
          "indexed": true,
          "internalType": "address",
          "name": "from",
          "type": "address"
        },
        {
          "indexed": true,
          "internalType": "address",
          "name": "to",
          "type": "address"
        },
        {
          "indexed": true,
          "internalType": "uint256",
          "name": "tokenId",
          "type": "uint256"
        }
      ],
      "name": "Transfer",
      "type": "event"
    },
    {
      "inputs": [],
      "name": "DELEGATION_TYPEHASH",
      "outputs": [
        {
          "internalType": "bytes32",
          "name": "",
          "type": "bytes32"
        }
      ],
      "stateMutability": "view",
      "type": "function"
    },
    {
      "inputs": [],
      "name": "DOMAIN_TYPEHASH",
      "outputs": [
        {
          "internalType": "bytes32",
          "name": "",
          "type": "bytes32"
        }
      ],
      "stateMutability": "view",
      "type": "function"
    },
    {
      "inputs": [
        {
          "internalType": "address",
          "name": "_authority",
          "type": "address"
        }
      ],
      "name": "addAuthority",
      "outputs": [],
      "stateMutability": "nonpayable",
      "type": "function"
    },
    {
      "inputs": [],
      "name": "admin",
      "outputs": [
        {
          "internalType": "address",
          "name": "",
          "type": "address"
        }
      ],
      "stateMutability": "view",
      "type": "function"
    },
    {
      "inputs": [
        {
          "internalType": "address",
          "name": "to",
          "type": "address"
        },
        {
          "internalType": "uint256",
          "name": "tokenId",
          "type": "uint256"
        }
      ],
      "name": "approve",
      "outputs": [],
      "stateMutability": "nonpayable",
      "type": "function"
    },
    {
      "inputs": [
        {
          "internalType": "address",
          "name": "owner",
          "type": "address"
        }
      ],
      "name": "balanceOf",
      "outputs": [
        {
          "internalType": "uint256",
          "name": "",
          "type": "uint256"
        }
      ],
      "stateMutability": "view",
      "type": "function"
    },
    {
      "inputs": [
        {
          "internalType": "uint256",
          "name": "contentsId",
          "type": "uint256"
        }
      ],
      "name": "burn",
      "outputs": [],
      "stateMutability": "nonpayable",
      "type": "function"
    },
    {
      "inputs": [
        {
          "internalType": "uint256",
          "name": "tokenId",
          "type": "uint256"
        }
      ],
      "name": "buy",
      "outputs": [
        {
          "internalType": "bool",
          "name": "",
          "type": "bool"
        }
      ],
      "stateMutability": "payable",
      "type": "function"
    },
    {
      "inputs": [
        {
          "internalType": "address",
          "name": "",
          "type": "address"
        },
        {
          "internalType": "uint32",
          "name": "",
          "type": "uint32"
        }
      ],
      "name": "checkpoints",
      "outputs": [
        {
          "internalType": "uint32",
          "name": "fromBlock",
          "type": "uint32"
        },
        {
          "internalType": "uint96",
          "name": "votes",
          "type": "uint96"
        }
      ],
      "stateMutability": "view",
      "type": "function"
    },
    {
      "inputs": [],
      "name": "committee",
      "outputs": [
        {
          "internalType": "address",
          "name": "",
          "type": "address"
        }
      ],
      "stateMutability": "view",
      "type": "function"
    },
    {
      "inputs": [
        {
          "internalType": "uint256",
          "name": "tokenId",
          "type": "uint256"
        }
      ],
      "name": "dataURI",
      "outputs": [
        {
          "internalType": "string",
          "name": "",
          "type": "string"
        }
      ],
      "stateMutability": "view",
      "type": "function"
    },
    {
      "inputs": [],
      "name": "decimals",
      "outputs": [
        {
          "internalType": "uint8",
          "name": "",
          "type": "uint8"
        }
      ],
      "stateMutability": "view",
      "type": "function"
    },
    {
      "inputs": [
        {
          "internalType": "address",
          "name": "delegatee",
          "type": "address"
        }
      ],
      "name": "delegate",
      "outputs": [],
      "stateMutability": "nonpayable",
      "type": "function"
    },
    {
      "inputs": [
        {
          "internalType": "address",
          "name": "delegatee",
          "type": "address"
        },
        {
          "internalType": "uint256",
          "name": "nonce",
          "type": "uint256"
        },
        {
          "internalType": "uint256",
          "name": "expiry",
          "type": "uint256"
        },
        {
          "internalType": "uint8",
          "name": "v",
          "type": "uint8"
        },
        {
          "internalType": "bytes32",
          "name": "r",
          "type": "bytes32"
        },
        {
          "internalType": "bytes32",
          "name": "s",
          "type": "bytes32"
        }
      ],
      "name": "delegateBySig",
      "outputs": [],
      "stateMutability": "nonpayable",
      "type": "function"
    },
    {
      "inputs": [
        {
          "internalType": "address",
          "name": "delegator",
          "type": "address"
        }
      ],
      "name": "delegates",
      "outputs": [
        {
          "internalType": "address",
          "name": "",
          "type": "address"
        }
      ],
      "stateMutability": "view",
      "type": "function"
    },
    {
      "inputs": [
        {
          "internalType": "uint256",
          "name": "tokenId",
          "type": "uint256"
        }
      ],
      "name": "getApproved",
      "outputs": [
        {
          "internalType": "address",
          "name": "",
          "type": "address"
        }
      ],
      "stateMutability": "view",
      "type": "function"
    },
    {
      "inputs": [
        {
          "internalType": "uint256",
          "name": "tokenId",
          "type": "uint256"
        }
      ],
      "name": "getAttributes",
      "outputs": [
        {
          "components": [
            {
              "internalType": "string",
              "name": "group",
              "type": "string"
            },
            {
              "internalType": "string",
              "name": "category",
              "type": "string"
            },
            {
              "internalType": "string",
              "name": "name",
              "type": "string"
            },
            {
              "internalType": "string",
              "name": "tag",
              "type": "string"
            },
            {
              "internalType": "string",
              "name": "minter",
              "type": "string"
            },
            {
              "internalType": "address",
              "name": "soulbound",
              "type": "address"
            },
            {
              "internalType": "address",
              "name": "creator",
              "type": "address"
            },
            {
              "internalType": "uint16",
              "name": "width",
              "type": "uint16"
            },
            {
              "internalType": "uint16",
              "name": "height",
              "type": "uint16"
            },
            {
              "internalType": "bytes",
              "name": "metadata",
              "type": "bytes"
            },
            {
              "internalType": "string",
              "name": "description",
              "type": "string"
            }
          ],
          "internalType": "struct ContentsAttributes",
          "name": "",
          "type": "tuple"
        }
      ],
      "stateMutability": "view",
      "type": "function"
    },
    {
      "inputs": [
        {
          "internalType": "uint256",
          "name": "tokenId",
          "type": "uint256"
        }
      ],
      "name": "getContents",
      "outputs": [
        {
          "internalType": "string",
          "name": "",
          "type": "string"
        }
      ],
      "stateMutability": "view",
      "type": "function"
    },
    {
      "inputs": [],
      "name": "getCurrentToken",
      "outputs": [
        {
          "internalType": "uint256",
          "name": "",
          "type": "uint256"
        }
      ],
      "stateMutability": "view",
      "type": "function"
    },
    {
      "inputs": [
        {
          "internalType": "address",
          "name": "account",
          "type": "address"
        }
      ],
      "name": "getCurrentVotes",
      "outputs": [
        {
          "internalType": "uint96",
          "name": "",
          "type": "uint96"
        }
      ],
      "stateMutability": "view",
      "type": "function"
    },
    {
      "inputs": [
        {
          "internalType": "uint256",
          "name": "tokenId",
          "type": "uint256"
        }
      ],
      "name": "getMintTime",
      "outputs": [
        {
          "internalType": "uint256",
          "name": "",
          "type": "uint256"
        }
      ],
      "stateMutability": "view",
      "type": "function"
    },
    {
      "inputs": [],
      "name": "getPriceData",
      "outputs": [
        {
          "components": [
            {
              "internalType": "uint256",
              "name": "maxPrice",
              "type": "uint256"
            },
            {
              "internalType": "uint256",
              "name": "minPrice",
              "type": "uint256"
            },
            {
              "internalType": "uint256",
              "name": "priceDelta",
              "type": "uint256"
            },
            {
              "internalType": "uint256",
              "name": "timeDelta",
              "type": "uint256"
            },
            {
              "internalType": "uint256",
              "name": "expirationTime",
              "type": "uint256"
            }
          ],
          "internalType": "struct ContentsToken.PriceSeed",
          "name": "",
          "type": "tuple"
        }
      ],
      "stateMutability": "view",
      "type": "function"
    },
    {
      "inputs": [
        {
          "internalType": "address",
          "name": "account",
          "type": "address"
        },
        {
          "internalType": "uint256",
          "name": "blockNumber",
          "type": "uint256"
        }
      ],
      "name": "getPriorVotes",
      "outputs": [
        {
          "internalType": "uint96",
          "name": "",
          "type": "uint96"
        }
      ],
      "stateMutability": "view",
      "type": "function"
    },
    {
      "inputs": [
        {
          "internalType": "string",
          "name": "contentsId",
          "type": "string"
        }
      ],
      "name": "getTokenId",
      "outputs": [
        {
          "internalType": "uint256",
          "name": "",
          "type": "uint256"
        }
      ],
      "stateMutability": "view",
      "type": "function"
    },
    {
      "inputs": [
        {
          "internalType": "address",
          "name": "owner",
          "type": "address"
        },
        {
          "internalType": "address",
          "name": "operator",
          "type": "address"
        }
      ],
      "name": "isApprovedForAll",
      "outputs": [
        {
          "internalType": "bool",
          "name": "",
          "type": "bool"
        }
      ],
      "stateMutability": "view",
      "type": "function"
    },
    {
      "inputs": [
        {
          "internalType": "address",
          "name": "to",
          "type": "address"
        },
        {
          "internalType": "address",
          "name": "authority",
          "type": "address"
        },
        {
          "internalType": "string",
          "name": "contents",
          "type": "string"
        },
        {
          "components": [
            {
              "internalType": "string",
              "name": "group",
              "type": "string"
            },
            {
              "internalType": "string",
              "name": "category",
              "type": "string"
            },
            {
              "internalType": "string",
              "name": "name",
              "type": "string"
            },
            {
              "internalType": "string",
              "name": "tag",
              "type": "string"
            },
            {
              "internalType": "string",
              "name": "minter",
              "type": "string"
            },
            {
              "internalType": "address",
              "name": "soulbound",
              "type": "address"
            },
            {
              "internalType": "address",
              "name": "creator",
              "type": "address"
            },
            {
              "internalType": "uint16",
              "name": "width",
              "type": "uint16"
            },
            {
              "internalType": "uint16",
              "name": "height",
              "type": "uint16"
            },
            {
              "internalType": "bytes",
              "name": "metadata",
              "type": "bytes"
            },
            {
              "internalType": "string",
              "name": "description",
              "type": "string"
            }
          ],
          "internalType": "struct ContentsAttributes",
          "name": "attr",
          "type": "tuple"
        }
      ],
      "name": "mint",
      "outputs": [
        {
          "internalType": "uint256",
          "name": "",
          "type": "uint256"
        }
      ],
      "stateMutability": "nonpayable",
      "type": "function"
    },
    {
      "inputs": [],
      "name": "name",
      "outputs": [
        {
          "internalType": "string",
          "name": "",
          "type": "string"
        }
      ],
      "stateMutability": "view",
      "type": "function"
    },
    {
      "inputs": [
        {
          "internalType": "address",
          "name": "",
          "type": "address"
        }
      ],
      "name": "nonces",
      "outputs": [
        {
          "internalType": "uint256",
          "name": "",
          "type": "uint256"
        }
      ],
      "stateMutability": "view",
      "type": "function"
    },
    {
      "inputs": [
        {
          "internalType": "address",
          "name": "",
          "type": "address"
        }
      ],
      "name": "numCheckpoints",
      "outputs": [
        {
          "internalType": "uint32",
          "name": "",
          "type": "uint32"
        }
      ],
      "stateMutability": "view",
      "type": "function"
    },
    {
      "inputs": [],
      "name": "owner",
      "outputs": [
        {
          "internalType": "address",
          "name": "",
          "type": "address"
        }
      ],
      "stateMutability": "view",
      "type": "function"
    },
    {
      "inputs": [
        {
          "internalType": "uint256",
          "name": "tokenId",
          "type": "uint256"
        }
      ],
      "name": "ownerOf",
      "outputs": [
        {
          "internalType": "address",
          "name": "",
          "type": "address"
        }
      ],
      "stateMutability": "view",
      "type": "function"
    },
    {
      "inputs": [],
      "name": "priceSeed",
      "outputs": [
        {
          "internalType": "uint256",
          "name": "maxPrice",
          "type": "uint256"
        },
        {
          "internalType": "uint256",
          "name": "minPrice",
          "type": "uint256"
        },
        {
          "internalType": "uint256",
          "name": "priceDelta",
          "type": "uint256"
        },
        {
          "internalType": "uint256",
          "name": "timeDelta",
          "type": "uint256"
        },
        {
          "internalType": "uint256",
          "name": "expirationTime",
          "type": "uint256"
        }
      ],
      "stateMutability": "view",
      "type": "function"
    },
    {
      "inputs": [],
      "name": "proxyRegistry",
      "outputs": [
        {
          "internalType": "contract IProxyRegistry",
          "name": "",
          "type": "address"
        }
      ],
      "stateMutability": "view",
      "type": "function"
    },
    {
      "inputs": [],
      "name": "renounceOwnership",
      "outputs": [],
      "stateMutability": "nonpayable",
      "type": "function"
    },
    {
      "inputs": [
        {
          "internalType": "address",
          "name": "from",
          "type": "address"
        },
        {
          "internalType": "address",
          "name": "to",
          "type": "address"
        },
        {
          "internalType": "uint256",
          "name": "tokenId",
          "type": "uint256"
        }
      ],
      "name": "safeTransferFrom",
      "outputs": [],
      "stateMutability": "nonpayable",
      "type": "function"
    },
    {
      "inputs": [
        {
          "internalType": "address",
          "name": "from",
          "type": "address"
        },
        {
          "internalType": "address",
          "name": "to",
          "type": "address"
        },
        {
          "internalType": "uint256",
          "name": "tokenId",
          "type": "uint256"
        },
        {
          "internalType": "bytes",
          "name": "_data",
          "type": "bytes"
        }
      ],
      "name": "safeTransferFrom",
      "outputs": [],
      "stateMutability": "nonpayable",
      "type": "function"
    },
    {
      "inputs": [
        {
          "internalType": "address",
          "name": "_admin",
          "type": "address"
        }
      ],
      "name": "setAdmin",
      "outputs": [],
      "stateMutability": "nonpayable",
      "type": "function"
    },
    {
      "inputs": [
        {
          "internalType": "address",
          "name": "operator",
          "type": "address"
        },
        {
          "internalType": "bool",
          "name": "approved",
          "type": "bool"
        }
      ],
      "name": "setApprovalForAll",
      "outputs": [],
      "stateMutability": "nonpayable",
      "type": "function"
    },
    {
      "inputs": [
        {
          "internalType": "address",
          "name": "_committee",
          "type": "address"
        }
      ],
      "name": "setCommittee",
      "outputs": [],
      "stateMutability": "nonpayable",
      "type": "function"
    },
    {
      "inputs": [
        {
          "components": [
            {
              "internalType": "uint256",
              "name": "maxPrice",
              "type": "uint256"
            },
            {
              "internalType": "uint256",
              "name": "minPrice",
              "type": "uint256"
            },
            {
              "internalType": "uint256",
              "name": "priceDelta",
              "type": "uint256"
            },
            {
              "internalType": "uint256",
              "name": "timeDelta",
              "type": "uint256"
            },
            {
              "internalType": "uint256",
              "name": "expirationTime",
              "type": "uint256"
            }
          ],
          "internalType": "struct ContentsToken.PriceSeed",
          "name": "_priceSeed",
          "type": "tuple"
        }
      ],
      "name": "setPriceData",
      "outputs": [],
      "stateMutability": "nonpayable",
      "type": "function"
    },
    {
      "inputs": [
        {
          "internalType": "string",
          "name": "_url",
          "type": "string"
        }
      ],
      "name": "setWeb2",
      "outputs": [],
      "stateMutability": "nonpayable",
      "type": "function"
    },
    {
      "inputs": [
        {
          "internalType": "bytes4",
          "name": "interfaceId",
          "type": "bytes4"
        }
      ],
      "name": "supportsInterface",
      "outputs": [
        {
          "internalType": "bool",
          "name": "",
          "type": "bool"
        }
      ],
      "stateMutability": "view",
      "type": "function"
    },
    {
      "inputs": [],
      "name": "symbol",
      "outputs": [
        {
          "internalType": "string",
          "name": "",
          "type": "string"
        }
      ],
      "stateMutability": "view",
      "type": "function"
    },
    {
      "inputs": [
        {
          "internalType": "uint256",
          "name": "index",
          "type": "uint256"
        }
      ],
      "name": "tokenByIndex",
      "outputs": [
        {
          "internalType": "uint256",
          "name": "",
          "type": "uint256"
        }
      ],
      "stateMutability": "view",
      "type": "function"
    },
    {
      "inputs": [
        {
          "internalType": "address",
          "name": "owner",
          "type": "address"
        },
        {
          "internalType": "uint256",
          "name": "index",
          "type": "uint256"
        }
      ],
      "name": "tokenOfOwnerByIndex",
      "outputs": [
        {
          "internalType": "uint256",
          "name": "",
          "type": "uint256"
        }
      ],
      "stateMutability": "view",
      "type": "function"
    },
    {
      "inputs": [
        {
          "internalType": "uint256",
          "name": "tokenId",
          "type": "uint256"
        }
      ],
      "name": "tokenPrice",
      "outputs": [
        {
          "internalType": "uint256",
          "name": "",
          "type": "uint256"
        }
      ],
      "stateMutability": "view",
      "type": "function"
    },
    {
      "inputs": [
        {
          "internalType": "uint256",
          "name": "tokenId",
          "type": "uint256"
        }
      ],
      "name": "tokenURI",
      "outputs": [
        {
          "internalType": "string",
          "name": "",
          "type": "string"
        }
      ],
      "stateMutability": "view",
      "type": "function"
    },
    {
      "inputs": [],
      "name": "totalSupply",
      "outputs": [
        {
          "internalType": "uint256",
          "name": "",
          "type": "uint256"
        }
      ],
      "stateMutability": "view",
      "type": "function"
    },
    {
      "inputs": [],
      "name": "transfer",
      "outputs": [],
      "stateMutability": "nonpayable",
      "type": "function"
    },
    {
      "inputs": [
        {
          "internalType": "address",
          "name": "from",
          "type": "address"
        },
        {
          "internalType": "address",
          "name": "to",
          "type": "address"
        },
        {
          "internalType": "uint256",
          "name": "tokenId",
          "type": "uint256"
        }
      ],
      "name": "transferFrom",
      "outputs": [],
      "stateMutability": "nonpayable",
      "type": "function"
    },
    {
      "inputs": [
        {
          "internalType": "address",
          "name": "newOwner",
          "type": "address"
        }
      ],
      "name": "transferOwnership",
      "outputs": [],
      "stateMutability": "nonpayable",
      "type": "function"
    },
    {
      "inputs": [
        {
          "internalType": "address",
          "name": "delegator",
          "type": "address"
        }
      ],
      "name": "votesToDelegate",
      "outputs": [
        {
          "internalType": "uint96",
          "name": "",
          "type": "uint96"
        }
      ],
      "stateMutability": "view",
      "type": "function"
    },
    {
      "inputs": [],
      "name": "web2Url",
      "outputs": [
        {
          "internalType": "string",
          "name": "",
          "type": "string"
        }
      ],
      "stateMutability": "view",
      "type": "function"
    }
  ],
  "bytecode": "0x60a060405260016014553480156200001657600080fd5b5060405162005e2538038062005e25833981016040819052620000399162000240565b6040518060400160405280601081526020016f4e6f756e734d6170436f6e74656e747360801b815250604051806040016040528060038152602001624e4d4360e81b81525062000098620000926200013460201b60201c565b62000138565b8151620000ad90600190602085019062000188565b508051620000c390600290602084019062000188565b5050600054601b80546001600160a01b039283166001600160a01b031991821617909155600f8054969092169516949094179093556001600160601b0319606091821b166080908152825160165560208301516017556040830151601855908201516019550151601a555062000350565b3390565b600080546001600160a01b038381166001600160a01b0319831681178455604051919092169283917f8be0079c531659141344cd1fd0a4f28419497f9722a3daafe3b4186f6b6457e09190a35050565b8280546200019690620002fa565b90600052602060002090601f016020900481019282620001ba576000855562000205565b82601f10620001d557805160ff191683800117855562000205565b8280016001018555821562000205579182015b8281111562000205578251825591602001919060010190620001e8565b506200021392915062000217565b5090565b5b8082111562000213576000815560010162000218565b80516200023b8162000337565b919050565b600080600083850360e08112156200025757600080fd5b8451620002648162000337565b935060a0601f19820112156200027957600080fd5b5060405160a081016001600160401b0381118282101715620002ab57634e487b7160e01b600052604160045260246000fd5b80604052506020850151815260408501516020820152606085015160408201526080850151606082015260a0850151608082015280925050620002f160c085016200022e565b90509250925092565b600181811c908216806200030f57607f821691505b602082108114156200033157634e487b7160e01b600052602260045260246000fd5b50919050565b6001600160a01b03811681146200034d57600080fd5b50565b60805160601c615aaf62000376600039600081816108be01526133cc0152615aaf6000f3fe60806040526004361061034a5760003560e01c8063782d6fe1116101bb578063c3cda520116100f7578063e7a324dc11610095578063ef2d17461161006f578063ef2d174614610a67578063f1127ed814610a7c578063f2fde38b14610af1578063f851a44014610b1157600080fd5b8063e7a324dc146109f3578063e9580e9114610a27578063e985e9c514610a4757600080fd5b8063d4ddce8a116100d1578063d4ddce8a14610980578063d864e740146109a0578063d96a094a146109c0578063e6f61536146109d357600080fd5b8063c3cda52014610920578063c528cfc414610940578063c87b56dd1461096057600080fd5b8063a22cb46511610164578063b4b5ea571161013e578063b4b5ea571461088c578063b50cbd9f146108ac578063b88d4fde146108e0578063bddae40e1461090057600080fd5b8063a22cb465146107f5578063a4a2816814610815578063a991c1451461086c57600080fd5b80638a4068dd116101955780638a4068dd146107ad5780638da5cb5b146107c257806395d89b41146107e057600080fd5b8063782d6fe1146107285780637ecebe0014610760578063864a28ec1461078d57600080fd5b806335074fc51161028a5780635ac1e3bb116102335780636fcfff451161020d5780636fcfff451461068b578063704b6c02146106d357806370a08231146106f3578063715018a61461071357600080fd5b80635ac1e3bb1461062b5780635c19a95c1461064b5780636352211e1461066b57600080fd5b80634378a6e3116102645780634378a6e3146105be5780634f6ccce7146105eb578063587cde1e1461060b57600080fd5b806335074fc51461055e57806342842e0e1461057e57806342966c681461059e57600080fd5b806318160ddd116102f757806323b872dd116102d157806323b872dd146104d757806326defa73146104f75780632f745c5914610517578063313ce5671461053757600080fd5b806318160ddd146104645780631e7663bc1461048357806320606b70146104a357600080fd5b806306fdde031161032857806306fdde03146103f5578063081812fc1461040a578063095ea7b31461044257600080fd5b806301ffc9a71461034f578063026833c71461038457806302a1146e146103d3575b600080fd5b34801561035b57600080fd5b5061036f61036a366004614ebf565b610b31565b60405190151581526020015b60405180910390f35b34801561039057600080fd5b50601654601754601854601954601a546103ab949392919085565b604080519586526020860194909452928401919091526060830152608082015260a00161037b565b3480156103df57600080fd5b506103e8610b75565b60405161037b9190615263565b34801561040157600080fd5b506103e8610c03565b34801561041657600080fd5b5061042a610425366004614fab565b610c95565b6040516001600160a01b03909116815260200161037b565b34801561044e57600080fd5b5061046261045d366004614dfa565b610d2f565b005b34801561047057600080fd5b506009545b60405190815260200161037b565b34801561048f57600080fd5b5061047561049e366004614ef9565b610e61565b3480156104af57600080fd5b506104757f8cad95687ba82c2ce50e74f7b754645e5117c3a5bec8151c0726d5857980a86681565b3480156104e357600080fd5b506104626104f2366004614cc2565b610f6d565b34801561050357600080fd5b50610462610512366004614bb8565b610ff4565b34801561052357600080fd5b50610475610532366004614dfa565b611096565b34801561054357600080fd5b5061054c600081565b60405160ff909116815260200161037b565b34801561056a57600080fd5b506103e8610579366004614fab565b61113e565b34801561058a57600080fd5b50610462610599366004614cc2565b611243565b3480156105aa57600080fd5b506104626105b9366004614fab565b61125e565b3480156105ca57600080fd5b506105de6105d9366004614fab565b611377565b60405161037b9190615276565b3480156105f757600080fd5b50610475610606366004614fab565b6118b5565b34801561061757600080fd5b5061042a610626366004614bb8565b611959565b34801561063757600080fd5b506103e8610646366004614fab565b611989565b34801561065757600080fd5b50610462610666366004614bb8565b611f4b565b34801561067757600080fd5b5061042a610686366004614fab565b611f69565b34801561069757600080fd5b506106be6106a6366004614bb8565b600d6020526000908152604090205463ffffffff1681565b60405163ffffffff909116815260200161037b565b3480156106df57600080fd5b506104626106ee366004614bb8565b611ff4565b3480156106ff57600080fd5b5061047561070e366004614bb8565b612070565b34801561071f57600080fd5b5061046261210a565b34801561073457600080fd5b50610748610743366004614dfa565b612170565b6040516001600160601b03909116815260200161037b565b34801561076c57600080fd5b5061047561077b366004614bb8565b600e6020526000908152604090205481565b34801561079957600080fd5b506104626107a8366004614f3b565b612410565b3480156107b957600080fd5b5061046261252e565b3480156107ce57600080fd5b506000546001600160a01b031661042a565b3480156107ec57600080fd5b506103e86125eb565b34801561080157600080fd5b50610462610810366004614dc7565b6125fa565b34801561082157600080fd5b5061082a6126bf565b60405161037b9190600060a082019050825182526020830151602083015260408301516040830152606083015160608301526080830151608083015292915050565b34801561087857600080fd5b50610475610887366004614c2b565b612726565b34801561089857600080fd5b506107486108a7366004614bb8565b612b4d565b3480156108b857600080fd5b5061042a7f000000000000000000000000000000000000000000000000000000000000000081565b3480156108ec57600080fd5b506104626108fb366004614d03565b612bcb565b34801561090c57600080fd5b5061046261091b366004614bb8565b612c59565b34801561092c57600080fd5b5061046261093b366004614e26565b612cf9565b34801561094c57600080fd5b5061047561095b366004614fab565b61302b565b34801561096c57600080fd5b506103e861097b366004614fab565b6130a2565b34801561098c57600080fd5b5061047561099b366004614fab565b613138565b3480156109ac57600080fd5b50600f5461042a906001600160a01b031681565b61036f6109ce366004614fab565b6131af565b3480156109df57600080fd5b506104626109ee366004614ef9565b6132d7565b3480156109ff57600080fd5b506104757fe48329057bfd03d55e49b547132e39cffd9c1820ad7b9d4c5307691425d15adf81565b348015610a3357600080fd5b50610748610a42366004614bb8565b613361565b348015610a5357600080fd5b5061036f610a62366004614bf2565b61338d565b348015610a7357600080fd5b50601454610475565b348015610a8857600080fd5b50610acd610a97366004614e88565b600c60209081526000928352604080842090915290825290205463ffffffff81169064010000000090046001600160601b031682565b6040805163ffffffff90931683526001600160601b0390911660208301520161037b565b348015610afd57600080fd5b50610462610b0c366004614bb8565b61348b565b348015610b1d57600080fd5b50601b5461042a906001600160a01b031681565b60006001600160e01b031982167f780e9d63000000000000000000000000000000000000000000000000000000001480610b6f5750610b6f8261356a565b92915050565b60138054610b8290615666565b80601f0160208091040260200160405190810160405280929190818152602001828054610bae90615666565b8015610bfb5780601f10610bd057610100808354040283529160200191610bfb565b820191906000526020600020905b815481529060010190602001808311610bde57829003601f168201915b505050505081565b606060018054610c1290615666565b80601f0160208091040260200160405190810160405280929190818152602001828054610c3e90615666565b8015610c8b5780601f10610c6057610100808354040283529160200191610c8b565b820191906000526020600020905b815481529060010190602001808311610c6e57829003601f168201915b5050505050905090565b6000818152600360205260408120546001600160a01b0316610d135760405162461bcd60e51b815260206004820152602c60248201527f4552433732313a20617070726f76656420717565727920666f72206e6f6e657860448201526b34b9ba32b73a103a37b5b2b760a11b60648201526084015b60405180910390fd5b506000908152600560205260409020546001600160a01b031690565b6000610d3a82611f69565b9050806001600160a01b0316836001600160a01b03161415610dc45760405162461bcd60e51b815260206004820152602160248201527f4552433732313a20617070726f76616c20746f2063757272656e74206f776e6560448201527f72000000000000000000000000000000000000000000000000000000000000006064820152608401610d0a565b336001600160a01b0382161480610de05750610de0813361338d565b610e525760405162461bcd60e51b815260206004820152603860248201527f4552433732313a20617070726f76652063616c6c6572206973206e6f74206f7760448201527f6e6572206e6f7220617070726f76656420666f7220616c6c00000000000000006064820152608401610d0a565b610e5c8383613605565b505050565b600060118383604051610e75929190615088565b90815260200160405180910390205460001415610ed45760405162461bcd60e51b815260206004820152601960248201527f636f6e74656e74732069642073686f756c6420657869737420000000000000006044820152606401610d0a565b600060118484604051610ee8929190615088565b9081526020016040518091039020549050610f1a816000908152600360205260409020546001600160a01b0316151590565b610f665760405162461bcd60e51b815260206004820181905260248201527f436f6e74656e7473546f6b656e3a206e6f6e6578697374656e7420746f6b656e6044820152606401610d0a565b9392505050565b610f773382613673565b610fe95760405162461bcd60e51b815260206004820152603160248201527f4552433732313a207472616e736665722063616c6c6572206973206e6f74206f60448201527f776e6572206e6f7220617070726f7665640000000000000000000000000000006064820152608401610d0a565b610e5c83838361374a565b6000546001600160a01b03163314806110175750601b546001600160a01b031633145b6110725760405162461bcd60e51b815260206004820152602660248201527f436f6e74656e7473546f6b656e3a2063616c6c6572206973206e6f74207468656044820152651030b236b4b760d11b6064820152608401610d0a565b6001600160a01b03166000908152601d60205260409020805460ff19166001179055565b60006110a183612070565b82106111155760405162461bcd60e51b815260206004820152602b60248201527f455243373231456e756d657261626c653a206f776e657220696e646578206f7560448201527f74206f6620626f756e64730000000000000000000000000000000000000000006064820152608401610d0a565b506001600160a01b03919091166000908152600760209081526040808320938352929052205490565b6000818152600360205260409020546060906001600160a01b03166111a55760405162461bcd60e51b815260206004820181905260248201527f436f6e74656e7473546f6b656e3a206e6f6e6578697374656e7420746f6b656e6044820152606401610d0a565b600082815260106020526040902080546111be90615666565b80601f01602080910402602001604051908101604052809291908181526020018280546111ea90615666565b80156112375780601f1061120c57610100808354040283529160200191611237565b820191906000526020600020905b81548152906001019060200180831161121a57829003601f168201915b50505050509050919050565b610e5c83838360405180602001604052806000815250612bcb565b6000546001600160a01b03163314806112815750601b546001600160a01b031633145b6112dc5760405162461bcd60e51b815260206004820152602660248201527f436f6e74656e7473546f6b656e3a2063616c6c6572206973206e6f74207468656044820152651030b236b4b760d11b6064820152608401610d0a565b6000818152600360205260409020546001600160a01b03166113405760405162461bcd60e51b815260206004820181905260248201527f436f6e74656e7473546f6b656e3a206e6f6e6578697374656e7420746f6b656e6044820152606401610d0a565b61134981613909565b60405181907f2757a0113ded6b405fde2663a485eba455ba82c18e36543205ba89e6a476a44b90600090a250565b6113ee604051806101600160405280606081526020016060815260200160608152602001606081526020016060815260200160006001600160a01b0316815260200160006001600160a01b03168152602001600061ffff168152602001600061ffff16815260200160608152602001606081525090565b6000828152600360205260409020546001600160a01b03166114525760405162461bcd60e51b815260206004820181905260248201527f436f6e74656e7473546f6b656e3a206e6f6e6578697374656e7420746f6b656e6044820152606401610d0a565b600082815260126020526040908190208151610160810190925280548290829061147b90615666565b80601f01602080910402602001604051908101604052809291908181526020018280546114a790615666565b80156114f45780601f106114c9576101008083540402835291602001916114f4565b820191906000526020600020905b8154815290600101906020018083116114d757829003601f168201915b5050505050815260200160018201805461150d90615666565b80601f016020809104026020016040519081016040528092919081815260200182805461153990615666565b80156115865780601f1061155b57610100808354040283529160200191611586565b820191906000526020600020905b81548152906001019060200180831161156957829003601f168201915b5050505050815260200160028201805461159f90615666565b80601f01602080910402602001604051908101604052809291908181526020018280546115cb90615666565b80156116185780601f106115ed57610100808354040283529160200191611618565b820191906000526020600020905b8154815290600101906020018083116115fb57829003601f168201915b5050505050815260200160038201805461163190615666565b80601f016020809104026020016040519081016040528092919081815260200182805461165d90615666565b80156116aa5780601f1061167f576101008083540402835291602001916116aa565b820191906000526020600020905b81548152906001019060200180831161168d57829003601f168201915b505050505081526020016004820180546116c390615666565b80601f01602080910402602001604051908101604052809291908181526020018280546116ef90615666565b801561173c5780601f106117115761010080835404028352916020019161173c565b820191906000526020600020905b81548152906001019060200180831161171f57829003601f168201915b505050918352505060058201546001600160a01b0390811660208301526006830154908116604083015261ffff600160a01b820481166060840152600160b01b90910416608082015260078201805460a09092019161179a90615666565b80601f01602080910402602001604051908101604052809291908181526020018280546117c690615666565b80156118135780601f106117e857610100808354040283529160200191611813565b820191906000526020600020905b8154815290600101906020018083116117f657829003601f168201915b5050505050815260200160088201805461182c90615666565b80601f016020809104026020016040519081016040528092919081815260200182805461185890615666565b80156118a55780601f1061187a576101008083540402835291602001916118a5565b820191906000526020600020905b81548152906001019060200180831161188857829003601f168201915b5050505050815250509050919050565b60006118c060095490565b82106119345760405162461bcd60e51b815260206004820152602c60248201527f455243373231456e756d657261626c653a20676c6f62616c20696e646578206f60448201527f7574206f6620626f756e647300000000000000000000000000000000000000006064820152608401610d0a565b60098281548110611947576119476156fe565b90600052602060002001549050919050565b6001600160a01b038082166000908152600b602052604081205490911680156119825780610f66565b5090919050565b6000818152600360205260409020546060906001600160a01b0316611a165760405162461bcd60e51b815260206004820152602e60248201527f436f6e74656e7473546f6b656e3a2055524920717565727920666f72206e6f6e60448201527f6578697374656e7420746f6b656e0000000000000000000000000000000000006064820152608401610d0a565b60008281526012602052604080822081516101608101909252805482908290611a3e90615666565b80601f0160208091040260200160405190810160405280929190818152602001828054611a6a90615666565b8015611ab75780601f10611a8c57610100808354040283529160200191611ab7565b820191906000526020600020905b815481529060010190602001808311611a9a57829003601f168201915b50505050508152602001600182018054611ad090615666565b80601f0160208091040260200160405190810160405280929190818152602001828054611afc90615666565b8015611b495780601f10611b1e57610100808354040283529160200191611b49565b820191906000526020600020905b815481529060010190602001808311611b2c57829003601f168201915b50505050508152602001600282018054611b6290615666565b80601f0160208091040260200160405190810160405280929190818152602001828054611b8e90615666565b8015611bdb5780601f10611bb057610100808354040283529160200191611bdb565b820191906000526020600020905b815481529060010190602001808311611bbe57829003601f168201915b50505050508152602001600382018054611bf490615666565b80601f0160208091040260200160405190810160405280929190818152602001828054611c2090615666565b8015611c6d5780601f10611c4257610100808354040283529160200191611c6d565b820191906000526020600020905b815481529060010190602001808311611c5057829003601f168201915b50505050508152602001600482018054611c8690615666565b80601f0160208091040260200160405190810160405280929190818152602001828054611cb290615666565b8015611cff5780601f10611cd457610100808354040283529160200191611cff565b820191906000526020600020905b815481529060010190602001808311611ce257829003601f168201915b505050918352505060058201546001600160a01b0390811660208301526006830154908116604083015261ffff600160a01b820481166060840152600160b01b90910416608082015260078201805460a090920191611d5d90615666565b80601f0160208091040260200160405190810160405280929190818152602001828054611d8990615666565b8015611dd65780601f10611dab57610100808354040283529160200191611dd6565b820191906000526020600020905b815481529060010190602001808311611db957829003601f168201915b50505050508152602001600882018054611def90615666565b80601f0160208091040260200160405190810160405280929190818152602001828054611e1b90615666565b8015611e685780601f10611e3d57610100808354040283529160200191611e68565b820191906000526020600020905b815481529060010190602001808311611e4b57829003601f168201915b505050505081525050905060008160400151604051602001611e8a9190615098565b60405160208183030381529060405290506000826101400151604051602001611eb39190615098565b60408051601f1981840301815282825260008881526010602090815292812091945092611ee49260139291016150b4565b6040516020818303038152906040529050611f21838383604051602001611f0d939291906150c9565b6040516020818303038152906040526139b0565b604051602001611f3191906151b3565b604051602081830303815290604052945050505050919050565b6001600160a01b038116611f5c5750335b611f663382613b4d565b50565b6000818152600360205260408120546001600160a01b031680610b6f5760405162461bcd60e51b815260206004820152602960248201527f4552433732313a206f776e657220717565727920666f72206e6f6e657869737460448201527f656e7420746f6b656e00000000000000000000000000000000000000000000006064820152608401610d0a565b6000546001600160a01b0316331461204e5760405162461bcd60e51b815260206004820181905260248201527f4f776e61626c653a2063616c6c6572206973206e6f7420746865206f776e65726044820152606401610d0a565b601b80546001600160a01b0319166001600160a01b0392909216919091179055565b60006001600160a01b0382166120ee5760405162461bcd60e51b815260206004820152602a60248201527f4552433732313a2062616c616e636520717565727920666f7220746865207a6560448201527f726f2061646472657373000000000000000000000000000000000000000000006064820152608401610d0a565b506001600160a01b031660009081526004602052604090205490565b6000546001600160a01b031633146121645760405162461bcd60e51b815260206004820181905260248201527f4f776e61626c653a2063616c6c6572206973206e6f7420746865206f776e65726044820152606401610d0a565b61216e6000613bcd565b565b60004382106121e75760405162461bcd60e51b815260206004820152603760248201527f455243373231436865636b706f696e7461626c653a3a6765745072696f72566f60448201527f7465733a206e6f74207965742064657465726d696e65640000000000000000006064820152608401610d0a565b6001600160a01b0383166000908152600d602052604090205463ffffffff1680612215576000915050610b6f565b6001600160a01b0384166000908152600c60205260408120849161223a6001856154ee565b63ffffffff908116825260208201929092526040016000205416116122ae576001600160a01b0384166000908152600c602052604081209061227d6001846154ee565b63ffffffff16815260208101919091526040016000205464010000000090046001600160601b03169150610b6f9050565b6001600160a01b0384166000908152600c6020908152604080832083805290915290205463ffffffff168310156122e9576000915050610b6f565b6000806122f76001846154ee565b90505b8163ffffffff168163ffffffff1611156123ca576000600261231c84846154ee565b6123269190615495565b61233090836154ee565b6001600160a01b0388166000908152600c6020908152604080832063ffffffff8581168552908352928190208151808301909252549283168082526401000000009093046001600160601b03169181019190915291925087141561239e57602001519450610b6f9350505050565b805163ffffffff168711156123b5578193506123c3565b6123c06001836154ee565b92505b50506122fa565b506001600160a01b0385166000908152600c6020908152604080832063ffffffff909416835292905220546001600160601b036401000000009091041691505092915050565b6000546001600160a01b03163314806124335750601b546001600160a01b031633145b61248e5760405162461bcd60e51b815260206004820152602660248201527f436f6e74656e7473546f6b656e3a2063616c6c6572206973206e6f74207468656044820152651030b236b4b760d11b6064820152608401610d0a565b60208101518151116125085760405162461bcd60e51b815260206004820152602760248201527f4d6178207072696365206d757374206265206c6172676572207468616e204d6960448201527f6e205072696365000000000000000000000000000000000000000000000000006064820152608401610d0a565b805160165560208101516017556040810151601855606081015160195560800151601a55565b6000546001600160a01b03163314806125515750601b546001600160a01b031633145b6125ac5760405162461bcd60e51b815260206004820152602660248201527f436f6e74656e7473546f6b656e3a2063616c6c6572206973206e6f74207468656044820152651030b236b4b760d11b6064820152608401610d0a565b600f546040516001600160a01b039091169081904780156108fc02916000818181858888f193505050501580156125e7573d6000803e3d6000fd5b5050565b606060028054610c1290615666565b6001600160a01b0382163314156126535760405162461bcd60e51b815260206004820152601960248201527f4552433732313a20617070726f766520746f2063616c6c6572000000000000006044820152606401610d0a565b3360008181526006602090815260408083206001600160a01b03871680855290835292819020805460ff191686151590811790915590519081529192917f17307eab39ab6107e8899845ad3d59bd9653f200f220920489ca2b5937696c31910160405180910390a35050565b6126f16040518060a0016040528060008152602001600081526020016000815260200160008152602001600081525090565b506040805160a08101825260165481526017546020820152601854918101919091526019546060820152601a54608082015290565b600061273185613c1d565b6001600160a01b0385166000908152601d602052604090205460ff166127995760405162461bcd60e51b815260206004820152601a60248201527f77726f6e6720617574686f7269747920737065636966696564200000000000006044820152606401610d0a565b601184846040516127ab929190615088565b9081526020016040518091039020546000146128095760405162461bcd60e51b815260206004820152601660248201527f616c726561647920636f6e74656e7473206578697374000000000000000000006044820152606401610d0a565b3361281a60c0840160a08501614bb8565b6001600160a01b0316146128705760405162461bcd60e51b815260206004820152601f60248201527f617474722e736f756c626f756e642073686f756c64206265206d696e746572006044820152606401610d0a565b6001600160a01b03861661288a60e0840160c08501614bb8565b6001600160a01b0316146129065760405162461bcd60e51b815260206004820152602960248201527f617474722e63726561746f722073686f756c642062652073616d65206173207460448201527f6f206164647265737300000000000000000000000000000000000000000000006064820152608401610d0a565b6040517fb4b5ea5700000000000000000000000000000000000000000000000000000000815233600482015285906000906001600160a01b0383169063b4b5ea579060240160206040518083038186803b15801561296357600080fd5b505afa158015612977573d6000803e3d6000fd5b505050506040513d601f19601f8201168201806040525081019061299b9190614fc4565b90506129a633613c1d565b6129b8816001600160601b0316613c7e565b806001600160601b0316600010612a375760405162461bcd60e51b815260206004820152602260248201527f6d696e7465722073686f756c64206861766520617574686f7269747920746f6b60448201527f656e0000000000000000000000000000000000000000000000000000000000006064820152608401610d0a565b612a4088613c1d565b612a7f86868080601f016020809104026020016040519081016040528093929190818152602001838380828437600092019190915250613cdc92505050565b6014805460009182612a90836156a1565b909155506000818152601060205260409020909150612ab0908888614ad6565b508060118888604051612ac4929190615088565b90815260408051602092819003830190209290925560008381526012909152208590612af0828261574b565b905050612afe338a83613d38565b612b0781613ece565b807fd65e611c47ed317c9510e8773db7b16980fff4e3c3052ee1aa612022ea6c52138888604051612b39929190615234565b60405180910390a298975050505050505050565b6001600160a01b0381166000908152600d602052604081205463ffffffff1680612b78576000610f66565b6001600160a01b0383166000908152600c6020526040812090612b9c6001846154ee565b63ffffffff16815260208101919091526040016000205464010000000090046001600160601b03169392505050565b612bd53383613673565b612c475760405162461bcd60e51b815260206004820152603160248201527f4552433732313a207472616e736665722063616c6c6572206973206e6f74206f60448201527f776e6572206e6f7220617070726f7665640000000000000000000000000000006064820152608401610d0a565b612c5384848484613f7c565b50505050565b6000546001600160a01b0316331480612c7c5750601b546001600160a01b031633145b612cd75760405162461bcd60e51b815260206004820152602660248201527f436f6e74656e7473546f6b656e3a2063616c6c6572206973206e6f74207468656044820152651030b236b4b760d11b6064820152608401610d0a565b600f80546001600160a01b0319166001600160a01b0392909216919091179055565b60007f8cad95687ba82c2ce50e74f7b754645e5117c3a5bec8151c0726d5857980a866612d24610c03565b80519060200120612d324690565b60408051602080820195909552808201939093526060830191909152306080808401919091528151808403909101815260a0830182528051908401207fe48329057bfd03d55e49b547132e39cffd9c1820ad7b9d4c5307691425d15adf60c08401526001600160a01b038b1660e084015261010083018a90526101208084018a9052825180850390910181526101408401909252815191909301207f1901000000000000000000000000000000000000000000000000000000000000610160830152610162820183905261018282018190529192506000906101a20160408051601f198184030181528282528051602091820120600080855291840180845281905260ff8a169284019290925260608301889052608083018790529092509060019060a0016020604051602081039080840390855afa158015612e79573d6000803e3d6000fd5b5050604051601f1901519150506001600160a01b038116612f025760405162461bcd60e51b815260206004820152603660248201527f455243373231436865636b706f696e7461626c653a3a64656c6567617465427960448201527f5369673a20696e76616c6964207369676e6174757265000000000000000000006064820152608401610d0a565b6001600160a01b0381166000908152600e60205260408120805491612f26836156a1565b919050558914612f9e5760405162461bcd60e51b815260206004820152603260248201527f455243373231436865636b706f696e7461626c653a3a64656c6567617465427960448201527f5369673a20696e76616c6964206e6f6e636500000000000000000000000000006064820152608401610d0a565b874211156130145760405162461bcd60e51b815260206004820152603660248201527f455243373231436865636b706f696e7461626c653a3a64656c6567617465427960448201527f5369673a207369676e61747572652065787069726564000000000000000000006064820152608401610d0a565b61301e818b613b4d565b505050505b505050505050565b6000818152600360205260408120546001600160a01b031661308f5760405162461bcd60e51b815260206004820181905260248201527f436f6e74656e7473546f6b656e3a206e6f6e6578697374656e7420746f6b656e6044820152606401610d0a565b5060009081526015602052604090205490565b6000818152600360205260409020546060906001600160a01b031661312f5760405162461bcd60e51b815260206004820152602e60248201527f436f6e74656e7473546f6b656e3a2055524920717565727920666f72206e6f6e60448201527f6578697374656e7420746f6b656e0000000000000000000000000000000000006064820152608401610d0a565b610b6f82611989565b6000818152600360205260408120546001600160a01b031661319c5760405162461bcd60e51b815260206004820181905260248201527f436f6e74656e7473546f6b656e3a206e6f6e6578697374656e7420746f6b656e6044820152606401610d0a565b506000908152601c602052604090205490565b6000806131bb83611f69565b90503360006131c985614005565b90506001600160a01b03831630146132235760405162461bcd60e51b815260206004820152601960248201527f4f776e6572206973206e6f742074686520636f6e7472616374000000000000006044820152606401610d0a565b803410156132735760405162461bcd60e51b815260206004820152601f60248201527f4d7573742073656e64206174206c656173742063757272656e745072696365006044820152606401610d0a565b6000858152601c6020526040902034905561328e8286614086565b6040516001600160a01b038316815285907fcea84a055be98579a3bbf30656e70aab0e5a3bf3f8245b26ddd604847681bde59060200160405180910390a2506001949350505050565b6000546001600160a01b03163314806132fa5750601b546001600160a01b031633145b6133555760405162461bcd60e51b815260206004820152602660248201527f436f6e74656e7473546f6b656e3a2063616c6c6572206973206e6f74207468656044820152651030b236b4b760d11b6064820152608401610d0a565b610e5c60138383614ad6565b6000610b6f61336f83612070565b6040518060600160405280603d8152602001615a06603d9139614232565b6040517fc45527910000000000000000000000000000000000000000000000000000000081526001600160a01b038381166004830152600091818416917f0000000000000000000000000000000000000000000000000000000000000000169063c45527919060240160206040518083038186803b15801561340e57600080fd5b505afa158015613422573d6000803e3d6000fd5b505050506040513d601f19601f820116820180604052508101906134469190614bd5565b6001600160a01b0316141561345d57506001610b6f565b6001600160a01b0380841660009081526006602090815260408083209386168352929052205460ff16610f66565b6000546001600160a01b031633146134e55760405162461bcd60e51b815260206004820181905260248201527f4f776e61626c653a2063616c6c6572206973206e6f7420746865206f776e65726044820152606401610d0a565b6001600160a01b0381166135615760405162461bcd60e51b815260206004820152602660248201527f4f776e61626c653a206e6577206f776e657220697320746865207a65726f206160448201527f64647265737300000000000000000000000000000000000000000000000000006064820152608401610d0a565b611f6681613bcd565b60006001600160e01b031982167f80ac58cd0000000000000000000000000000000000000000000000000000000014806135cd57506001600160e01b031982167f5b5e139f00000000000000000000000000000000000000000000000000000000145b80610b6f57507f01ffc9a7000000000000000000000000000000000000000000000000000000006001600160e01b0319831614610b6f565b600081815260056020526040902080546001600160a01b0319166001600160a01b038416908117909155819061363a82611f69565b6001600160a01b03167f8c5be1e5ebec7d5bd14f71427d1e84f3dd0314c0f7b2291e5b200ac8c7c3b92560405160405180910390a45050565b6000818152600360205260408120546001600160a01b03166136ec5760405162461bcd60e51b815260206004820152602c60248201527f4552433732313a206f70657261746f7220717565727920666f72206e6f6e657860448201526b34b9ba32b73a103a37b5b2b760a11b6064820152608401610d0a565b60006136f783611f69565b9050806001600160a01b0316846001600160a01b031614806137325750836001600160a01b031661372784610c95565b6001600160a01b0316145b806137425750613742818561338d565b949350505050565b826001600160a01b031661375d82611f69565b6001600160a01b0316146137d95760405162461bcd60e51b815260206004820152602960248201527f4552433732313a207472616e73666572206f6620746f6b656e2074686174206960448201527f73206e6f74206f776e00000000000000000000000000000000000000000000006064820152608401610d0a565b6001600160a01b03821661383b5760405162461bcd60e51b8152602060048201526024808201527f4552433732313a207472616e7366657220746f20746865207a65726f206164646044820152637265737360e01b6064820152608401610d0a565b61384683838361426a565b613851600082613605565b6001600160a01b038316600090815260046020526040812080546001929061387a9084906154d7565b90915550506001600160a01b03821660009081526004602052604081208054600192906138a890849061541f565b909155505060008181526003602052604080822080546001600160a01b0319166001600160a01b0386811691821790925591518493918716917fddf252ad1be2c89b69c2b068fc378daa952ba7f163c4a11628f55a4df523b3ef91a4505050565b600061391482611f69565b90506139228160008461426a565b61392d600083613605565b6001600160a01b03811660009081526004602052604081208054600192906139569084906154d7565b909155505060008281526003602052604080822080546001600160a01b0319169055518391906001600160a01b038416907fddf252ad1be2c89b69c2b068fc378daa952ba7f163c4a11628f55a4df523b3ef908390a45050565b60608151600014156139d057505060408051602081019091526000815290565b60006040518060600160405280604081526020016159c660409139905060006003845160026139ff919061541f565b613a099190615481565b613a149060046154b8565b90506000613a2382602061541f565b67ffffffffffffffff811115613a3b57613a3b615714565b6040519080825280601f01601f191660200182016040528015613a65576020820181803683370190505b509050818152600183018586518101602084015b81831015613ad1576003830192508251603f8160121c168501518253600182019150603f81600c1c168501518253600182019150603f8160061c168501518253600182019150603f8116850151825350600101613a79565b600389510660018114613aeb5760028114613b1757613b3f565b7f3d3d000000000000000000000000000000000000000000000000000000000000600119830152613b3f565b7f3d000000000000000000000000000000000000000000000000000000000000006000198301525b509398975050505050505050565b6000613b5883611959565b6001600160a01b038481166000818152600b602052604080822080546001600160a01b031916888616908117909155905194955093928516927f3134e8a2e6d97e929a7e54011ea5485d7d196dd5f0ba4d4ef95803e8e3fc257f9190a46000613bc084613361565b9050612c5382848361428d565b600080546001600160a01b038381166001600160a01b0319831681178455604051919092169283917f8be0079c531659141344cd1fd0a4f28419497f9722a3daafe3b4186f6b6457e09190a35050565b6040516001600160a01b0382166024820152611f669060440160408051601f198184030181529190526020810180516001600160e01b03167f2c2ecbc20000000000000000000000000000000000000000000000000000000017905261443b565b611f6681604051602401613c9491815260200190565b60408051601f198184030181529190526020810180516001600160e01b03167ff5b1bba90000000000000000000000000000000000000000000000000000000017905261443b565b611f6681604051602401613cf09190615263565b60408051601f198184030181529190526020810180516001600160e01b03167f41304fac0000000000000000000000000000000000000000000000000000000017905261443b565b6001600160a01b038216613d8e5760405162461bcd60e51b815260206004820181905260248201527f4552433732313a206d696e7420746f20746865207a65726f20616464726573736044820152606401610d0a565b6000818152600360205260409020546001600160a01b031615613df35760405162461bcd60e51b815260206004820152601c60248201527f4552433732313a20746f6b656e20616c7265616479206d696e746564000000006044820152606401610d0a565b613dff6000838361426a565b6001600160a01b0382166000908152600460205260408120805460019290613e2890849061541f565b909155505060008181526003602052604080822080546001600160a01b0319166001600160a01b03868116919091179091559051839291861691907fddf252ad1be2c89b69c2b068fc378daa952ba7f163c4a11628f55a4df523b3ef908290a480826001600160a01b0316846001600160a01b03167fddf252ad1be2c89b69c2b068fc378daa952ba7f163c4a11628f55a4df523b3ef60405160405180910390a4505050565b6000818152600360205260409020546001600160a01b0316613f325760405162461bcd60e51b815260206004820181905260248201527f436f6e74656e7473546f6b656e3a206e6f6e6578697374656e7420746f6b656e6044820152606401610d0a565b600081815260156020908152604091829020429081905591519182527f821964bd9a1d2293691ad21ae7e91848254493a40c1c13fc88e032e6a14a94c9910160405180910390a150565b613f8784848461374a565b613f938484848461445c565b612c535760405162461bcd60e51b815260206004820152603260248201527f4552433732313a207472616e7366657220746f206e6f6e20455243373231526560448201527f63656976657220696d706c656d656e74657200000000000000000000000000006064820152608401610d0a565b600081815260156020526040812054819061402090426154d7565b601954909150811015614037575050601654919050565b6018546019546000919061404b9084615481565b61405591906154b8565b601754601654919250614067916154d7565b811061407857505060175492915050565b6016546137429082906154d7565b308061409183611f69565b6001600160a01b03161461410d5760405162461bcd60e51b815260206004820152602d60248201527f4552433732313a207472616e73666572206f6620746f6b656e2074686174206960448201527f73206e6f742061646472657373000000000000000000000000000000000000006064820152608401610d0a565b6001600160a01b03831661416f5760405162461bcd60e51b8152602060048201526024808201527f4552433732313a207472616e7366657220746f20746865207a65726f206164646044820152637265737360e01b6064820152608401610d0a565b61417a81848461426a565b6001600160a01b03811660009081526004602052604081208054600192906141a39084906154d7565b90915550506001600160a01b03831660009081526004602052604081208054600192906141d190849061541f565b909155505060008281526003602052604080822080546001600160a01b0319166001600160a01b0387811691821790925591518593918516917fddf252ad1be2c89b69c2b068fc378daa952ba7f163c4a11628f55a4df523b3ef91a4505050565b6000816c0100000000000000000000000084106142625760405162461bcd60e51b8152600401610d0a9190615263565b509192915050565b6142758383836145bf565b610e5c61428184611959565b61428a84611959565b60015b816001600160a01b0316836001600160a01b0316141580156142b857506000816001600160601b0316115b15610e5c576001600160a01b0383161561437e576001600160a01b0383166000908152600d602052604081205463ffffffff1690816142f8576000614345565b6001600160a01b0385166000908152600c602052604081209061431c6001856154ee565b63ffffffff16815260208101919091526040016000205464010000000090046001600160601b03165b9050600061436c8285604051806060016040528060378152602001615a4360379139614677565b905061437a868484846146b9565b5050505b6001600160a01b03821615610e5c576001600160a01b0382166000908152600d602052604081205463ffffffff1690816143b9576000614406565b6001600160a01b0384166000908152600c60205260408120906143dd6001856154ee565b63ffffffff16815260208101919091526040016000205464010000000090046001600160601b03165b9050600061442d828560405180606001604052806036815260200161594c603691396148d1565b9050613023858484846146b9565b80516a636f6e736f6c652e6c6f67602083016000808483855afa5050505050565b60006001600160a01b0384163b156145b457604051630a85bd0160e11b81526001600160a01b0385169063150b7a02906144a09033908990889088906004016151f8565b602060405180830381600087803b1580156144ba57600080fd5b505af19250505080156144ea575060408051601f3d908101601f191682019092526144e791810190614edc565b60015b61459a573d808015614518576040519150601f19603f3d011682016040523d82523d6000602084013e61451d565b606091505b5080516145925760405162461bcd60e51b815260206004820152603260248201527f4552433732313a207472616e7366657220746f206e6f6e20455243373231526560448201527f63656976657220696d706c656d656e74657200000000000000000000000000006064820152608401610d0a565b805181602001fd5b6001600160e01b031916630a85bd0160e11b149050613742565b506001949350505050565b6001600160a01b03831661461a5761461581600980546000838152600a60205260408120829055600182018355919091527f6e1540171b6c0c960b71a7020d9f60077f6af931a8bbf590da0223dacf75c7af0155565b61463d565b816001600160a01b0316836001600160a01b03161461463d5761463d838261491e565b6001600160a01b03821661465457610e5c816149bb565b826001600160a01b0316826001600160a01b031614610e5c57610e5c8282614a6a565b6000836001600160601b0316836001600160601b0316111582906146ae5760405162461bcd60e51b8152600401610d0a9190615263565b506137428385615513565b60006146dd4360405180608001604052806044815260200161598260449139614aae565b905060008463ffffffff1611801561473757506001600160a01b0385166000908152600c6020526040812063ffffffff83169161471b6001886154ee565b63ffffffff908116825260208201929092526040016000205416145b156147bb576001600160a01b0385166000908152600c6020526040812083916147616001886154ee565b63ffffffff168152602081019190915260400160002080546001600160601b0392909216640100000000027fffffffffffffffffffffffffffffffff000000000000000000000000ffffffff90921691909117905561487c565b60408051808201825263ffffffff80841682526001600160601b0380861660208085019182526001600160a01b038b166000908152600c82528681208b8616825290915294909420925183549451909116640100000000027fffffffffffffffffffffffffffffffff0000000000000000000000000000000090941691161791909117905561484b846001615437565b6001600160a01b0386166000908152600d60205260409020805463ffffffff191663ffffffff929092169190911790555b604080516001600160601b038086168252841660208201526001600160a01b038716917fdec2bacdd2f05b59de34da9b523dff8be42e5e38e818c82fdb0bae774387a724910160405180910390a25050505050565b6000806148de848661545f565b9050846001600160601b0316816001600160601b0316101583906149155760405162461bcd60e51b8152600401610d0a9190615263565b50949350505050565b6000600161492b84612070565b61493591906154d7565b600083815260086020526040902054909150808214614988576001600160a01b03841660009081526007602090815260408083208584528252808320548484528184208190558352600890915290208190555b5060009182526008602090815260408084208490556001600160a01b039094168352600781528383209183525290812055565b6009546000906149cd906001906154d7565b6000838152600a6020526040812054600980549394509092849081106149f5576149f56156fe565b906000526020600020015490508060098381548110614a1657614a166156fe565b6000918252602080832090910192909255828152600a90915260408082208490558582528120556009805480614a4e57614a4e6156e8565b6001900381819060005260206000200160009055905550505050565b6000614a7583612070565b6001600160a01b039093166000908152600760209081526040808320868452825280832085905593825260089052919091209190915550565b60008164010000000084106142625760405162461bcd60e51b8152600401610d0a9190615263565b828054614ae290615666565b90600052602060002090601f016020900481019282614b045760008555614b4a565b82601f10614b1d5782800160ff19823516178555614b4a565b82800160010185558215614b4a579182015b82811115614b4a578235825591602001919060010190614b2f565b50614b56929150614b5a565b5090565b5b80821115614b565760008155600101614b5b565b60008083601f840112614b8157600080fd5b50813567ffffffffffffffff811115614b9957600080fd5b602083019150836020828501011115614bb157600080fd5b9250929050565b600060208284031215614bca57600080fd5b8135610f6681615920565b600060208284031215614be757600080fd5b8151610f6681615920565b60008060408385031215614c0557600080fd5b8235614c1081615920565b91506020830135614c2081615920565b809150509250929050565b600080600080600060808688031215614c4357600080fd5b8535614c4e81615920565b94506020860135614c5e81615920565b9350604086013567ffffffffffffffff80821115614c7b57600080fd5b614c8789838a01614b6f565b90955093506060880135915080821115614ca057600080fd5b5086016101608189031215614cb457600080fd5b809150509295509295909350565b600080600060608486031215614cd757600080fd5b8335614ce281615920565b92506020840135614cf281615920565b929592945050506040919091013590565b60008060008060808587031215614d1957600080fd5b8435614d2481615920565b9350602085810135614d3581615920565b935060408601359250606086013567ffffffffffffffff80821115614d5957600080fd5b818801915088601f830112614d6d57600080fd5b813581811115614d7f57614d7f615714565b614d91601f8201601f191685016153ee565b91508082528984828501011115614da757600080fd5b808484018584013760008482840101525080935050505092959194509250565b60008060408385031215614dda57600080fd5b8235614de581615920565b915060208301358015158114614c2057600080fd5b60008060408385031215614e0d57600080fd5b8235614e1881615920565b946020939093013593505050565b60008060008060008060c08789031215614e3f57600080fd5b8635614e4a81615920565b95506020870135945060408701359350606087013560ff81168114614e6e57600080fd5b9598949750929560808101359460a0909101359350915050565b60008060408385031215614e9b57600080fd5b8235614ea681615920565b9150602083013563ffffffff81168114614c2057600080fd5b600060208284031215614ed157600080fd5b8135610f6681615935565b600060208284031215614eee57600080fd5b8151610f6681615935565b60008060208385031215614f0c57600080fd5b823567ffffffffffffffff811115614f2357600080fd5b614f2f85828601614b6f565b90969095509350505050565b600060a08284031215614f4d57600080fd5b60405160a0810181811067ffffffffffffffff82111715614f7057614f70615714565b806040525082358152602083013560208201526040830135604082015260608301356060820152608083013560808201528091505092915050565b600060208284031215614fbd57600080fd5b5035919050565b600060208284031215614fd657600080fd5b81516001600160601b0381168114610f6657600080fd5b6000815180845261500581602086016020860161563a565b601f01601f19169290920160200192915050565b6000815461502681615666565b6001828116801561503e576001811461504f5761507e565b60ff1984168752828701945061507e565b8560005260208060002060005b858110156150755781548a82015290840190820161505c565b50505082870194505b5050505092915050565b8183823760009101908152919050565b600082516150aa81846020870161563a565b9190910192915050565b60006137426150c38386615019565b84615019565b7f7b226e616d65223a22000000000000000000000000000000000000000000000081526000845161510181600985016020890161563a565b7f222c20226465736372697074696f6e223a220000000000000000000000000000600991840191820152845161513e81601b84016020890161563a565b7f222c2022696d616765223a202200000000000000000000000000000000000000601b9290910191820152835161517c81602884016020880161563a565b7f227d00000000000000000000000000000000000000000000000000000000000060289290910191820152602a0195945050505050565b7f646174613a6170706c69636174696f6e2f6a736f6e3b6261736536342c0000008152600082516151eb81601d85016020870161563a565b91909101601d0192915050565b60006001600160a01b0380871683528086166020840152508360408301526080606083015261522a6080830184614fed565b9695505050505050565b60208152816020820152818360408301376000818301604090810191909152601f909201601f19160101919050565b602081526000610f666020830184614fed565b6020815260008251610160806020850152615295610180850183614fed565b91506020850151601f19808685030160408701526152b38483614fed565b935060408701519150808685030160608701526152d08483614fed565b935060608701519150808685030160808701526152ed8483614fed565b935060808701519150808685030160a087015261530a8483614fed565b935060a0870151915061532860c08701836001600160a01b03169052565b60c08701516001600160a01b03811660e0880152915060e087015191506101006153578188018461ffff169052565b870151915061012061536e8782018461ffff169052565b8088015192505061014081878603018188015261538b8584614fed565b90880151878203909201848801529350905061522a8382614fed565b6000808335601e198436030181126153be57600080fd5b83018035915067ffffffffffffffff8211156153d957600080fd5b602001915036819003821315614bb157600080fd5b604051601f8201601f1916810167ffffffffffffffff8111828210171561541757615417615714565b604052919050565b60008219821115615432576154326156bc565b500190565b600063ffffffff808316818516808303821115615456576154566156bc565b01949350505050565b60006001600160601b03808316818516808303821115615456576154566156bc565b600082615490576154906156d2565b500490565b600063ffffffff808416806154ac576154ac6156d2565b92169190910492915050565b60008160001904831182151516156154d2576154d26156bc565b500290565b6000828210156154e9576154e96156bc565b500390565b600063ffffffff8381169083168181101561550b5761550b6156bc565b039392505050565b60006001600160601b038381169083168181101561550b5761550b6156bc565b601f821115610e5c57600081815260208120601f850160051c8101602086101561555a5750805b601f850160051c820191505b8181101561302357828155600101615566565b67ffffffffffffffff83111561559157615591615714565b6155a58361559f8354615666565b83615533565b6000601f8411600181146155d957600085156155c15750838201355b600019600387901b1c1916600186901b178355615633565b600083815260209020601f19861690835b8281101561560a57868501358255602094850194600190920191016155ea565b50868210156156275760001960f88860031b161c19848701351681555b505060018560011b0183555b5050505050565b60005b8381101561565557818101518382015260200161563d565b83811115612c535750506000910152565b600181811c9082168061567a57607f821691505b6020821081141561569b57634e487b7160e01b600052602260045260246000fd5b50919050565b60006000198214156156b5576156b56156bc565b5060010190565b634e487b7160e01b600052601160045260246000fd5b634e487b7160e01b600052601260045260246000fd5b634e487b7160e01b600052603160045260246000fd5b634e487b7160e01b600052603260045260246000fd5b634e487b7160e01b600052604160045260246000fd5b60008135610b6f81615920565b6000813561ffff81168114610b6f57600080fd5b61575582836153a7565b615760818385615579565b505061576f60208301836153a7565b61577d818360018601615579565b505061578c60408301836153a7565b61579a818360028601615579565b50506157a960608301836153a7565b6157b7818360038601615579565b50506157c660808301836153a7565b6157d4818360048601615579565b50506158066157e560a0840161572a565b600583016001600160a01b0382166001600160a01b03198254161781555050565b6006810161583661581960c0850161572a565b82546001600160a01b0319166001600160a01b0391909116178255565b61588c61584560e08501615737565b82547fffffffffffffffffffff0000ffffffffffffffffffffffffffffffffffffffff1660a09190911b75ffff000000000000000000000000000000000000000016178255565b6158e561589c6101008501615737565b82547fffffffffffffffff0000ffffffffffffffffffffffffffffffffffffffffffff1660b09190911b77ffff0000000000000000000000000000000000000000000016178255565b506158f46101208301836153a7565b615902818360078601615579565b50506159126101408301836153a7565b612c53818360088601615579565b6001600160a01b0381168114611f6657600080fd5b6001600160e01b031981168114611f6657600080fdfe455243373231436865636b706f696e7461626c653a3a5f6d6f766544656c6567617465733a20616d6f756e74206f766572666c6f7773455243373231436865636b706f696e7461626c653a3a5f7772697465436865636b706f696e743a20626c6f636b206e756d626572206578636565647320333220626974734142434445464748494a4b4c4d4e4f505152535455565758595a6162636465666768696a6b6c6d6e6f707172737475767778797a303132333435363738392b2f455243373231436865636b706f696e7461626c653a3a766f746573546f44656c65676174653a20616d6f756e7420657863656564732039362062697473455243373231436865636b706f696e7461626c653a3a5f6d6f766544656c6567617465733a20616d6f756e7420756e646572666c6f7773a264697066735822122005a459f9d996d3ebbfed45d61b18954b7939a31ac8870f3e7702c5b45b48e56064736f6c63430008060033",
  "linkReferences": {},
  "deployedLinkReferences": {}
}