{
  "contractName": "NounsToken",
  "abi": [
    {
      "inputs": [
        {
          "internalType": "address",
          "name": "_minter",
          "type": "address"
        },
        {
          "internalType": "contract INounsDescriptor",
          "name": "_descriptor",
          "type": "address"
        },
        {
          "internalType": "contract INounsSeeder",
          "name": "_seeder",
          "type": "address"
        },
        {
          "internalType": "contract IProxyRegistry",
          "name": "_proxyRegistry",
          "type": "address"
        }
      ],
      "stateMutability": "nonpayable",
      "type": "constructor"
    },
    {
      "anonymous": false,
      "inputs": [
        {
          "indexed": true,
          "internalType": "address",
          "name": "owner",
          "type": "address"
        },
        {
          "indexed": true,
          "internalType": "address",
          "name": "approved",
          "type": "address"
        },
        {
          "indexed": true,
          "internalType": "uint256",
          "name": "tokenId",
          "type": "uint256"
        }
      ],
      "name": "Approval",
      "type": "event"
    },
    {
      "anonymous": false,
      "inputs": [
        {
          "indexed": true,
          "internalType": "address",
          "name": "owner",
          "type": "address"
        },
        {
          "indexed": true,
          "internalType": "address",
          "name": "operator",
          "type": "address"
        },
        {
          "indexed": false,
          "internalType": "bool",
          "name": "approved",
          "type": "bool"
        }
      ],
      "name": "ApprovalForAll",
      "type": "event"
    },
    {
      "anonymous": false,
      "inputs": [
        {
          "indexed": true,
          "internalType": "address",
          "name": "delegator",
          "type": "address"
        },
        {
          "indexed": true,
          "internalType": "address",
          "name": "fromDelegate",
          "type": "address"
        },
        {
          "indexed": true,
          "internalType": "address",
          "name": "toDelegate",
          "type": "address"
        }
      ],
      "name": "DelegateChanged",
      "type": "event"
    },
    {
      "anonymous": false,
      "inputs": [
        {
          "indexed": true,
          "internalType": "address",
          "name": "delegate",
          "type": "address"
        },
        {
          "indexed": false,
          "internalType": "uint256",
          "name": "previousBalance",
          "type": "uint256"
        },
        {
          "indexed": false,
          "internalType": "uint256",
          "name": "newBalance",
          "type": "uint256"
        }
      ],
      "name": "DelegateVotesChanged",
      "type": "event"
    },
    {
      "anonymous": false,
      "inputs": [],
      "name": "DescriptorLocked",
      "type": "event"
    },
    {
      "anonymous": false,
      "inputs": [
        {
          "indexed": false,
          "internalType": "contract INounsDescriptor",
          "name": "descriptor",
          "type": "address"
        }
      ],
      "name": "DescriptorUpdated",
      "type": "event"
    },
    {
      "anonymous": false,
      "inputs": [],
      "name": "MinterLocked",
      "type": "event"
    },
    {
      "anonymous": false,
      "inputs": [
        {
          "indexed": false,
          "internalType": "address",
          "name": "minter",
          "type": "address"
        }
      ],
      "name": "MinterUpdated",
      "type": "event"
    },
    {
      "anonymous": false,
      "inputs": [
        {
          "indexed": true,
          "internalType": "uint256",
          "name": "tokenId",
          "type": "uint256"
        }
      ],
      "name": "NounBurned",
      "type": "event"
    },
    {
      "anonymous": false,
      "inputs": [
        {
          "indexed": true,
          "internalType": "uint256",
          "name": "tokenId",
          "type": "uint256"
        },
        {
          "components": [
            {
              "internalType": "uint48",
              "name": "background",
              "type": "uint48"
            },
            {
              "internalType": "uint48",
              "name": "body",
              "type": "uint48"
            },
            {
              "internalType": "uint48",
              "name": "accessory",
              "type": "uint48"
            },
            {
              "internalType": "uint48",
              "name": "head",
              "type": "uint48"
            },
            {
              "internalType": "uint48",
              "name": "glasses",
              "type": "uint48"
            }
          ],
          "indexed": false,
          "internalType": "struct INounsSeeder.Seed",
          "name": "seed",
          "type": "tuple"
        }
      ],
      "name": "NounCreated",
      "type": "event"
    },
    {
      "anonymous": false,
      "inputs": [
        {
          "indexed": false,
          "internalType": "address",
          "name": "noundersDAO",
          "type": "address"
        }
      ],
      "name": "NoundersDAOUpdated",
      "type": "event"
    },
    {
      "anonymous": false,
      "inputs": [
        {
          "indexed": true,
          "internalType": "address",
          "name": "previousOwner",
          "type": "address"
        },
        {
          "indexed": true,
          "internalType": "address",
          "name": "newOwner",
          "type": "address"
        }
      ],
      "name": "OwnershipTransferred",
      "type": "event"
    },
    {
      "anonymous": false,
      "inputs": [],
      "name": "SeederLocked",
      "type": "event"
    },
    {
      "anonymous": false,
      "inputs": [
        {
          "indexed": false,
          "internalType": "contract INounsSeeder",
          "name": "seeder",
          "type": "address"
        }
      ],
      "name": "SeederUpdated",
      "type": "event"
    },
    {
      "anonymous": false,
      "inputs": [
        {
          "indexed": true,
          "internalType": "address",
          "name": "from",
          "type": "address"
        },
        {
          "indexed": true,
          "internalType": "address",
          "name": "to",
          "type": "address"
        },
        {
          "indexed": true,
          "internalType": "uint256",
          "name": "tokenId",
          "type": "uint256"
        }
      ],
      "name": "Transfer",
      "type": "event"
    },
    {
      "inputs": [],
      "name": "DELEGATION_TYPEHASH",
      "outputs": [
        {
          "internalType": "bytes32",
          "name": "",
          "type": "bytes32"
        }
      ],
      "stateMutability": "view",
      "type": "function",
      "constant": true
    },
    {
      "inputs": [],
      "name": "DOMAIN_TYPEHASH",
      "outputs": [
        {
          "internalType": "bytes32",
          "name": "",
          "type": "bytes32"
        }
      ],
      "stateMutability": "view",
      "type": "function",
      "constant": true
    },
    {
      "inputs": [
        {
          "internalType": "address",
          "name": "to",
          "type": "address"
        },
        {
          "internalType": "uint256",
          "name": "tokenId",
          "type": "uint256"
        }
      ],
      "name": "approve",
      "outputs": [],
      "stateMutability": "nonpayable",
      "type": "function"
    },
    {
      "inputs": [
        {
          "internalType": "address",
          "name": "owner",
          "type": "address"
        }
      ],
      "name": "balanceOf",
      "outputs": [
        {
          "internalType": "uint256",
          "name": "",
          "type": "uint256"
        }
      ],
      "stateMutability": "view",
      "type": "function",
      "constant": true
    },
    {
      "inputs": [
        {
          "internalType": "address",
          "name": "",
          "type": "address"
        },
        {
          "internalType": "uint32",
          "name": "",
          "type": "uint32"
        }
      ],
      "name": "checkpoints",
      "outputs": [
        {
          "internalType": "uint32",
          "name": "fromBlock",
          "type": "uint32"
        },
        {
          "internalType": "uint96",
          "name": "votes",
          "type": "uint96"
        }
      ],
      "stateMutability": "view",
      "type": "function",
      "constant": true
    },
    {
      "inputs": [],
      "name": "decimals",
      "outputs": [
        {
          "internalType": "uint8",
          "name": "",
          "type": "uint8"
        }
      ],
      "stateMutability": "view",
      "type": "function",
      "constant": true
    },
    {
      "inputs": [
        {
          "internalType": "address",
          "name": "delegatee",
          "type": "address"
        }
      ],
      "name": "delegate",
      "outputs": [],
      "stateMutability": "nonpayable",
      "type": "function"
    },
    {
      "inputs": [
        {
          "internalType": "address",
          "name": "delegatee",
          "type": "address"
        },
        {
          "internalType": "uint256",
          "name": "nonce",
          "type": "uint256"
        },
        {
          "internalType": "uint256",
          "name": "expiry",
          "type": "uint256"
        },
        {
          "internalType": "uint8",
          "name": "v",
          "type": "uint8"
        },
        {
          "internalType": "bytes32",
          "name": "r",
          "type": "bytes32"
        },
        {
          "internalType": "bytes32",
          "name": "s",
          "type": "bytes32"
        }
      ],
      "name": "delegateBySig",
      "outputs": [],
      "stateMutability": "nonpayable",
      "type": "function"
    },
    {
      "inputs": [
        {
          "internalType": "address",
          "name": "delegator",
          "type": "address"
        }
      ],
      "name": "delegates",
      "outputs": [
        {
          "internalType": "address",
          "name": "",
          "type": "address"
        }
      ],
      "stateMutability": "view",
      "type": "function",
      "constant": true
    },
    {
      "inputs": [],
      "name": "descriptor",
      "outputs": [
        {
          "internalType": "contract INounsDescriptor",
          "name": "",
          "type": "address"
        }
      ],
      "stateMutability": "view",
      "type": "function",
      "constant": true
    },
    {
      "inputs": [
        {
          "internalType": "uint256",
          "name": "tokenId",
          "type": "uint256"
        }
      ],
      "name": "getApproved",
      "outputs": [
        {
          "internalType": "address",
          "name": "",
          "type": "address"
        }
      ],
      "stateMutability": "view",
      "type": "function",
      "constant": true
    },
    {
      "inputs": [
        {
          "internalType": "address",
          "name": "account",
          "type": "address"
        }
      ],
      "name": "getCurrentVotes",
      "outputs": [
        {
          "internalType": "uint96",
          "name": "",
          "type": "uint96"
        }
      ],
      "stateMutability": "view",
      "type": "function",
      "constant": true
    },
    {
      "inputs": [
        {
          "internalType": "address",
          "name": "account",
          "type": "address"
        },
        {
          "internalType": "uint256",
          "name": "blockNumber",
          "type": "uint256"
        }
      ],
      "name": "getPriorVotes",
      "outputs": [
        {
          "internalType": "uint96",
          "name": "",
          "type": "uint96"
        }
      ],
      "stateMutability": "view",
      "type": "function",
      "constant": true
    },
    {
      "inputs": [],
      "name": "isDescriptorLocked",
      "outputs": [
        {
          "internalType": "bool",
          "name": "",
          "type": "bool"
        }
      ],
      "stateMutability": "view",
      "type": "function",
      "constant": true
    },
    {
      "inputs": [],
      "name": "isMinterLocked",
      "outputs": [
        {
          "internalType": "bool",
          "name": "",
          "type": "bool"
        }
      ],
      "stateMutability": "view",
      "type": "function",
      "constant": true
    },
    {
      "inputs": [],
      "name": "isSeederLocked",
      "outputs": [
        {
          "internalType": "bool",
          "name": "",
          "type": "bool"
        }
      ],
      "stateMutability": "view",
      "type": "function",
      "constant": true
    },
    {
      "inputs": [],
      "name": "minter",
      "outputs": [
        {
          "internalType": "address",
          "name": "",
          "type": "address"
        }
      ],
      "stateMutability": "view",
      "type": "function",
      "constant": true
    },
    {
      "inputs": [],
      "name": "name",
      "outputs": [
        {
          "internalType": "string",
          "name": "",
          "type": "string"
        }
      ],
      "stateMutability": "view",
      "type": "function",
      "constant": true
    },
    {
      "inputs": [
        {
          "internalType": "address",
          "name": "",
          "type": "address"
        }
      ],
      "name": "nonces",
      "outputs": [
        {
          "internalType": "uint256",
          "name": "",
          "type": "uint256"
        }
      ],
      "stateMutability": "view",
      "type": "function",
      "constant": true
    },
    {
      "inputs": [
        {
          "internalType": "address",
          "name": "",
          "type": "address"
        }
      ],
      "name": "numCheckpoints",
      "outputs": [
        {
          "internalType": "uint32",
          "name": "",
          "type": "uint32"
        }
      ],
      "stateMutability": "view",
      "type": "function",
      "constant": true
    },
    {
      "inputs": [],
      "name": "owner",
      "outputs": [
        {
          "internalType": "address",
          "name": "",
          "type": "address"
        }
      ],
      "stateMutability": "view",
      "type": "function",
      "constant": true
    },
    {
      "inputs": [
        {
          "internalType": "uint256",
          "name": "tokenId",
          "type": "uint256"
        }
      ],
      "name": "ownerOf",
      "outputs": [
        {
          "internalType": "address",
          "name": "",
          "type": "address"
        }
      ],
      "stateMutability": "view",
      "type": "function",
      "constant": true
    },
    {
      "inputs": [],
      "name": "proxyRegistry",
      "outputs": [
        {
          "internalType": "contract IProxyRegistry",
          "name": "",
          "type": "address"
        }
      ],
      "stateMutability": "view",
      "type": "function",
      "constant": true
    },
    {
      "inputs": [],
      "name": "renounceOwnership",
      "outputs": [],
      "stateMutability": "nonpayable",
      "type": "function"
    },
    {
      "inputs": [
        {
          "internalType": "address",
          "name": "from",
          "type": "address"
        },
        {
          "internalType": "address",
          "name": "to",
          "type": "address"
        },
        {
          "internalType": "uint256",
          "name": "tokenId",
          "type": "uint256"
        }
      ],
      "name": "safeTransferFrom",
      "outputs": [],
      "stateMutability": "nonpayable",
      "type": "function"
    },
    {
      "inputs": [
        {
          "internalType": "address",
          "name": "from",
          "type": "address"
        },
        {
          "internalType": "address",
          "name": "to",
          "type": "address"
        },
        {
          "internalType": "uint256",
          "name": "tokenId",
          "type": "uint256"
        },
        {
          "internalType": "bytes",
          "name": "_data",
          "type": "bytes"
        }
      ],
      "name": "safeTransferFrom",
      "outputs": [],
      "stateMutability": "nonpayable",
      "type": "function"
    },
    {
      "inputs": [],
      "name": "seeder",
      "outputs": [
        {
          "internalType": "contract INounsSeeder",
          "name": "",
          "type": "address"
        }
      ],
      "stateMutability": "view",
      "type": "function",
      "constant": true
    },
    {
      "inputs": [
        {
          "internalType": "uint256",
          "name": "",
          "type": "uint256"
        }
      ],
      "name": "seeds",
      "outputs": [
        {
          "internalType": "uint48",
          "name": "background",
          "type": "uint48"
        },
        {
          "internalType": "uint48",
          "name": "body",
          "type": "uint48"
        },
        {
          "internalType": "uint48",
          "name": "accessory",
          "type": "uint48"
        },
        {
          "internalType": "uint48",
          "name": "head",
          "type": "uint48"
        },
        {
          "internalType": "uint48",
          "name": "glasses",
          "type": "uint48"
        }
      ],
      "stateMutability": "view",
      "type": "function",
      "constant": true
    },
    {
      "inputs": [
        {
          "internalType": "address",
          "name": "operator",
          "type": "address"
        },
        {
          "internalType": "bool",
          "name": "approved",
          "type": "bool"
        }
      ],
      "name": "setApprovalForAll",
      "outputs": [],
      "stateMutability": "nonpayable",
      "type": "function"
    },
    {
      "inputs": [
        {
          "internalType": "bytes4",
          "name": "interfaceId",
          "type": "bytes4"
        }
      ],
      "name": "supportsInterface",
      "outputs": [
        {
          "internalType": "bool",
          "name": "",
          "type": "bool"
        }
      ],
      "stateMutability": "view",
      "type": "function",
      "constant": true
    },
    {
      "inputs": [],
      "name": "symbol",
      "outputs": [
        {
          "internalType": "string",
          "name": "",
          "type": "string"
        }
      ],
      "stateMutability": "view",
      "type": "function",
      "constant": true
    },
    {
      "inputs": [
        {
          "internalType": "uint256",
          "name": "index",
          "type": "uint256"
        }
      ],
      "name": "tokenByIndex",
      "outputs": [
        {
          "internalType": "uint256",
          "name": "",
          "type": "uint256"
        }
      ],
      "stateMutability": "view",
      "type": "function",
      "constant": true
    },
    {
      "inputs": [
        {
          "internalType": "address",
          "name": "owner",
          "type": "address"
        },
        {
          "internalType": "uint256",
          "name": "index",
          "type": "uint256"
        }
      ],
      "name": "tokenOfOwnerByIndex",
      "outputs": [
        {
          "internalType": "uint256",
          "name": "",
          "type": "uint256"
        }
      ],
      "stateMutability": "view",
      "type": "function",
      "constant": true
    },
    {
      "inputs": [],
      "name": "totalSupply",
      "outputs": [
        {
          "internalType": "uint256",
          "name": "",
          "type": "uint256"
        }
      ],
      "stateMutability": "view",
      "type": "function",
      "constant": true
    },
    {
      "inputs": [
        {
          "internalType": "address",
          "name": "from",
          "type": "address"
        },
        {
          "internalType": "address",
          "name": "to",
          "type": "address"
        },
        {
          "internalType": "uint256",
          "name": "tokenId",
          "type": "uint256"
        }
      ],
      "name": "transferFrom",
      "outputs": [],
      "stateMutability": "nonpayable",
      "type": "function"
    },
    {
      "inputs": [
        {
          "internalType": "address",
          "name": "newOwner",
          "type": "address"
        }
      ],
      "name": "transferOwnership",
      "outputs": [],
      "stateMutability": "nonpayable",
      "type": "function"
    },
    {
      "inputs": [
        {
          "internalType": "address",
          "name": "delegator",
          "type": "address"
        }
      ],
      "name": "votesToDelegate",
      "outputs": [
        {
          "internalType": "uint96",
          "name": "",
          "type": "uint96"
        }
      ],
      "stateMutability": "view",
      "type": "function",
      "constant": true
    },
    {
      "inputs": [],
      "name": "contractURI",
      "outputs": [
        {
          "internalType": "string",
          "name": "",
          "type": "string"
        }
      ],
      "stateMutability": "view",
      "type": "function",
      "constant": true
    },
    {
      "inputs": [
        {
          "internalType": "string",
          "name": "newContractURIHash",
          "type": "string"
        }
      ],
      "name": "setContractURIHash",
      "outputs": [],
      "stateMutability": "nonpayable",
      "type": "function"
    },
    {
      "inputs": [
        {
          "internalType": "address",
          "name": "owner",
          "type": "address"
        },
        {
          "internalType": "address",
          "name": "operator",
          "type": "address"
        }
      ],
      "name": "isApprovedForAll",
      "outputs": [
        {
          "internalType": "bool",
          "name": "",
          "type": "bool"
        }
      ],
      "stateMutability": "view",
      "type": "function",
      "constant": true
    },
    {
      "inputs": [],
      "name": "mint",
      "outputs": [
        {
          "internalType": "uint256",
          "name": "",
          "type": "uint256"
        }
      ],
      "stateMutability": "nonpayable",
      "type": "function"
    },
    {
      "inputs": [
        {
          "internalType": "uint256",
          "name": "tokenId",
          "type": "uint256"
        }
      ],
      "name": "buy",
      "outputs": [
        {
          "internalType": "uint256",
          "name": "",
          "type": "uint256"
        }
      ],
      "stateMutability": "payable",
      "type": "function",
      "payable": true
    },
    {
      "inputs": [],
      "name": "getCurrentToken",
      "outputs": [
        {
          "internalType": "uint256",
          "name": "",
          "type": "uint256"
        }
      ],
      "stateMutability": "view",
      "type": "function",
      "constant": true
    },
    {
      "inputs": [
        {
          "internalType": "uint256",
          "name": "nounId",
          "type": "uint256"
        }
      ],
      "name": "burn",
      "outputs": [],
      "stateMutability": "nonpayable",
      "type": "function"
    },
    {
      "inputs": [
        {
          "internalType": "uint256",
          "name": "tokenId",
          "type": "uint256"
        }
      ],
      "name": "tokenURI",
      "outputs": [
        {
          "internalType": "string",
          "name": "",
          "type": "string"
        }
      ],
      "stateMutability": "view",
      "type": "function",
      "constant": true
    },
    {
      "inputs": [
        {
          "internalType": "uint256",
          "name": "tokenId",
          "type": "uint256"
        }
      ],
      "name": "dataURI",
      "outputs": [
        {
          "internalType": "string",
          "name": "",
          "type": "string"
        }
      ],
      "stateMutability": "view",
      "type": "function",
      "constant": true
    },
    {
      "inputs": [
        {
          "internalType": "address",
          "name": "_minter",
          "type": "address"
        }
      ],
      "name": "setMinter",
      "outputs": [],
      "stateMutability": "nonpayable",
      "type": "function"
    },
    {
      "inputs": [],
      "name": "lockMinter",
      "outputs": [],
      "stateMutability": "nonpayable",
      "type": "function"
    },
    {
      "inputs": [
        {
          "internalType": "contract INounsDescriptor",
          "name": "_descriptor",
          "type": "address"
        }
      ],
      "name": "setDescriptor",
      "outputs": [],
      "stateMutability": "nonpayable",
      "type": "function"
    },
    {
      "inputs": [],
      "name": "lockDescriptor",
      "outputs": [],
      "stateMutability": "nonpayable",
      "type": "function"
    },
    {
      "inputs": [
        {
          "internalType": "contract INounsSeeder",
          "name": "_seeder",
          "type": "address"
        }
      ],
      "name": "setSeeder",
      "outputs": [],
      "stateMutability": "nonpayable",
      "type": "function"
    },
    {
      "inputs": [],
      "name": "lockSeeder",
      "outputs": [],
      "stateMutability": "nonpayable",
      "type": "function"
    },
    {
      "inputs": [],
      "name": "transfer",
      "outputs": [],
      "stateMutability": "nonpayable",
      "type": "function"
    }
  ],
  "bytecode": "0x610100604052602e60a0818152906200418960c03980516200002a9160149160209091019062000181565b503480156200003857600080fd5b50604051620041b7380380620041b78339810160408190526200005b9162000240565b6040518060400160405280600a8152602001694e6f756e73206c6f766560b01b815250604051806040016040528060048152602001632727aaa760e11b815250620000b5620000af6200012d60201b60201c565b62000131565b8151620000ca90600190602085019062000181565b508051620000e090600290602084019062000181565b5050600f80546001600160a01b03199081166001600160a01b03978816179091556010805482169587169590951790945550601180549093169184169190911790915516608052620002e4565b3390565b600080546001600160a01b038381166001600160a01b0319831681178455604051919092169283917f8be0079c531659141344cd1fd0a4f28419497f9722a3daafe3b4186f6b6457e09190a35050565b8280546200018f90620002a8565b90600052602060002090601f016020900481019282620001b35760008555620001fe565b82601f10620001ce57805160ff1916838001178555620001fe565b82800160010185558215620001fe579182015b82811115620001fe578251825591602001919060010190620001e1565b506200020c92915062000210565b5090565b5b808211156200020c576000815560010162000211565b6001600160a01b03811681146200023d57600080fd5b50565b600080600080608085870312156200025757600080fd5b8451620002648162000227565b6020860151909450620002778162000227565b60408601519093506200028a8162000227565b60608601519092506200029d8162000227565b939692955090935050565b600181811c90821680620002bd57607f821691505b602082108103620002de57634e487b7160e01b600052602260045260246000fd5b50919050565b608051613e8262000307600039600081816107df0152611ffe0152613e826000f3fe60806040526004361061031a5760003560e01c8063715018a6116101ab578063c3cda520116100f7578063e9580e9111610095578063f0503e801161006f578063f0503e8014610994578063f1127ed814610a2f578063f2fde38b14610aa3578063fca3b5aa14610ac357600080fd5b8063e9580e911461093f578063e985e9c51461095f578063ef2d17461461097f57600080fd5b8063d50b31eb116100d1578063d50b31eb146108c3578063d96a094a146108e3578063e7a324dc146108f6578063e8a3d4851461092a57600080fd5b8063c3cda52014610862578063c87b56dd14610882578063c8fc0c23146108a257600080fd5b806395d89b4111610164578063b50cbd9f1161013e578063b50cbd9f146107cd578063b88d4fde14610801578063baedc1c414610821578063c1b8e4e11461084157600080fd5b806395d89b4114610778578063a22cb4651461078d578063b4b5ea57146107ad57600080fd5b8063715018a6146106b657806376daebe1146106cb578063782d6fe1146106e05780637ecebe00146107185780638a4068dd146107455780638da5cb5b1461075a57600080fd5b8063313ce5671161026a5780635ac1e3bb116102235780636352211e116101fd5780636352211e1461060e578063684931ed1461062e5780636fcfff451461064e57806370a082311461069657600080fd5b80635ac1e3bb146105b95780635c19a95c146105d95780635f295a67146105f957600080fd5b8063313ce567146104fd57806341b5d0de1461052457806342842e0e1461053957806342966c68146105595780634f6ccce714610579578063587cde1e1461059957600080fd5b80631249c58b116102d757806320606b70116102b157806320606b701461046957806323b872dd1461049d5780632f745c59146104bd578063303e74df146104dd57600080fd5b80631249c58b1461041057806318160ddd146104335780631e688e101461044857600080fd5b806301b9a3971461031f57806301ffc9a71461034157806306fdde03146103765780630754617214610398578063081812fc146103d0578063095ea7b3146103f0575b600080fd5b34801561032b57600080fd5b5061033f61033a3660046133eb565b610ae3565b005b34801561034d57600080fd5b5061036161035c36600461341e565b610bbc565b60405190151581526020015b60405180910390f35b34801561038257600080fd5b5061038b610be7565b60405161036d9190613493565b3480156103a457600080fd5b50600f546103b8906001600160a01b031681565b6040516001600160a01b03909116815260200161036d565b3480156103dc57600080fd5b506103b86103eb3660046134a6565b610c79565b3480156103fc57600080fd5b5061033f61040b3660046134bf565b610d0e565b34801561041c57600080fd5b50610425610e23565b60405190815260200161036d565b34801561043f57600080fd5b50600954610425565b34801561045457600080fd5b5060115461036190600160a01b900460ff1681565b34801561047557600080fd5b506104257f8cad95687ba82c2ce50e74f7b754645e5117c3a5bec8151c0726d5857980a86681565b3480156104a957600080fd5b5061033f6104b83660046134eb565b610f02565b3480156104c957600080fd5b506104256104d83660046134bf565b610f33565b3480156104e957600080fd5b506010546103b8906001600160a01b031681565b34801561050957600080fd5b50610512600081565b60405160ff909116815260200161036d565b34801561053057600080fd5b5061033f610fc9565b34801561054557600080fd5b5061033f6105543660046134eb565b611082565b34801561056557600080fd5b5061033f6105743660046134a6565b61109d565b34801561058557600080fd5b506104256105943660046134a6565b611129565b3480156105a557600080fd5b506103b86105b43660046133eb565b6111bc565b3480156105c557600080fd5b5061038b6105d43660046134a6565b6111ee565b3480156105e557600080fd5b5061033f6105f43660046133eb565b6112aa565b34801561060557600080fd5b5061033f6112c8565b34801561061a57600080fd5b506103b86106293660046134a6565b61137d565b34801561063a57600080fd5b506011546103b8906001600160a01b031681565b34801561065a57600080fd5b506106816106693660046133eb565b600d6020526000908152604090205463ffffffff1681565b60405163ffffffff909116815260200161036d565b3480156106a257600080fd5b506104256106b13660046133eb565b6113f4565b3480156106c257600080fd5b5061033f61147b565b3480156106d757600080fd5b5061033f6114b1565b3480156106ec57600080fd5b506107006106fb3660046134bf565b611566565b6040516001600160601b03909116815260200161036d565b34801561072457600080fd5b506104256107333660046133eb565b600e6020526000908152604090205481565b34801561075157600080fd5b5061033f611806565b34801561076657600080fd5b506000546001600160a01b03166103b8565b34801561078457600080fd5b5061038b61186f565b34801561079957600080fd5b5061033f6107a836600461352c565b61187e565b3480156107b957600080fd5b506107006107c83660046133eb565b611942565b3480156107d957600080fd5b506103b87f000000000000000000000000000000000000000000000000000000000000000081565b34801561080d57600080fd5b5061033f61081c366004613617565b6119bf565b34801561082d57600080fd5b5061033f61083c366004613697565b6119f7565b34801561084d57600080fd5b5060115461036190600160a81b900460ff1681565b34801561086e57600080fd5b5061033f61087d3660046136e0565b611a34565b34801561088e57600080fd5b5061038b61089d3660046134a6565b611d32565b3480156108ae57600080fd5b5060115461036190600160b01b900460ff1681565b3480156108cf57600080fd5b5061033f6108de3660046133eb565b611da9565b6104256108f13660046134a6565b611e6e565b34801561090257600080fd5b506104257fe48329057bfd03d55e49b547132e39cffd9c1820ad7b9d4c5307691425d15adf81565b34801561093657600080fd5b5061038b611f84565b34801561094b57600080fd5b5061070061095a3660046133eb565b611fac565b34801561096b57600080fd5b5061036161097a366004613742565b611fd8565b34801561098b57600080fd5b50601354610425565b3480156109a057600080fd5b506109f66109af3660046134a6565b60126020526000908152604090205465ffffffffffff8082169166010000000000008104821691600160601b8204811691600160901b8104821691600160c01b9091041685565b6040805165ffffffffffff968716815294861660208601529285169284019290925283166060830152909116608082015260a00161036d565b348015610a3b57600080fd5b50610a7f610a4a366004613770565b600c60209081526000928352604080842090915290825290205463ffffffff811690600160201b90046001600160601b031682565b6040805163ffffffff90931683526001600160601b0390911660208301520161036d565b348015610aaf57600080fd5b5061033f610abe3660046133eb565b6120ad565b348015610acf57600080fd5b5061033f610ade3660046133eb565b612145565b6000546001600160a01b03163314610b165760405162461bcd60e51b8152600401610b0d906137a7565b60405180910390fd5b601154600160a81b900460ff1615610b675760405162461bcd60e51b815260206004820152601460248201527311195cd8dc9a5c1d1bdc881a5cc81b1bd8dad95960621b6044820152606401610b0d565b601080546001600160a01b0319166001600160a01b0383169081179091556040519081527f6e66ab22238a5471005895947c8f57db923c2a9c9c73180eff80864c21295c1b906020015b60405180910390a150565b60006001600160e01b0319821663780e9d6360e01b1480610be15750610be18261220a565b92915050565b606060018054610bf6906137dc565b80601f0160208091040260200160405190810160405280929190818152602001828054610c22906137dc565b8015610c6f5780601f10610c4457610100808354040283529160200191610c6f565b820191906000526020600020905b815481529060010190602001808311610c5257829003601f168201915b5050505050905090565b6000818152600360205260408120546001600160a01b0316610cf25760405162461bcd60e51b815260206004820152602c60248201527f4552433732313a20617070726f76656420717565727920666f72206e6f6e657860448201526b34b9ba32b73a103a37b5b2b760a11b6064820152608401610b0d565b506000908152600560205260409020546001600160a01b031690565b6000610d198261137d565b9050806001600160a01b0316836001600160a01b031603610d865760405162461bcd60e51b815260206004820152602160248201527f4552433732313a20617070726f76616c20746f2063757272656e74206f776e656044820152603960f91b6064820152608401610b0d565b336001600160a01b0382161480610da25750610da28133611fd8565b610e145760405162461bcd60e51b815260206004820152603860248201527f4552433732313a20617070726f76652063616c6c6572206973206e6f74206f7760448201527f6e6572206e6f7220617070726f76656420666f7220616c6c00000000000000006064820152608401610b0d565b610e1e838361225a565b505050565b600f546000906001600160a01b03163314610e7b5760405162461bcd60e51b815260206004820152601860248201527729b2b73232b91034b9903737ba103a34329036b4b73a32b960411b6044820152606401610b0d565b60135415610ebd5760405162461bcd60e51b815260206004820152600f60248201526e4669727374206d696e74206f6e6c7960881b6044820152606401610b0d565b600f5460138054610ee6926001600160a01b0316916000610edd8361382c565b919050556122c8565b5060138054610efd913091906000610edd8361382c565b905090565b610f0c33826124c4565b610f285760405162461bcd60e51b8152600401610b0d90613845565b610e1e838383612593565b6000610f3e836113f4565b8210610fa05760405162461bcd60e51b815260206004820152602b60248201527f455243373231456e756d657261626c653a206f776e657220696e646578206f7560448201526a74206f6620626f756e647360a81b6064820152608401610b0d565b506001600160a01b03919091166000908152600760209081526040808320938352929052205490565b6000546001600160a01b03163314610ff35760405162461bcd60e51b8152600401610b0d906137a7565b601154600160a81b900460ff16156110445760405162461bcd60e51b815260206004820152601460248201527311195cd8dc9a5c1d1bdc881a5cc81b1bd8dad95960621b6044820152606401610b0d565b6011805460ff60a81b1916600160a81b1790556040517f593e31e306c198bef259d839f7c6dc4ff7fc10c07f76fab193a210b03704105f90600090a1565b610e1e838383604051806020016040528060008152506119bf565b600f546001600160a01b031633146110f25760405162461bcd60e51b815260206004820152601860248201527729b2b73232b91034b9903737ba103a34329036b4b73a32b960411b6044820152606401610b0d565b6110fb816126f0565b60405181907f806be94a2ac8b92d74e99aa8add5a8e54528a01ec914a9e00d201a6480ed986390600090a250565b600061113460095490565b82106111975760405162461bcd60e51b815260206004820152602c60248201527f455243373231456e756d657261626c653a20676c6f62616c20696e646578206f60448201526b7574206f6620626f756e647360a01b6064820152608401610b0d565b600982815481106111aa576111aa613896565b90600052602060002001549050919050565b6001600160a01b038082166000908152600b602052604081205490911680156111e557806111e7565b825b9392505050565b6000818152600360205260409020546060906001600160a01b03166112255760405162461bcd60e51b8152600401610b0d906138ac565b601054600083815260126020526040908190209051630638ac2760e41b81526001600160a01b039092169163638ac27091611265918691906004016138f7565b600060405180830381865afa158015611282573d6000803e3d6000fd5b505050506040513d6000823e601f3d908101601f19168201604052610be1919081019061393c565b6001600160a01b0381166112bb5750335b6112c53382612785565b50565b6000546001600160a01b031633146112f25760405162461bcd60e51b8152600401610b0d906137a7565b601154600160b01b900460ff161561133f5760405162461bcd60e51b815260206004820152601060248201526f14d95959195c881a5cc81b1bd8dad95960821b6044820152606401610b0d565b6011805460ff60b01b1916600160b01b1790556040517ff59561f22794afcfb1e6be5c4733f5449fd167252a96b74bb06d341fb0dac7ed90600090a1565b6000818152600360205260408120546001600160a01b031680610be15760405162461bcd60e51b815260206004820152602960248201527f4552433732313a206f776e657220717565727920666f72206e6f6e657869737460448201526832b73a103a37b5b2b760b91b6064820152608401610b0d565b60006001600160a01b03821661145f5760405162461bcd60e51b815260206004820152602a60248201527f4552433732313a2062616c616e636520717565727920666f7220746865207a65604482015269726f206164647265737360b01b6064820152608401610b0d565b506001600160a01b031660009081526004602052604090205490565b6000546001600160a01b031633146114a55760405162461bcd60e51b8152600401610b0d906137a7565b6114af6000612805565b565b6000546001600160a01b031633146114db5760405162461bcd60e51b8152600401610b0d906137a7565b601154600160a01b900460ff16156115285760405162461bcd60e51b815260206004820152601060248201526f135a5b9d195c881a5cc81b1bd8dad95960821b6044820152606401610b0d565b6011805460ff60a01b1916600160a01b1790556040517f192417b3f16b1ce69e0c59b0376549666650245ffc05e4b2569089dda8589b6690600090a1565b60004382106115dd5760405162461bcd60e51b815260206004820152603760248201527f455243373231436865636b706f696e7461626c653a3a6765745072696f72566f60448201527f7465733a206e6f74207965742064657465726d696e65640000000000000000006064820152608401610b0d565b6001600160a01b0383166000908152600d602052604081205463ffffffff169081900361160e576000915050610be1565b6001600160a01b0384166000908152600c6020526040812084916116336001856139b3565b63ffffffff908116825260208201929092526040016000205416116116a6576001600160a01b0384166000908152600c60205260408120906116766001846139b3565b63ffffffff168152602081019190915260400160002054600160201b90046001600160601b03169150610be19050565b6001600160a01b0384166000908152600c6020908152604080832083805290915290205463ffffffff168310156116e1576000915050610be1565b6000806116ef6001846139b3565b90505b8163ffffffff168163ffffffff1611156117c1576000600261171484846139b3565b61171e91906139ee565b61172890836139b3565b6001600160a01b0388166000908152600c6020908152604080832063ffffffff858116855290835292819020815180830190925254928316808252600160201b9093046001600160601b03169181019190915291925087900361179557602001519450610be19350505050565b805163ffffffff168711156117ac578193506117ba565b6117b76001836139b3565b92505b50506116f2565b506001600160a01b0385166000908152600c6020908152604080832063ffffffff909416835292905220546001600160601b03600160201b9091041691505092915050565b6000546001600160a01b031633146118305760405162461bcd60e51b8152600401610b0d906137a7565b600f546040516001600160a01b039091169081904780156108fc02916000818181858888f1935050505015801561186b573d6000803e3d6000fd5b5050565b606060028054610bf6906137dc565b336001600160a01b038316036118d65760405162461bcd60e51b815260206004820152601960248201527f4552433732313a20617070726f766520746f2063616c6c6572000000000000006044820152606401610b0d565b3360008181526006602090815260408083206001600160a01b03871680855290835292819020805460ff191686151590811790915590519081529192917f17307eab39ab6107e8899845ad3d59bd9653f200f220920489ca2b5937696c31910160405180910390a35050565b6001600160a01b0381166000908152600d602052604081205463ffffffff168061196d5760006111e7565b6001600160a01b0383166000908152600c60205260408120906119916001846139b3565b63ffffffff168152602081019190915260400160002054600160201b90046001600160601b03169392505050565b6119c933836124c4565b6119e55760405162461bcd60e51b8152600401610b0d90613845565b6119f184848484612855565b50505050565b6000546001600160a01b03163314611a215760405162461bcd60e51b8152600401610b0d906137a7565b805161186b90601490602084019061333d565b60007f8cad95687ba82c2ce50e74f7b754645e5117c3a5bec8151c0726d5857980a866611a5f610be7565b80519060200120611a6d4690565b60408051602080820195909552808201939093526060830191909152306080808401919091528151808403909101815260a0830182528051908401207fe48329057bfd03d55e49b547132e39cffd9c1820ad7b9d4c5307691425d15adf60c08401526001600160a01b038b1660e084015261010083018a90526101208084018a90528251808503909101815261014084019092528151919093012061190160f01b610160830152610162820183905261018282018190529192506000906101a20160408051601f198184030181528282528051602091820120600080855291840180845281905260ff8a169284019290925260608301889052608083018790529092509060019060a0016020604051602081039080840390855afa158015611b99573d6000803e3d6000fd5b5050604051601f1901519150506001600160a01b038116611c1b5760405162461bcd60e51b815260206004820152603660248201527f455243373231436865636b706f696e7461626c653a3a64656c656761746542796044820152755369673a20696e76616c6964207369676e617475726560501b6064820152608401610b0d565b6001600160a01b0381166000908152600e60205260408120805491611c3f8361382c565b919050558914611cac5760405162461bcd60e51b815260206004820152603260248201527f455243373231436865636b706f696e7461626c653a3a64656c656761746542796044820152715369673a20696e76616c6964206e6f6e636560701b6064820152608401610b0d565b87421115611d1b5760405162461bcd60e51b815260206004820152603660248201527f455243373231436865636b706f696e7461626c653a3a64656c6567617465427960448201527514da59ce881cda59db985d1d5c9948195e1c1a5c995960521b6064820152608401610b0d565b611d25818b612785565b505050505b505050505050565b6000818152600360205260409020546060906001600160a01b0316611d695760405162461bcd60e51b8152600401610b0d906138ac565b601054600083815260126020526040908190209051633cfdafd360e01b81526001600160a01b0390921691633cfdafd391611265918691906004016138f7565b6000546001600160a01b03163314611dd35760405162461bcd60e51b8152600401610b0d906137a7565b601154600160b01b900460ff1615611e205760405162461bcd60e51b815260206004820152601060248201526f14d95959195c881a5cc81b1bd8dad95960821b6044820152606401610b0d565b601180546001600160a01b0319166001600160a01b0383169081179091556040519081527fb3025222d01ce9a26c7f9d52bc3bfd0352366bd90a793c273fbfe1c81e0e288e90602001610bb1565b600080611e7a8361137d565b9050336001600160a01b0382163014611ed55760405162461bcd60e51b815260206004820152601960248201527f4f776e6572206973206e6f742074686520636f6e7472616374000000000000006044820152606401610b0d565b6001601354611ee49190613a11565b8414611f245760405162461bcd60e51b815260206004820152600f60248201526e2737ba103630ba32b9ba102737bab760891b6044820152606401610b0d565b611f2e8185612888565b600a601354611f3d9190613a28565b600003611f6657600f5460138054611f64926001600160a01b0316916000610edd8361382c565b505b60138054611f7c913091906000610edd8361382c565b949350505050565b60606014604051602001611f989190613a3c565b604051602081830303815290604052905090565b6000610be1611fba836113f4565b6040518060600160405280603d8152602001613dd9603d91396129d6565b60405163c455279160e01b81526001600160a01b038381166004830152600091818416917f0000000000000000000000000000000000000000000000000000000000000000169063c455279190602401602060405180830381865afa158015612045573d6000803e3d6000fd5b505050506040513d601f19601f820116820180604052508101906120699190613af0565b6001600160a01b03160361207f57506001610be1565b6001600160a01b0380841660009081526006602090815260408083209386168352929052205460ff166111e7565b6000546001600160a01b031633146120d75760405162461bcd60e51b8152600401610b0d906137a7565b6001600160a01b03811661213c5760405162461bcd60e51b815260206004820152602660248201527f4f776e61626c653a206e6577206f776e657220697320746865207a65726f206160448201526564647265737360d01b6064820152608401610b0d565b6112c581612805565b6000546001600160a01b0316331461216f5760405162461bcd60e51b8152600401610b0d906137a7565b601154600160a01b900460ff16156121bc5760405162461bcd60e51b815260206004820152601060248201526f135a5b9d195c881a5cc81b1bd8dad95960821b6044820152606401610b0d565b600f80546001600160a01b0319166001600160a01b0383169081179091556040519081527fad0f299ec81a386c98df0ac27dae11dd020ed1b56963c53a7292e7a3a314539a90602001610bb1565b60006001600160e01b031982166380ac58cd60e01b148061223b57506001600160e01b03198216635b5e139f60e01b145b80610be157506301ffc9a760e01b6001600160e01b0319831614610be1565b600081815260056020526040902080546001600160a01b0319166001600160a01b038416908117909155819061228f8261137d565b6001600160a01b03167f8c5be1e5ebec7d5bd14f71427d1e84f3dd0314c0f7b2291e5b200ac8c7c3b92560405160405180910390a45050565b60115460105460405163422e2e9960e01b8152600481018490526001600160a01b0391821660248201526000928392169063422e2e999060440160a060405180830381865afa15801561231f573d6000803e3d6000fd5b505050506040513d601f19601f820116820180604052508101906123439190613b28565b60008481526012602090815260408083208451815486850151878501516060808a015160809a8b015165ffffffffffff9687166bffffffffffffffffffffffff199096169590951766010000000000009487168502176bffffffffffffffffffffffff60601b1916600160601b938716840265ffffffffffff60901b191617600160901b91871682021765ffffffffffff60c01b198116600160c01b968816870290811798899055895160a081018b52918816908816178152938704861698840198909852908504841695820195909552948304821693850193909352919004169281019290925254909150612443906001600160a01b03168585612a05565b827f1106ee9d020bfbb5ee34cf5535a5fbf024a011bd130078088cbf124ab3092478826040516124b49190815165ffffffffffff9081168252602080840151821690830152604080840151821690830152606080840151821690830152608092830151169181019190915260a00190565b60405180910390a2509092915050565b6000818152600360205260408120546001600160a01b031661253d5760405162461bcd60e51b815260206004820152602c60248201527f4552433732313a206f70657261746f7220717565727920666f72206e6f6e657860448201526b34b9ba32b73a103a37b5b2b760a11b6064820152608401610b0d565b60006125488361137d565b9050806001600160a01b0316846001600160a01b031614806125835750836001600160a01b031661257884610c79565b6001600160a01b0316145b80611f7c5750611f7c8185611fd8565b826001600160a01b03166125a68261137d565b6001600160a01b03161461260e5760405162461bcd60e51b815260206004820152602960248201527f4552433732313a207472616e73666572206f6620746f6b656e2074686174206960448201526839903737ba1037bbb760b91b6064820152608401610b0d565b6001600160a01b0382166126345760405162461bcd60e51b8152600401610b0d90613bb6565b61263f838383612b77565b61264a60008261225a565b6001600160a01b0383166000908152600460205260408120805460019290612673908490613a11565b90915550506001600160a01b03821660009081526004602052604081208054600192906126a1908490613bfa565b909155505060008181526003602052604080822080546001600160a01b0319166001600160a01b038681169182179092559151849391871691600080516020613db983398151915291a4505050565b60006126fb8261137d565b905061270981600084612b77565b61271460008361225a565b6001600160a01b038116600090815260046020526040812080546001929061273d908490613a11565b909155505060008281526003602052604080822080546001600160a01b0319169055518391906001600160a01b03841690600080516020613db9833981519152908390a45050565b6000612790836111bc565b6001600160a01b038481166000818152600b602052604080822080546001600160a01b031916888616908117909155905194955093928516927f3134e8a2e6d97e929a7e54011ea5485d7d196dd5f0ba4d4ef95803e8e3fc257f9190a460006127f884611fac565b90506119f1828483612b9a565b600080546001600160a01b038381166001600160a01b0319831681178455604051919092169283917f8be0079c531659141344cd1fd0a4f28419497f9722a3daafe3b4186f6b6457e09190a35050565b612860848484612593565b61286c84848484612d46565b6119f15760405162461bcd60e51b8152600401610b0d90613c12565b30806128938361137d565b6001600160a01b0316146128ff5760405162461bcd60e51b815260206004820152602d60248201527f4552433732313a207472616e73666572206f6620746f6b656e2074686174206960448201526c73206e6f74206164647265737360981b6064820152608401610b0d565b6001600160a01b0383166129255760405162461bcd60e51b8152600401610b0d90613bb6565b612930818484612b77565b6001600160a01b0381166000908152600460205260408120805460019290612959908490613a11565b90915550506001600160a01b0383166000908152600460205260408120805460019290612987908490613bfa565b909155505060008281526003602052604080822080546001600160a01b0319166001600160a01b038781169182179092559151859391851691600080516020613db983398151915291a4505050565b600081600160601b84106129fd5760405162461bcd60e51b8152600401610b0d9190613493565b509192915050565b6001600160a01b038216612a5b5760405162461bcd60e51b815260206004820181905260248201527f4552433732313a206d696e7420746f20746865207a65726f20616464726573736044820152606401610b0d565b6000818152600360205260409020546001600160a01b031615612ac05760405162461bcd60e51b815260206004820152601c60248201527f4552433732313a20746f6b656e20616c7265616479206d696e746564000000006044820152606401610b0d565b612acc60008383612b77565b6001600160a01b0382166000908152600460205260408120805460019290612af5908490613bfa565b909155505060008181526003602052604080822080546001600160a01b0319166001600160a01b0386811691909117909155905183929186169190600080516020613db9833981519152908290a480826001600160a01b0316846001600160a01b0316600080516020613db983398151915260405160405180910390a4505050565b612b82838383612e47565b610e1e612b8e846111bc565b612b97846111bc565b60015b816001600160a01b0316836001600160a01b031614158015612bc557506000816001600160601b0316115b15610e1e576001600160a01b03831615612c8a576001600160a01b0383166000908152600d602052604081205463ffffffff169081612c05576000612c51565b6001600160a01b0385166000908152600c6020526040812090612c296001856139b3565b63ffffffff168152602081019190915260400160002054600160201b90046001600160601b03165b90506000612c788285604051806060016040528060378152602001613e1660379139612eff565b9050612c8686848484612f41565b5050505b6001600160a01b03821615610e1e576001600160a01b0382166000908152600d602052604081205463ffffffff169081612cc5576000612d11565b6001600160a01b0384166000908152600c6020526040812090612ce96001856139b3565b63ffffffff168152602081019190915260400160002054600160201b90046001600160601b03165b90506000612d388285604051806060016040528060368152602001613d3f60369139613139565b9050611d2a85848484612f41565b60006001600160a01b0384163b15612e3c57604051630a85bd0160e11b81526001600160a01b0385169063150b7a0290612d8a903390899088908890600401613c64565b6020604051808303816000875af1925050508015612dc5575060408051601f3d908101601f19168201909252612dc291810190613ca1565b60015b612e22573d808015612df3576040519150601f19603f3d011682016040523d82523d6000602084013e612df8565b606091505b508051600003612e1a5760405162461bcd60e51b8152600401610b0d90613c12565b805181602001fd5b6001600160e01b031916630a85bd0160e11b149050611f7c565b506001949350505050565b6001600160a01b038316612ea257612e9d81600980546000838152600a60205260408120829055600182018355919091527f6e1540171b6c0c960b71a7020d9f60077f6af931a8bbf590da0223dacf75c7af0155565b612ec5565b816001600160a01b0316836001600160a01b031614612ec557612ec58382613186565b6001600160a01b038216612edc57610e1e81613223565b826001600160a01b0316826001600160a01b031614610e1e57610e1e82826132d2565b6000836001600160601b0316836001600160601b031611158290612f365760405162461bcd60e51b8152600401610b0d9190613493565b50611f7c8385613cbe565b6000612f6543604051806080016040528060448152602001613d7560449139613316565b905060008463ffffffff16118015612fbf57506001600160a01b0385166000908152600c6020526040812063ffffffff831691612fa36001886139b3565b63ffffffff908116825260208201929092526040016000205416145b15613033576001600160a01b0385166000908152600c602052604081208391612fe96001886139b3565b63ffffffff168152602081019190915260400160002080546001600160601b0392909216600160201b026fffffffffffffffffffffffff00000000199092169190911790556130e4565b60408051808201825263ffffffff80841682526001600160601b0380861660208085019182526001600160a01b038b166000908152600c82528681208b8616825290915294909420925183549451909116600160201b026fffffffffffffffffffffffffffffffff199094169116179190911790556130b3846001613cde565b6001600160a01b0386166000908152600d60205260409020805463ffffffff191663ffffffff929092169190911790555b604080516001600160601b038086168252841660208201526001600160a01b038716917fdec2bacdd2f05b59de34da9b523dff8be42e5e38e818c82fdb0bae774387a724910160405180910390a25050505050565b6000806131468486613d06565b9050846001600160601b0316816001600160601b03161015839061317d5760405162461bcd60e51b8152600401610b0d9190613493565b50949350505050565b60006001613193846113f4565b61319d9190613a11565b6000838152600860205260409020549091508082146131f0576001600160a01b03841660009081526007602090815260408083208584528252808320548484528184208190558352600890915290208190555b5060009182526008602090815260408084208490556001600160a01b039094168352600781528383209183525290812055565b60095460009061323590600190613a11565b6000838152600a60205260408120546009805493945090928490811061325d5761325d613896565b90600052602060002001549050806009838154811061327e5761327e613896565b6000918252602080832090910192909255828152600a909152604080822084905585825281205560098054806132b6576132b6613d28565b6001900381819060005260206000200160009055905550505050565b60006132dd836113f4565b6001600160a01b039093166000908152600760209081526040808320868452825280832085905593825260089052919091209190915550565b600081600160201b84106129fd5760405162461bcd60e51b8152600401610b0d9190613493565b828054613349906137dc565b90600052602060002090601f01602090048101928261336b57600085556133b1565b82601f1061338457805160ff19168380011785556133b1565b828001600101855582156133b1579182015b828111156133b1578251825591602001919060010190613396565b506133bd9291506133c1565b5090565b5b808211156133bd57600081556001016133c2565b6001600160a01b03811681146112c557600080fd5b6000602082840312156133fd57600080fd5b81356111e7816133d6565b6001600160e01b0319811681146112c557600080fd5b60006020828403121561343057600080fd5b81356111e781613408565b60005b8381101561345657818101518382015260200161343e565b838111156119f15750506000910152565b6000815180845261347f81602086016020860161343b565b601f01601f19169290920160200192915050565b6020815260006111e76020830184613467565b6000602082840312156134b857600080fd5b5035919050565b600080604083850312156134d257600080fd5b82356134dd816133d6565b946020939093013593505050565b60008060006060848603121561350057600080fd5b833561350b816133d6565b9250602084013561351b816133d6565b929592945050506040919091013590565b6000806040838503121561353f57600080fd5b823561354a816133d6565b91506020830135801515811461355f57600080fd5b809150509250929050565b634e487b7160e01b600052604160045260246000fd5b604051601f8201601f1916810167ffffffffffffffff811182821017156135a9576135a961356a565b604052919050565b600067ffffffffffffffff8211156135cb576135cb61356a565b50601f01601f191660200190565b60006135ec6135e7846135b1565b613580565b905082815283838301111561360057600080fd5b828260208301376000602084830101529392505050565b6000806000806080858703121561362d57600080fd5b8435613638816133d6565b93506020850135613648816133d6565b925060408501359150606085013567ffffffffffffffff81111561366b57600080fd5b8501601f8101871361367c57600080fd5b61368b878235602084016135d9565b91505092959194509250565b6000602082840312156136a957600080fd5b813567ffffffffffffffff8111156136c057600080fd5b8201601f810184136136d157600080fd5b611f7c848235602084016135d9565b60008060008060008060c087890312156136f957600080fd5b8635613704816133d6565b95506020870135945060408701359350606087013560ff8116811461372857600080fd5b9598949750929560808101359460a0909101359350915050565b6000806040838503121561375557600080fd5b8235613760816133d6565b9150602083013561355f816133d6565b6000806040838503121561378357600080fd5b823561378e816133d6565b9150602083013563ffffffff8116811461355f57600080fd5b6020808252818101527f4f776e61626c653a2063616c6c6572206973206e6f7420746865206f776e6572604082015260600190565b600181811c908216806137f057607f821691505b60208210810361381057634e487b7160e01b600052602260045260246000fd5b50919050565b634e487b7160e01b600052601160045260246000fd5b60006001820161383e5761383e613816565b5060010190565b60208082526031908201527f4552433732313a207472616e736665722063616c6c6572206973206e6f74206f6040820152701ddb995c881b9bdc88185c1c1c9bdd9959607a1b606082015260800190565b634e487b7160e01b600052603260045260246000fd5b6020808252602b908201527f4e6f756e73546f6b656e3a2055524920717565727920666f72206e6f6e65786960408201526a39ba32b73a103a37b5b2b760a91b606082015260800190565b9182525465ffffffffffff8082166020840152603082901c81166040840152606082811c821690840152609082901c8116608084015260c091821c1660a08301520190565b60006020828403121561394e57600080fd5b815167ffffffffffffffff81111561396557600080fd5b8201601f8101841361397657600080fd5b80516139846135e7826135b1565b81815285602083850101111561399957600080fd5b6139aa82602083016020860161343b565b95945050505050565b600063ffffffff838116908316818110156139d0576139d0613816565b039392505050565b634e487b7160e01b600052601260045260246000fd5b600063ffffffff80841680613a0557613a056139d8565b92169190910492915050565b600082821015613a2357613a23613816565b500390565b600082613a3757613a376139d8565b500690565b66697066733a2f2f60c81b8152600060076000845481600182811c915080831680613a6857607f831692505b60208084108203613a8757634e487b7160e01b86526022600452602486fd5b818015613a9b5760018114613ab057613ae1565b60ff1986168a890152848a0188019650613ae1565b60008b81526020902060005b86811015613ad75781548c82018b0152908501908301613abc565b505087858b010196505b50949998505050505050505050565b600060208284031215613b0257600080fd5b81516111e7816133d6565b805165ffffffffffff81168114613b2357600080fd5b919050565b600060a08284031215613b3a57600080fd5b60405160a0810181811067ffffffffffffffff82111715613b5d57613b5d61356a565b604052613b6983613b0d565b8152613b7760208401613b0d565b6020820152613b8860408401613b0d565b6040820152613b9960608401613b0d565b6060820152613baa60808401613b0d565b60808201529392505050565b60208082526024908201527f4552433732313a207472616e7366657220746f20746865207a65726f206164646040820152637265737360e01b606082015260800190565b60008219821115613c0d57613c0d613816565b500190565b60208082526032908201527f4552433732313a207472616e7366657220746f206e6f6e20455243373231526560408201527131b2b4bb32b91034b6b83632b6b2b73a32b960711b606082015260800190565b6001600160a01b0385811682528416602082015260408101839052608060608201819052600090613c9790830184613467565b9695505050505050565b600060208284031215613cb357600080fd5b81516111e781613408565b60006001600160601b03838116908316818110156139d0576139d0613816565b600063ffffffff808316818516808303821115613cfd57613cfd613816565b01949350505050565b60006001600160601b03808316818516808303821115613cfd57613cfd613816565b634e487b7160e01b600052603160045260246000fdfe455243373231436865636b706f696e7461626c653a3a5f6d6f766544656c6567617465733a20616d6f756e74206f766572666c6f7773455243373231436865636b706f696e7461626c653a3a5f7772697465436865636b706f696e743a20626c6f636b206e756d62657220657863656564732033322062697473ddf252ad1be2c89b69c2b068fc378daa952ba7f163c4a11628f55a4df523b3ef455243373231436865636b706f696e7461626c653a3a766f746573546f44656c65676174653a20616d6f756e7420657863656564732039362062697473455243373231436865636b706f696e7461626c653a3a5f6d6f766544656c6567617465733a20616d6f756e7420756e646572666c6f7773a26469706673582212202ce0205fb0b2538cd4fa6b03cf8180715d79a31edcf6265c485f3097aa7ba97e64736f6c634300080d0033516d5a69316e3739467157743274544c7743716979366e4c4d36784c475273455051354a6d52654a514b4e4e7a58",
  "immutableReferences": {
    "975": [
      {
        "length": 32,
        "start": 2015
      },
      {
        "length": 32,
        "start": 8190
      }
    ]
  },
  "source": "// SPDX-License-Identifier: GPL-3.0\n\n/// @title The Nouns ERC-721 token\n\n/*********************************\n *  *\n *  *\n *  *\n *  *\n *  *\n *  *\n *  *\n *  *\n *  *\n *  *\n *********************************/\n\npragma solidity ^0.8.6;\n\nimport \"@openzeppelin/contracts/access/Ownable.sol\";\nimport './base/ERC721Checkpointable.sol';\nimport './interfaces/INounsDescriptor.sol';\nimport './interfaces/INounsSeeder.sol';\nimport './interfaces/INounsToken.sol';\nimport './base/ERC721.sol';\nimport '@openzeppelin/contracts/token/ERC721/IERC721.sol';\nimport './external/opensea/IProxyRegistry.sol';\n\nimport './interfaces/IWETH.sol';\nimport '@openzeppelin/contracts/token/ERC20/IERC20.sol';\n\ncontract NounsToken is INounsToken, Ownable, ERC721Checkpointable {\n    // An address who has permissions to mint Nouns\n    address public minter;\n\n    // The Nouns token URI descriptor\n    INounsDescriptor public descriptor;\n\n    // The Nouns token seeder\n    INounsSeeder public seeder;\n\n    // Whether the minter can be updated\n    bool public isMinterLocked;\n\n    // Whether the descriptor can be updated\n    bool public isDescriptorLocked;\n\n    // Whether the seeder can be updated\n    bool public isSeederLocked;\n\n    // The noun seeds\n    mapping(uint256 => INounsSeeder.Seed) public seeds;\n\n    // The internal noun ID tracker\n    uint256 private _currentNounId;\n\n    // IPFS content hash of contract-level metadata\n    string private _contractURIHash = 'QmZi1n79FqWt2tTLwCqiy6nLM6xLGRsEPQ5JmReJQKNNzX';\n\n    // OpenSea's Proxy Registry\n    IProxyRegistry public immutable proxyRegistry;\n\n    /**\n     * @notice Require that the minter has not been locked.\n     */\n    modifier whenMinterNotLocked() {\n        require(!isMinterLocked, 'Minter is locked');\n        _;\n    }\n\n    /**\n     * @notice Require that the descriptor has not been locked.\n     */\n    modifier whenDescriptorNotLocked() {\n        require(!isDescriptorLocked, 'Descriptor is locked');\n        _;\n    }\n\n    /**\n     * @notice Require that the seeder has not been locked.\n     */\n    modifier whenSeederNotLocked() {\n        require(!isSeederLocked, 'Seeder is locked');\n        _;\n    }\n\n    /**\n     * @notice Require that the sender is the minter.\n     */\n    modifier onlyMinter() {\n        require(msg.sender == minter, 'Sender is not the minter');\n        _;\n    }\n\n    constructor(\n        address _minter,\n        INounsDescriptor _descriptor,\n        INounsSeeder _seeder,\n        IProxyRegistry _proxyRegistry\n    ) ERC721('Nouns love', 'NOUN') {\n        minter = _minter;\n        descriptor = _descriptor;\n        seeder = _seeder;\n        proxyRegistry = _proxyRegistry;\n    }\n\n    /**\n     * @notice The IPFS URI of contract-level metadata.\n     */\n    function contractURI() public view returns (string memory) {\n        return string(abi.encodePacked('ipfs://', _contractURIHash));\n    }\n\n    /**\n     * @notice Set the _contractURIHash.\n     * @dev Only callable by the owner.\n     */\n    function setContractURIHash(string memory newContractURIHash) external onlyOwner {\n        _contractURIHash = newContractURIHash;\n    }\n\n    /**\n     * @notice Override isApprovedForAll to whitelist user's OpenSea proxy accounts to enable gas-less listings.\n     */\n    function isApprovedForAll(address owner, address operator) public view override(IERC721, ERC721) returns (bool) {\n        // Whitelist OpenSea proxy contract for easy trading.\n        if (proxyRegistry.proxies(owner) == operator) {\n            return true;\n        }\n        return super.isApprovedForAll(owner, operator);\n    }\n\n    /**\n     * @notice Mint a Noun to the minter, along with a possible nounders reward\n     * Noun. Nounders reward Nouns are minted every 10 Nouns, starting at 0,\n     * until 183 nounder Nouns have been minted (5 years w/ 24 hour auctions).\n     * @dev Call _mintTo with the to address(es).\n     */\n    function mint() public override onlyMinter returns (uint256) {\n        require(_currentNounId == 0, 'First mint only'); \n        _mintTo(minter, _currentNounId++);\n        return _mintTo(address(this), _currentNounId++);\n    }\n    /*\n      @ \n     */\n    function buy(uint256 tokenId) external payable returns (uint256) {\n        address from = ownerOf(tokenId);\n        address to = msg.sender;\n        require(from == address(this), 'Owner is not the contract');\n        require(tokenId == (_currentNounId - 1), 'Not latest Noun');\n        \n        buyTransfer(to, tokenId);\n        if (_currentNounId % 10 == 0) {\n            _mintTo(minter, _currentNounId++);\n        }\n        return _mintTo(address(this), _currentNounId++);\n    }\n    function getCurrentToken() public view returns (uint256) {                  \n        return _currentNounId;\n    }\n    /**\n     * @notice Burn a noun.\n     */\n    function burn(uint256 nounId) public override onlyMinter {\n        _burn(nounId);\n        emit NounBurned(nounId);\n    }\n\n    /**\n     * @notice A distinct Uniform Resource Identifier (URI) for a given asset.\n     * @dev See {IERC721Metadata-tokenURI}.\n     */\n    function tokenURI(uint256 tokenId) public view override returns (string memory) {\n        require(_exists(tokenId), 'NounsToken: URI query for nonexistent token');\n        return descriptor.tokenURI(tokenId, seeds[tokenId]);\n    }\n\n    /**\n     * @notice Similar to `tokenURI`, but always serves a base64 encoded data URI\n     * with the JSON contents directly inlined.\n     */\n    function dataURI(uint256 tokenId) public view override returns (string memory) {\n        require(_exists(tokenId), 'NounsToken: URI query for nonexistent token');\n        return descriptor.dataURI(tokenId, seeds[tokenId]);\n    }\n\n    /**\n     * @notice Set the token minter.\n     * @dev Only callable by the owner when not locked.\n     */\n    function setMinter(address _minter) external override onlyOwner whenMinterNotLocked {\n        minter = _minter;\n\n        emit MinterUpdated(_minter);\n    }\n\n    /**\n     * @notice Lock the minter.\n     * @dev This cannot be reversed and is only callable by the owner when not locked.\n     */\n    function lockMinter() external override onlyOwner whenMinterNotLocked {\n        isMinterLocked = true;\n\n        emit MinterLocked();\n    }\n\n    /**\n     * @notice Set the token URI descriptor.\n     * @dev Only callable by the owner when not locked.\n     */\n    function setDescriptor(INounsDescriptor _descriptor) external override onlyOwner whenDescriptorNotLocked {\n        descriptor = _descriptor;\n\n        emit DescriptorUpdated(_descriptor);\n    }\n\n    /**\n     * @notice Lock the descriptor.\n     * @dev This cannot be reversed and is only callable by the owner when not locked.\n     */\n    function lockDescriptor() external override onlyOwner whenDescriptorNotLocked {\n        isDescriptorLocked = true;\n\n        emit DescriptorLocked();\n    }\n\n    /**\n     * @notice Set the token seeder.\n     * @dev Only callable by the owner when not locked.\n     */\n    function setSeeder(INounsSeeder _seeder) external override onlyOwner whenSeederNotLocked {\n        seeder = _seeder;\n\n        emit SeederUpdated(_seeder);\n    }\n\n    /**\n     * @notice Lock the seeder.\n     * @dev This cannot be reversed and is only callable by the owner when not locked.\n     */\n    function lockSeeder() external override onlyOwner whenSeederNotLocked {\n        isSeederLocked = true;\n\n        emit SeederLocked();\n    }\n\n    /**\n     * @notice Mint a Noun with `nounId` to the provided `to` address.\n     */\n    function _mintTo(address to, uint256 nounId) internal returns (uint256) {\n        INounsSeeder.Seed memory seed = seeds[nounId] = seeder.generateSeed(nounId, descriptor);\n\n        _mint(owner(), to, nounId);\n        emit NounCreated(nounId, seed);\n\n        return nounId;\n    }\n\n    function transfer() external onlyOwner {\n        address payable payableTo = payable(minter);\n        payableTo.transfer(address(this).balance);\n    }\n\n                      \n}\n",
  "sourcePath": "/Users/isamu/ss/nouns/contractTest/contracts/NounsToken.sol",
  "compiler": {
    "name": "solc",
    "version": "0.8.13+commit.abaa5c0e.Emscripten.clang"
  },
  "schemaVersion": "3.4.7",
  "updatedAt": "2022-05-17T21:45:44.672Z",
  "networkType": "ethereum",
  "devdoc": {
    "kind": "dev",
    "methods": {
      "approve(address,uint256)": {
        "details": "See {IERC721-approve}."
      },
      "balanceOf(address)": {
        "details": "See {IERC721-balanceOf}."
      },
      "delegate(address)": {
        "params": {
          "delegatee": "The address to delegate votes to"
        }
      },
      "delegateBySig(address,uint256,uint256,uint8,bytes32,bytes32)": {
        "params": {
          "delegatee": "The address to delegate votes to",
          "expiry": "The time at which to expire the signature",
          "nonce": "The contract state required to match the signature",
          "r": "Half of the ECDSA signature pair",
          "s": "Half of the ECDSA signature pair",
          "v": "The recovery byte of the signature"
        }
      },
      "getApproved(uint256)": {
        "details": "See {IERC721-getApproved}."
      },
      "getCurrentVotes(address)": {
        "params": {
          "account": "The address to get votes balance"
        },
        "returns": {
          "_0": "The number of current votes for `account`"
        }
      },
      "getPriorVotes(address,uint256)": {
        "details": "Block number must be a finalized block or else this function will revert to prevent misinformation.",
        "params": {
          "account": "The address of the account to check",
          "blockNumber": "The block number to get the vote balance at"
        },
        "returns": {
          "_0": "The number of votes the account had as of the given block"
        }
      },
      "lockDescriptor()": {
        "details": "This cannot be reversed and is only callable by the owner when not locked."
      },
      "lockMinter()": {
        "details": "This cannot be reversed and is only callable by the owner when not locked."
      },
      "lockSeeder()": {
        "details": "This cannot be reversed and is only callable by the owner when not locked."
      },
      "mint()": {
        "details": "Call _mintTo with the to address(es)."
      },
      "name()": {
        "details": "See {IERC721Metadata-name}."
      },
      "owner()": {
        "details": "Returns the address of the current owner."
      },
      "ownerOf(uint256)": {
        "details": "See {IERC721-ownerOf}."
      },
      "renounceOwnership()": {
        "details": "Leaves the contract without owner. It will not be possible to call `onlyOwner` functions anymore. Can only be called by the current owner. NOTE: Renouncing ownership will leave the contract without an owner, thereby removing any functionality that is only available to the owner."
      },
      "safeTransferFrom(address,address,uint256)": {
        "details": "See {IERC721-safeTransferFrom}."
      },
      "safeTransferFrom(address,address,uint256,bytes)": {
        "details": "See {IERC721-safeTransferFrom}."
      },
      "setApprovalForAll(address,bool)": {
        "details": "See {IERC721-setApprovalForAll}."
      },
      "setContractURIHash(string)": {
        "details": "Only callable by the owner."
      },
      "setDescriptor(address)": {
        "details": "Only callable by the owner when not locked."
      },
      "setMinter(address)": {
        "details": "Only callable by the owner when not locked."
      },
      "setSeeder(address)": {
        "details": "Only callable by the owner when not locked."
      },
      "supportsInterface(bytes4)": {
        "details": "See {IERC165-supportsInterface}."
      },
      "symbol()": {
        "details": "See {IERC721Metadata-symbol}."
      },
      "tokenByIndex(uint256)": {
        "details": "See {IERC721Enumerable-tokenByIndex}."
      },
      "tokenOfOwnerByIndex(address,uint256)": {
        "details": "See {IERC721Enumerable-tokenOfOwnerByIndex}."
      },
      "tokenURI(uint256)": {
        "details": "See {IERC721Metadata-tokenURI}."
      },
      "totalSupply()": {
        "details": "See {IERC721Enumerable-totalSupply}."
      },
      "transferFrom(address,address,uint256)": {
        "details": "See {IERC721-transferFrom}."
      },
      "transferOwnership(address)": {
        "details": "Transfers ownership of the contract to a new account (`newOwner`). Can only be called by the current owner."
      },
      "votesToDelegate(address)": {
        "details": "Used when calling `_delegate()`"
      }
    },
    "version": 1
  },
  "userdoc": {
    "events": {
      "DelegateChanged(address,address,address)": {
        "notice": "An event thats emitted when an account changes its delegate"
      },
      "DelegateVotesChanged(address,uint256,uint256)": {
        "notice": "An event thats emitted when a delegate account's vote balance changes"
      }
    },
    "kind": "user",
    "methods": {
      "DELEGATION_TYPEHASH()": {
        "notice": "The EIP-712 typehash for the delegation struct used by the contract"
      },
      "DOMAIN_TYPEHASH()": {
        "notice": "The EIP-712 typehash for the contract's domain"
      },
      "burn(uint256)": {
        "notice": "Burn a noun."
      },
      "checkpoints(address,uint32)": {
        "notice": "A record of votes checkpoints for each account, by index"
      },
      "contractURI()": {
        "notice": "The IPFS URI of contract-level metadata."
      },
      "dataURI(uint256)": {
        "notice": "Similar to `tokenURI`, but always serves a base64 encoded data URI with the JSON contents directly inlined."
      },
      "decimals()": {
        "notice": "Defines decimals as per ERC-20 convention to make integrations with 3rd party governance platforms easier"
      },
      "delegate(address)": {
        "notice": "Delegate votes from `msg.sender` to `delegatee`"
      },
      "delegateBySig(address,uint256,uint256,uint8,bytes32,bytes32)": {
        "notice": "Delegates votes from signatory to `delegatee`"
      },
      "delegates(address)": {
        "notice": "Overrides the standard `Comp.sol` delegates mapping to return the delegator's own address if they haven't delegated. This avoids having to delegate to oneself."
      },
      "getCurrentVotes(address)": {
        "notice": "Gets the current votes balance for `account`"
      },
      "getPriorVotes(address,uint256)": {
        "notice": "Determine the prior number of votes for an account as of a block number"
      },
      "isApprovedForAll(address,address)": {
        "notice": "Override isApprovedForAll to whitelist user's OpenSea proxy accounts to enable gas-less listings."
      },
      "lockDescriptor()": {
        "notice": "Lock the descriptor."
      },
      "lockMinter()": {
        "notice": "Lock the minter."
      },
      "lockSeeder()": {
        "notice": "Lock the seeder."
      },
      "mint()": {
        "notice": "Mint a Noun to the minter, along with a possible nounders reward Noun. Nounders reward Nouns are minted every 10 Nouns, starting at 0, until 183 nounder Nouns have been minted (5 years w/ 24 hour auctions)."
      },
      "nonces(address)": {
        "notice": "A record of states for signing / validating signatures"
      },
      "numCheckpoints(address)": {
        "notice": "The number of checkpoints for each account"
      },
      "setContractURIHash(string)": {
        "notice": "Set the _contractURIHash."
      },
      "setDescriptor(address)": {
        "notice": "Set the token URI descriptor."
      },
      "setMinter(address)": {
        "notice": "Set the token minter."
      },
      "setSeeder(address)": {
        "notice": "Set the token seeder."
      },
      "tokenURI(uint256)": {
        "notice": "A distinct Uniform Resource Identifier (URI) for a given asset."
      },
      "votesToDelegate(address)": {
        "notice": "The votes a delegator can delegate, which is the current balance of the delegator."
      }
    },
    "version": 1
  }
}